{
	"contracts/5_Crowdfunding.sol": {
		"Crowdfunding": {
			"abi": [
				{
					"inputs": [],
					"name": "apellido",
					"outputs": [
						{
							"internalType": "string",
							"name": "",
							"type": "string"
						}
					],
					"stateMutability": "view",
					"type": "function"
				},
				{
					"inputs": [],
					"name": "approver",
					"outputs": [
						{
							"internalType": "address",
							"name": "",
							"type": "address"
						}
					],
					"stateMutability": "view",
					"type": "function"
				},
				{
					"inputs": [],
					"name": "artista",
					"outputs": [
						{
							"internalType": "address payable",
							"name": "",
							"type": "address"
						}
					],
					"stateMutability": "view",
					"type": "function"
				},
				{
					"inputs": [],
					"name": "balance",
					"outputs": [
						{
							"internalType": "uint256",
							"name": "",
							"type": "uint256"
						}
					],
					"stateMutability": "view",
					"type": "function"
				},
				{
					"inputs": [],
					"name": "getMecenas",
					"outputs": [
						{
							"internalType": "string",
							"name": "",
							"type": "string"
						},
						{
							"internalType": "string",
							"name": "",
							"type": "string"
						}
					],
					"stateMutability": "view",
					"type": "function"
				},
				{
					"inputs": [],
					"name": "nombre",
					"outputs": [
						{
							"internalType": "string",
							"name": "",
							"type": "string"
						}
					],
					"stateMutability": "view",
					"type": "function"
				},
				{
					"inputs": [],
					"name": "objetivo",
					"outputs": [
						{
							"internalType": "uint256",
							"name": "",
							"type": "uint256"
						}
					],
					"stateMutability": "view",
					"type": "function"
				},
				{
					"inputs": [
						{
							"internalType": "string",
							"name": "nombre_mecenas",
							"type": "string"
						},
						{
							"internalType": "string",
							"name": "apellido_mecenas",
							"type": "string"
						}
					],
					"name": "setMecenas",
					"outputs": [],
					"stateMutability": "payable",
					"type": "function"
				},
				{
					"inputs": [],
					"name": "totalRecaudado",
					"outputs": [
						{
							"internalType": "uint256",
							"name": "",
							"type": "uint256"
						}
					],
					"stateMutability": "view",
					"type": "function"
				}
			],
			"devdoc": {
				"kind": "dev",
				"methods": {},
				"version": 1
			},
			"evm": {
				"assembly": "    /* \"contracts/5_Crowdfunding.sol\":74:1006  contract Crowdfunding {\r... */\n  mstore(0x40, 0x80)\n    /* \"contracts/5_Crowdfunding.sol\":186:194  10 ether */\n  0x8ac7230489e80000\n    /* \"contracts/5_Crowdfunding.sol\":163:194  uint public objetivo = 10 ether */\n  0x02\n  sstore\n    /* \"contracts/5_Crowdfunding.sol\":74:1006  contract Crowdfunding {\r... */\n  callvalue\n  dup1\n  iszero\n  tag_1\n  jumpi\n  0x00\n  dup1\n  revert\ntag_1:\n  pop\n  dataSize(sub_0)\n  dup1\n  dataOffset(sub_0)\n  0x00\n  codecopy\n  0x00\n  return\nstop\n\nsub_0: assembly {\n        /* \"contracts/5_Crowdfunding.sol\":74:1006  contract Crowdfunding {\r... */\n      mstore(0x40, 0x80)\n      jumpi(tag_1, lt(calldatasize, 0x04))\n      shr(0xe0, calldataload(0x00))\n      dup1\n      0x972a8576\n      gt\n      tag_11\n      jumpi\n      dup1\n      0x972a8576\n      eq\n      tag_6\n      jumpi\n      dup1\n      0xa8dc86f7\n      eq\n      tag_7\n      jumpi\n      dup1\n      0xb69ef8a8\n      eq\n      tag_8\n      jumpi\n      dup1\n      0xbc7b35b2\n      eq\n      tag_9\n      jumpi\n      dup1\n      0xd925dbbe\n      eq\n      tag_10\n      jumpi\n      jump(tag_1)\n    tag_11:\n      dup1\n      0x141a8dd8\n      eq\n      tag_2\n      jumpi\n      dup1\n      0x22a2421e\n      eq\n      tag_3\n      jumpi\n      dup1\n      0x77f0e6bf\n      eq\n      tag_4\n      jumpi\n      dup1\n      0x9090d626\n      eq\n      tag_5\n      jumpi\n    tag_1:\n      0x00\n      dup1\n      revert\n        /* \"contracts/5_Crowdfunding.sol\":299:376  address public constant approver = 0xAb8483F64d9C6d1EcF9b849Ae677dD3315835cb2 */\n    tag_2:\n      callvalue\n      dup1\n      iszero\n      tag_12\n      jumpi\n      0x00\n      dup1\n      revert\n    tag_12:\n      pop\n      tag_13\n      tag_14\n      jump\t// in\n    tag_13:\n      mload(0x40)\n      tag_15\n      swap2\n      swap1\n      tag_16\n      jump\t// in\n    tag_15:\n      mload(0x40)\n      dup1\n      swap2\n      sub\n      swap1\n      return\n        /* \"contracts/5_Crowdfunding.sol\":227:253  uint public totalRecaudado */\n    tag_3:\n      callvalue\n      dup1\n      iszero\n      tag_17\n      jumpi\n      0x00\n      dup1\n      revert\n    tag_17:\n      pop\n      tag_18\n      tag_19\n      jump\t// in\n    tag_18:\n      mload(0x40)\n      tag_20\n      swap2\n      swap1\n      tag_21\n      jump\t// in\n    tag_20:\n      mload(0x40)\n      dup1\n      swap2\n      sub\n      swap1\n      return\n        /* \"contracts/5_Crowdfunding.sol\":748:861  function getMecenas() public view returns(string memory,string memory){\r... */\n    tag_4:\n      callvalue\n      dup1\n      iszero\n      tag_22\n      jumpi\n      0x00\n      dup1\n      revert\n    tag_22:\n      pop\n      tag_23\n      tag_24\n      jump\t// in\n    tag_23:\n      mload(0x40)\n      tag_25\n      swap3\n      swap2\n      swap1\n      tag_26\n      jump\t// in\n    tag_25:\n      mload(0x40)\n      dup1\n      swap2\n      sub\n      swap1\n      return\n        /* \"contracts/5_Crowdfunding.sol\":385:740  function setMecenas(\r... */\n    tag_5:\n      tag_27\n      0x04\n      dup1\n      calldatasize\n      sub\n      dup2\n      add\n      swap1\n      tag_28\n      swap2\n      swap1\n      tag_29\n      jump\t// in\n    tag_28:\n      tag_30\n      jump\t// in\n    tag_27:\n      stop\n        /* \"contracts/5_Crowdfunding.sol\":132:154  string public apellido */\n    tag_6:\n      callvalue\n      dup1\n      iszero\n      tag_31\n      jumpi\n      0x00\n      dup1\n      revert\n    tag_31:\n      pop\n      tag_32\n      tag_33\n      jump\t// in\n    tag_32:\n      mload(0x40)\n      tag_34\n      swap2\n      swap1\n      tag_35\n      jump\t// in\n    tag_34:\n      mload(0x40)\n      dup1\n      swap2\n      sub\n      swap1\n      return\n        /* \"contracts/5_Crowdfunding.sol\":163:194  uint public objetivo = 10 ether */\n    tag_7:\n      callvalue\n      dup1\n      iszero\n      tag_36\n      jumpi\n      0x00\n      dup1\n      revert\n    tag_36:\n      pop\n      tag_37\n      tag_38\n      jump\t// in\n    tag_37:\n      mload(0x40)\n      tag_39\n      swap2\n      swap1\n      tag_21\n      jump\t// in\n    tag_39:\n      mload(0x40)\n      dup1\n      swap2\n      sub\n      swap1\n      return\n        /* \"contracts/5_Crowdfunding.sol\":201:220  uint public balance */\n    tag_8:\n      callvalue\n      dup1\n      iszero\n      tag_40\n      jumpi\n      0x00\n      dup1\n      revert\n    tag_40:\n      pop\n      tag_41\n      tag_42\n      jump\t// in\n    tag_41:\n      mload(0x40)\n      tag_43\n      swap2\n      swap1\n      tag_21\n      jump\t// in\n    tag_43:\n      mload(0x40)\n      dup1\n      swap2\n      sub\n      swap1\n      return\n        /* \"contracts/5_Crowdfunding.sol\":105:125  string public nombre */\n    tag_9:\n      callvalue\n      dup1\n      iszero\n      tag_44\n      jumpi\n      0x00\n      dup1\n      revert\n    tag_44:\n      pop\n      tag_45\n      tag_46\n      jump\t// in\n    tag_45:\n      mload(0x40)\n      tag_47\n      swap2\n      swap1\n      tag_35\n      jump\t// in\n    tag_47:\n      mload(0x40)\n      dup1\n      swap2\n      sub\n      swap1\n      return\n        /* \"contracts/5_Crowdfunding.sol\":262:292  address payable public artista */\n    tag_10:\n      callvalue\n      dup1\n      iszero\n      tag_48\n      jumpi\n      0x00\n      dup1\n      revert\n    tag_48:\n      pop\n      tag_49\n      tag_50\n      jump\t// in\n    tag_49:\n      mload(0x40)\n      tag_51\n      swap2\n      swap1\n      tag_52\n      jump\t// in\n    tag_51:\n      mload(0x40)\n      dup1\n      swap2\n      sub\n      swap1\n      return\n        /* \"contracts/5_Crowdfunding.sol\":299:376  address public constant approver = 0xAb8483F64d9C6d1EcF9b849Ae677dD3315835cb2 */\n    tag_14:\n        /* \"contracts/5_Crowdfunding.sol\":334:376  0xAb8483F64d9C6d1EcF9b849Ae677dD3315835cb2 */\n      0xab8483f64d9c6d1ecf9b849ae677dd3315835cb2\n        /* \"contracts/5_Crowdfunding.sol\":299:376  address public constant approver = 0xAb8483F64d9C6d1EcF9b849Ae677dD3315835cb2 */\n      dup2\n      jump\t// out\n        /* \"contracts/5_Crowdfunding.sol\":227:253  uint public totalRecaudado */\n    tag_19:\n      sload(0x04)\n      dup2\n      jump\t// out\n        /* \"contracts/5_Crowdfunding.sol\":748:861  function getMecenas() public view returns(string memory,string memory){\r... */\n    tag_24:\n        /* \"contracts/5_Crowdfunding.sol\":790:803  string memory */\n      0x60\n        /* \"contracts/5_Crowdfunding.sol\":804:817  string memory */\n      dup1\n        /* \"contracts/5_Crowdfunding.sol\":837:843  nombre */\n      0x00\n        /* \"contracts/5_Crowdfunding.sol\":844:852  apellido */\n      0x01\n        /* \"contracts/5_Crowdfunding.sol\":829:853  return (nombre,apellido) */\n      dup2\n      dup1\n      sload\n      tag_54\n      swap1\n      tag_55\n      jump\t// in\n    tag_54:\n      dup1\n      0x1f\n      add\n      0x20\n      dup1\n      swap2\n      div\n      mul\n      0x20\n      add\n      mload(0x40)\n      swap1\n      dup2\n      add\n      0x40\n      mstore\n      dup1\n      swap3\n      swap2\n      swap1\n      dup2\n      dup2\n      mstore\n      0x20\n      add\n      dup3\n      dup1\n      sload\n      tag_56\n      swap1\n      tag_55\n      jump\t// in\n    tag_56:\n      dup1\n      iszero\n      tag_57\n      jumpi\n      dup1\n      0x1f\n      lt\n      tag_58\n      jumpi\n      0x0100\n      dup1\n      dup4\n      sload\n      div\n      mul\n      dup4\n      mstore\n      swap2\n      0x20\n      add\n      swap2\n      jump(tag_57)\n    tag_58:\n      dup3\n      add\n      swap2\n      swap1\n      0x00\n      mstore\n      keccak256(0x00, 0x20)\n      swap1\n    tag_59:\n      dup2\n      sload\n      dup2\n      mstore\n      swap1\n      0x01\n      add\n      swap1\n      0x20\n      add\n      dup1\n      dup4\n      gt\n      tag_59\n      jumpi\n      dup3\n      swap1\n      sub\n      0x1f\n      and\n      dup3\n      add\n      swap2\n    tag_57:\n      pop\n      pop\n      pop\n      pop\n      pop\n      swap2\n      pop\n      dup1\n      dup1\n      sload\n      tag_60\n      swap1\n      tag_55\n      jump\t// in\n    tag_60:\n      dup1\n      0x1f\n      add\n      0x20\n      dup1\n      swap2\n      div\n      mul\n      0x20\n      add\n      mload(0x40)\n      swap1\n      dup2\n      add\n      0x40\n      mstore\n      dup1\n      swap3\n      swap2\n      swap1\n      dup2\n      dup2\n      mstore\n      0x20\n      add\n      dup3\n      dup1\n      sload\n      tag_61\n      swap1\n      tag_55\n      jump\t// in\n    tag_61:\n      dup1\n      iszero\n      tag_62\n      jumpi\n      dup1\n      0x1f\n      lt\n      tag_63\n      jumpi\n      0x0100\n      dup1\n      dup4\n      sload\n      div\n      mul\n      dup4\n      mstore\n      swap2\n      0x20\n      add\n      swap2\n      jump(tag_62)\n    tag_63:\n      dup3\n      add\n      swap2\n      swap1\n      0x00\n      mstore\n      keccak256(0x00, 0x20)\n      swap1\n    tag_64:\n      dup2\n      sload\n      dup2\n      mstore\n      swap1\n      0x01\n      add\n      swap1\n      0x20\n      add\n      dup1\n      dup4\n      gt\n      tag_64\n      jumpi\n      dup3\n      swap1\n      sub\n      0x1f\n      and\n      dup3\n      add\n      swap2\n    tag_62:\n      pop\n      pop\n      pop\n      pop\n      pop\n      swap1\n      pop\n      swap2\n      pop\n      swap2\n      pop\n        /* \"contracts/5_Crowdfunding.sol\":748:861  function getMecenas() public view returns(string memory,string memory){\r... */\n      swap1\n      swap2\n      jump\t// out\n        /* \"contracts/5_Crowdfunding.sol\":385:740  function setMecenas(\r... */\n    tag_30:\n        /* \"contracts/5_Crowdfunding.sol\":527:541  nombre_mecenas */\n      dup2\n        /* \"contracts/5_Crowdfunding.sol\":518:524  nombre */\n      0x00\n        /* \"contracts/5_Crowdfunding.sol\":518:541  nombre = nombre_mecenas */\n      swap1\n      dup1\n      mload\n      swap1\n      0x20\n      add\n      swap1\n      tag_66\n      swap3\n      swap2\n      swap1\n      tag_67\n      jump\t// in\n    tag_66:\n      pop\n        /* \"contracts/5_Crowdfunding.sol\":563:579  apellido_mecenas */\n      dup1\n        /* \"contracts/5_Crowdfunding.sol\":552:560  apellido */\n      0x01\n        /* \"contracts/5_Crowdfunding.sol\":552:579  apellido = apellido_mecenas */\n      swap1\n      dup1\n      mload\n      swap1\n      0x20\n      add\n      swap1\n      tag_68\n      swap3\n      swap2\n      swap1\n      tag_67\n      jump\t// in\n    tag_68:\n      pop\n        /* \"contracts/5_Crowdfunding.sol\":612:619  1 ether */\n      0x0de0b6b3a7640000\n        /* \"contracts/5_Crowdfunding.sol\":600:609  msg.value */\n      callvalue\n        /* \"contracts/5_Crowdfunding.sol\":600:619  msg.value > 1 ether */\n      gt\n        /* \"contracts/5_Crowdfunding.sol\":592:620  require(msg.value > 1 ether) */\n      tag_69\n      jumpi\n      0x00\n      dup1\n      revert\n    tag_69:\n        /* \"contracts/5_Crowdfunding.sol\":653:662  msg.value */\n      callvalue\n        /* \"contracts/5_Crowdfunding.sol\":643:650  balance */\n      sload(0x03)\n        /* \"contracts/5_Crowdfunding.sol\":643:662  balance + msg.value */\n      tag_70\n      swap2\n      swap1\n      tag_71\n      jump\t// in\n    tag_70:\n        /* \"contracts/5_Crowdfunding.sol\":633:640  balance */\n      0x03\n        /* \"contracts/5_Crowdfunding.sol\":633:662  balance = balance + msg.value */\n      dup2\n      swap1\n      sstore\n      pop\n        /* \"contracts/5_Crowdfunding.sol\":689:697  objetivo */\n      sload(0x02)\n        /* \"contracts/5_Crowdfunding.sol\":678:685  balance */\n      sload(0x03)\n        /* \"contracts/5_Crowdfunding.sol\":678:697  balance >= objetivo */\n      lt\n        /* \"contracts/5_Crowdfunding.sol\":675:733  if(balance >= objetivo){\r... */\n      tag_72\n      jumpi\n        /* \"contracts/5_Crowdfunding.sol\":713:721  payOut() */\n      tag_73\n        /* \"contracts/5_Crowdfunding.sol\":713:719  payOut */\n      tag_74\n        /* \"contracts/5_Crowdfunding.sol\":713:721  payOut() */\n      jump\t// in\n    tag_73:\n        /* \"contracts/5_Crowdfunding.sol\":675:733  if(balance >= objetivo){\r... */\n    tag_72:\n        /* \"contracts/5_Crowdfunding.sol\":385:740  function setMecenas(\r... */\n      pop\n      pop\n      jump\t// out\n        /* \"contracts/5_Crowdfunding.sol\":132:154  string public apellido */\n    tag_33:\n      0x01\n      dup1\n      sload\n      tag_75\n      swap1\n      tag_55\n      jump\t// in\n    tag_75:\n      dup1\n      0x1f\n      add\n      0x20\n      dup1\n      swap2\n      div\n      mul\n      0x20\n      add\n      mload(0x40)\n      swap1\n      dup2\n      add\n      0x40\n      mstore\n      dup1\n      swap3\n      swap2\n      swap1\n      dup2\n      dup2\n      mstore\n      0x20\n      add\n      dup3\n      dup1\n      sload\n      tag_76\n      swap1\n      tag_55\n      jump\t// in\n    tag_76:\n      dup1\n      iszero\n      tag_77\n      jumpi\n      dup1\n      0x1f\n      lt\n      tag_78\n      jumpi\n      0x0100\n      dup1\n      dup4\n      sload\n      div\n      mul\n      dup4\n      mstore\n      swap2\n      0x20\n      add\n      swap2\n      jump(tag_77)\n    tag_78:\n      dup3\n      add\n      swap2\n      swap1\n      0x00\n      mstore\n      keccak256(0x00, 0x20)\n      swap1\n    tag_79:\n      dup2\n      sload\n      dup2\n      mstore\n      swap1\n      0x01\n      add\n      swap1\n      0x20\n      add\n      dup1\n      dup4\n      gt\n      tag_79\n      jumpi\n      dup3\n      swap1\n      sub\n      0x1f\n      and\n      dup3\n      add\n      swap2\n    tag_77:\n      pop\n      pop\n      pop\n      pop\n      pop\n      dup2\n      jump\t// out\n        /* \"contracts/5_Crowdfunding.sol\":163:194  uint public objetivo = 10 ether */\n    tag_38:\n      sload(0x02)\n      dup2\n      jump\t// out\n        /* \"contracts/5_Crowdfunding.sol\":201:220  uint public balance */\n    tag_42:\n      sload(0x03)\n      dup2\n      jump\t// out\n        /* \"contracts/5_Crowdfunding.sol\":105:125  string public nombre */\n    tag_46:\n      0x00\n      dup1\n      sload\n      tag_80\n      swap1\n      tag_55\n      jump\t// in\n    tag_80:\n      dup1\n      0x1f\n      add\n      0x20\n      dup1\n      swap2\n      div\n      mul\n      0x20\n      add\n      mload(0x40)\n      swap1\n      dup2\n      add\n      0x40\n      mstore\n      dup1\n      swap3\n      swap2\n      swap1\n      dup2\n      dup2\n      mstore\n      0x20\n      add\n      dup3\n      dup1\n      sload\n      tag_81\n      swap1\n      tag_55\n      jump\t// in\n    tag_81:\n      dup1\n      iszero\n      tag_82\n      jumpi\n      dup1\n      0x1f\n      lt\n      tag_83\n      jumpi\n      0x0100\n      dup1\n      dup4\n      sload\n      div\n      mul\n      dup4\n      mstore\n      swap2\n      0x20\n      add\n      swap2\n      jump(tag_82)\n    tag_83:\n      dup3\n      add\n      swap2\n      swap1\n      0x00\n      mstore\n      keccak256(0x00, 0x20)\n      swap1\n    tag_84:\n      dup2\n      sload\n      dup2\n      mstore\n      swap1\n      0x01\n      add\n      swap1\n      0x20\n      add\n      dup1\n      dup4\n      gt\n      tag_84\n      jumpi\n      dup3\n      swap1\n      sub\n      0x1f\n      and\n      dup3\n      add\n      swap2\n    tag_82:\n      pop\n      pop\n      pop\n      pop\n      pop\n      dup2\n      jump\t// out\n        /* \"contracts/5_Crowdfunding.sol\":262:292  address payable public artista */\n    tag_50:\n      0x05\n      0x00\n      swap1\n      sload\n      swap1\n      0x0100\n      exp\n      swap1\n      div\n      0xffffffffffffffffffffffffffffffffffffffff\n      and\n      dup2\n      jump\t// out\n        /* \"contracts/5_Crowdfunding.sol\":869:1003  function payOut() private {\r... */\n    tag_74:\n        /* \"contracts/5_Crowdfunding.sol\":923:930  balance */\n      sload(0x03)\n        /* \"contracts/5_Crowdfunding.sol\":906:920  totalRecaudado */\n      0x04\n        /* \"contracts/5_Crowdfunding.sol\":906:930  totalRecaudado = balance */\n      dup2\n      swap1\n      sstore\n      pop\n        /* \"contracts/5_Crowdfunding.sol\":951:952  0 */\n      0x00\n        /* \"contracts/5_Crowdfunding.sol\":941:948  balance */\n      0x03\n        /* \"contracts/5_Crowdfunding.sol\":941:952  balance = 0 */\n      dup2\n      swap1\n      sstore\n      pop\n        /* \"contracts/5_Crowdfunding.sol\":963:970  artista */\n      0x05\n      0x00\n      swap1\n      sload\n      swap1\n      0x0100\n      exp\n      swap1\n      div\n      0xffffffffffffffffffffffffffffffffffffffff\n      and\n        /* \"contracts/5_Crowdfunding.sol\":963:979  artista.transfer */\n      0xffffffffffffffffffffffffffffffffffffffff\n      and\n        /* \"contracts/5_Crowdfunding.sol\":963:995  artista.transfer(totalRecaudado) */\n      0x08fc\n        /* \"contracts/5_Crowdfunding.sol\":980:994  totalRecaudado */\n      sload(0x04)\n        /* \"contracts/5_Crowdfunding.sol\":963:995  artista.transfer(totalRecaudado) */\n      swap1\n      dup2\n      iszero\n      mul\n      swap1\n      mload(0x40)\n      0x00\n      mload(0x40)\n      dup1\n      dup4\n      sub\n      dup2\n      dup6\n      dup9\n      dup9\n      call\n      swap4\n      pop\n      pop\n      pop\n      pop\n      iszero\n      dup1\n      iszero\n      tag_87\n      jumpi\n      returndatasize\n      0x00\n      dup1\n      returndatacopy\n      revert(0x00, returndatasize)\n    tag_87:\n      pop\n        /* \"contracts/5_Crowdfunding.sol\":869:1003  function payOut() private {\r... */\n      jump\t// out\n    tag_67:\n      dup3\n      dup1\n      sload\n      tag_88\n      swap1\n      tag_55\n      jump\t// in\n    tag_88:\n      swap1\n      0x00\n      mstore\n      keccak256(0x00, 0x20)\n      swap1\n      0x1f\n      add\n      0x20\n      swap1\n      div\n      dup2\n      add\n      swap3\n      dup3\n      tag_90\n      jumpi\n      0x00\n      dup6\n      sstore\n      jump(tag_89)\n    tag_90:\n      dup3\n      0x1f\n      lt\n      tag_91\n      jumpi\n      dup1\n      mload\n      not(0xff)\n      and\n      dup4\n      dup1\n      add\n      or\n      dup6\n      sstore\n      jump(tag_89)\n    tag_91:\n      dup3\n      dup1\n      add\n      0x01\n      add\n      dup6\n      sstore\n      dup3\n      iszero\n      tag_89\n      jumpi\n      swap2\n      dup3\n      add\n    tag_92:\n      dup3\n      dup2\n      gt\n      iszero\n      tag_93\n      jumpi\n      dup3\n      mload\n      dup3\n      sstore\n      swap2\n      0x20\n      add\n      swap2\n      swap1\n      0x01\n      add\n      swap1\n      jump(tag_92)\n    tag_93:\n    tag_89:\n      pop\n      swap1\n      pop\n      tag_94\n      swap2\n      swap1\n      tag_95\n      jump\t// in\n    tag_94:\n      pop\n      swap1\n      jump\t// out\n    tag_95:\n    tag_96:\n      dup1\n      dup3\n      gt\n      iszero\n      tag_97\n      jumpi\n      0x00\n      dup2\n      0x00\n      swap1\n      sstore\n      pop\n      0x01\n      add\n      jump(tag_96)\n    tag_97:\n      pop\n      swap1\n      jump\t// out\n        /* \"#utility.yul\":7:419   */\n    tag_99:\n        /* \"#utility.yul\":85:90   */\n      0x00\n        /* \"#utility.yul\":110:176   */\n      tag_101\n        /* \"#utility.yul\":126:175   */\n      tag_102\n        /* \"#utility.yul\":168:174   */\n      dup5\n        /* \"#utility.yul\":126:175   */\n      tag_103\n      jump\t// in\n    tag_102:\n        /* \"#utility.yul\":110:176   */\n      tag_104\n      jump\t// in\n    tag_101:\n        /* \"#utility.yul\":101:176   */\n      swap1\n      pop\n        /* \"#utility.yul\":199:205   */\n      dup3\n        /* \"#utility.yul\":192:197   */\n      dup2\n        /* \"#utility.yul\":185:206   */\n      mstore\n        /* \"#utility.yul\":237:241   */\n      0x20\n        /* \"#utility.yul\":230:235   */\n      dup2\n        /* \"#utility.yul\":226:242   */\n      add\n        /* \"#utility.yul\":275:278   */\n      dup5\n        /* \"#utility.yul\":266:272   */\n      dup5\n        /* \"#utility.yul\":261:264   */\n      dup5\n        /* \"#utility.yul\":257:273   */\n      add\n        /* \"#utility.yul\":254:279   */\n      gt\n        /* \"#utility.yul\":251:363   */\n      iszero\n      tag_105\n      jumpi\n        /* \"#utility.yul\":282:361   */\n      tag_106\n      tag_107\n      jump\t// in\n    tag_106:\n        /* \"#utility.yul\":251:363   */\n    tag_105:\n        /* \"#utility.yul\":372:413   */\n      tag_108\n        /* \"#utility.yul\":406:412   */\n      dup5\n        /* \"#utility.yul\":401:404   */\n      dup3\n        /* \"#utility.yul\":396:399   */\n      dup6\n        /* \"#utility.yul\":372:413   */\n      tag_109\n      jump\t// in\n    tag_108:\n        /* \"#utility.yul\":91:419   */\n      pop\n        /* \"#utility.yul\":7:419   */\n      swap4\n      swap3\n      pop\n      pop\n      pop\n      jump\t// out\n        /* \"#utility.yul\":439:779   */\n    tag_110:\n        /* \"#utility.yul\":495:500   */\n      0x00\n        /* \"#utility.yul\":544:547   */\n      dup3\n        /* \"#utility.yul\":537:541   */\n      0x1f\n        /* \"#utility.yul\":529:535   */\n      dup4\n        /* \"#utility.yul\":525:542   */\n      add\n        /* \"#utility.yul\":521:548   */\n      slt\n        /* \"#utility.yul\":511:633   */\n      tag_112\n      jumpi\n        /* \"#utility.yul\":552:631   */\n      tag_113\n      tag_114\n      jump\t// in\n    tag_113:\n        /* \"#utility.yul\":511:633   */\n    tag_112:\n        /* \"#utility.yul\":669:675   */\n      dup2\n        /* \"#utility.yul\":656:676   */\n      calldataload\n        /* \"#utility.yul\":694:773   */\n      tag_115\n        /* \"#utility.yul\":769:772   */\n      dup5\n        /* \"#utility.yul\":761:767   */\n      dup3\n        /* \"#utility.yul\":754:758   */\n      0x20\n        /* \"#utility.yul\":746:752   */\n      dup7\n        /* \"#utility.yul\":742:759   */\n      add\n        /* \"#utility.yul\":694:773   */\n      tag_99\n      jump\t// in\n    tag_115:\n        /* \"#utility.yul\":685:773   */\n      swap2\n      pop\n        /* \"#utility.yul\":501:779   */\n      pop\n        /* \"#utility.yul\":439:779   */\n      swap3\n      swap2\n      pop\n      pop\n      jump\t// out\n        /* \"#utility.yul\":785:1619   */\n    tag_29:\n        /* \"#utility.yul\":873:879   */\n      0x00\n        /* \"#utility.yul\":881:887   */\n      dup1\n        /* \"#utility.yul\":930:932   */\n      0x40\n        /* \"#utility.yul\":918:927   */\n      dup4\n        /* \"#utility.yul\":909:916   */\n      dup6\n        /* \"#utility.yul\":905:928   */\n      sub\n        /* \"#utility.yul\":901:933   */\n      slt\n        /* \"#utility.yul\":898:1017   */\n      iszero\n      tag_117\n      jumpi\n        /* \"#utility.yul\":936:1015   */\n      tag_118\n      tag_119\n      jump\t// in\n    tag_118:\n        /* \"#utility.yul\":898:1017   */\n    tag_117:\n        /* \"#utility.yul\":1084:1085   */\n      0x00\n        /* \"#utility.yul\":1073:1082   */\n      dup4\n        /* \"#utility.yul\":1069:1086   */\n      add\n        /* \"#utility.yul\":1056:1087   */\n      calldataload\n        /* \"#utility.yul\":1114:1132   */\n      0xffffffffffffffff\n        /* \"#utility.yul\":1106:1112   */\n      dup2\n        /* \"#utility.yul\":1103:1133   */\n      gt\n        /* \"#utility.yul\":1100:1217   */\n      iszero\n      tag_120\n      jumpi\n        /* \"#utility.yul\":1136:1215   */\n      tag_121\n      tag_122\n      jump\t// in\n    tag_121:\n        /* \"#utility.yul\":1100:1217   */\n    tag_120:\n        /* \"#utility.yul\":1241:1304   */\n      tag_123\n        /* \"#utility.yul\":1296:1303   */\n      dup6\n        /* \"#utility.yul\":1287:1293   */\n      dup3\n        /* \"#utility.yul\":1276:1285   */\n      dup7\n        /* \"#utility.yul\":1272:1294   */\n      add\n        /* \"#utility.yul\":1241:1304   */\n      tag_110\n      jump\t// in\n    tag_123:\n        /* \"#utility.yul\":1231:1304   */\n      swap3\n      pop\n        /* \"#utility.yul\":1027:1314   */\n      pop\n        /* \"#utility.yul\":1381:1383   */\n      0x20\n        /* \"#utility.yul\":1370:1379   */\n      dup4\n        /* \"#utility.yul\":1366:1384   */\n      add\n        /* \"#utility.yul\":1353:1385   */\n      calldataload\n        /* \"#utility.yul\":1412:1430   */\n      0xffffffffffffffff\n        /* \"#utility.yul\":1404:1410   */\n      dup2\n        /* \"#utility.yul\":1401:1431   */\n      gt\n        /* \"#utility.yul\":1398:1515   */\n      iszero\n      tag_124\n      jumpi\n        /* \"#utility.yul\":1434:1513   */\n      tag_125\n      tag_122\n      jump\t// in\n    tag_125:\n        /* \"#utility.yul\":1398:1515   */\n    tag_124:\n        /* \"#utility.yul\":1539:1602   */\n      tag_126\n        /* \"#utility.yul\":1594:1601   */\n      dup6\n        /* \"#utility.yul\":1585:1591   */\n      dup3\n        /* \"#utility.yul\":1574:1583   */\n      dup7\n        /* \"#utility.yul\":1570:1592   */\n      add\n        /* \"#utility.yul\":1539:1602   */\n      tag_110\n      jump\t// in\n    tag_126:\n        /* \"#utility.yul\":1529:1602   */\n      swap2\n      pop\n        /* \"#utility.yul\":1324:1612   */\n      pop\n        /* \"#utility.yul\":785:1619   */\n      swap3\n      pop\n      swap3\n      swap1\n      pop\n      jump\t// out\n        /* \"#utility.yul\":1625:1767   */\n    tag_127:\n        /* \"#utility.yul\":1728:1760   */\n      tag_129\n        /* \"#utility.yul\":1754:1759   */\n      dup2\n        /* \"#utility.yul\":1728:1760   */\n      tag_130\n      jump\t// in\n    tag_129:\n        /* \"#utility.yul\":1723:1726   */\n      dup3\n        /* \"#utility.yul\":1716:1761   */\n      mstore\n        /* \"#utility.yul\":1625:1767   */\n      pop\n      pop\n      jump\t// out\n        /* \"#utility.yul\":1773:1891   */\n    tag_131:\n        /* \"#utility.yul\":1860:1884   */\n      tag_133\n        /* \"#utility.yul\":1878:1883   */\n      dup2\n        /* \"#utility.yul\":1860:1884   */\n      tag_134\n      jump\t// in\n    tag_133:\n        /* \"#utility.yul\":1855:1858   */\n      dup3\n        /* \"#utility.yul\":1848:1885   */\n      mstore\n        /* \"#utility.yul\":1773:1891   */\n      pop\n      pop\n      jump\t// out\n        /* \"#utility.yul\":1897:2261   */\n    tag_135:\n        /* \"#utility.yul\":1985:1988   */\n      0x00\n        /* \"#utility.yul\":2013:2052   */\n      tag_137\n        /* \"#utility.yul\":2046:2051   */\n      dup3\n        /* \"#utility.yul\":2013:2052   */\n      tag_138\n      jump\t// in\n    tag_137:\n        /* \"#utility.yul\":2068:2139   */\n      tag_139\n        /* \"#utility.yul\":2132:2138   */\n      dup2\n        /* \"#utility.yul\":2127:2130   */\n      dup6\n        /* \"#utility.yul\":2068:2139   */\n      tag_140\n      jump\t// in\n    tag_139:\n        /* \"#utility.yul\":2061:2139   */\n      swap4\n      pop\n        /* \"#utility.yul\":2148:2200   */\n      tag_141\n        /* \"#utility.yul\":2193:2199   */\n      dup2\n        /* \"#utility.yul\":2188:2191   */\n      dup6\n        /* \"#utility.yul\":2181:2185   */\n      0x20\n        /* \"#utility.yul\":2174:2179   */\n      dup7\n        /* \"#utility.yul\":2170:2186   */\n      add\n        /* \"#utility.yul\":2148:2200   */\n      tag_142\n      jump\t// in\n    tag_141:\n        /* \"#utility.yul\":2225:2254   */\n      tag_143\n        /* \"#utility.yul\":2247:2253   */\n      dup2\n        /* \"#utility.yul\":2225:2254   */\n      tag_144\n      jump\t// in\n    tag_143:\n        /* \"#utility.yul\":2220:2223   */\n      dup5\n        /* \"#utility.yul\":2216:2255   */\n      add\n        /* \"#utility.yul\":2209:2255   */\n      swap2\n      pop\n        /* \"#utility.yul\":1989:2261   */\n      pop\n        /* \"#utility.yul\":1897:2261   */\n      swap3\n      swap2\n      pop\n      pop\n      jump\t// out\n        /* \"#utility.yul\":2267:2385   */\n    tag_145:\n        /* \"#utility.yul\":2354:2378   */\n      tag_147\n        /* \"#utility.yul\":2372:2377   */\n      dup2\n        /* \"#utility.yul\":2354:2378   */\n      tag_148\n      jump\t// in\n    tag_147:\n        /* \"#utility.yul\":2349:2352   */\n      dup3\n        /* \"#utility.yul\":2342:2379   */\n      mstore\n        /* \"#utility.yul\":2267:2385   */\n      pop\n      pop\n      jump\t// out\n        /* \"#utility.yul\":2391:2613   */\n    tag_16:\n        /* \"#utility.yul\":2484:2488   */\n      0x00\n        /* \"#utility.yul\":2522:2524   */\n      0x20\n        /* \"#utility.yul\":2511:2520   */\n      dup3\n        /* \"#utility.yul\":2507:2525   */\n      add\n        /* \"#utility.yul\":2499:2525   */\n      swap1\n      pop\n        /* \"#utility.yul\":2535:2606   */\n      tag_150\n        /* \"#utility.yul\":2603:2604   */\n      0x00\n        /* \"#utility.yul\":2592:2601   */\n      dup4\n        /* \"#utility.yul\":2588:2605   */\n      add\n        /* \"#utility.yul\":2579:2585   */\n      dup5\n        /* \"#utility.yul\":2535:2606   */\n      tag_131\n      jump\t// in\n    tag_150:\n        /* \"#utility.yul\":2391:2613   */\n      swap3\n      swap2\n      pop\n      pop\n      jump\t// out\n        /* \"#utility.yul\":2619:2873   */\n    tag_52:\n        /* \"#utility.yul\":2728:2732   */\n      0x00\n        /* \"#utility.yul\":2766:2768   */\n      0x20\n        /* \"#utility.yul\":2755:2764   */\n      dup3\n        /* \"#utility.yul\":2751:2769   */\n      add\n        /* \"#utility.yul\":2743:2769   */\n      swap1\n      pop\n        /* \"#utility.yul\":2779:2866   */\n      tag_152\n        /* \"#utility.yul\":2863:2864   */\n      0x00\n        /* \"#utility.yul\":2852:2861   */\n      dup4\n        /* \"#utility.yul\":2848:2865   */\n      add\n        /* \"#utility.yul\":2839:2845   */\n      dup5\n        /* \"#utility.yul\":2779:2866   */\n      tag_127\n      jump\t// in\n    tag_152:\n        /* \"#utility.yul\":2619:2873   */\n      swap3\n      swap2\n      pop\n      pop\n      jump\t// out\n        /* \"#utility.yul\":2879:3192   */\n    tag_35:\n        /* \"#utility.yul\":2992:2996   */\n      0x00\n        /* \"#utility.yul\":3030:3032   */\n      0x20\n        /* \"#utility.yul\":3019:3028   */\n      dup3\n        /* \"#utility.yul\":3015:3033   */\n      add\n        /* \"#utility.yul\":3007:3033   */\n      swap1\n      pop\n        /* \"#utility.yul\":3079:3088   */\n      dup2\n        /* \"#utility.yul\":3073:3077   */\n      dup2\n        /* \"#utility.yul\":3069:3089   */\n      sub\n        /* \"#utility.yul\":3065:3066   */\n      0x00\n        /* \"#utility.yul\":3054:3063   */\n      dup4\n        /* \"#utility.yul\":3050:3067   */\n      add\n        /* \"#utility.yul\":3043:3090   */\n      mstore\n        /* \"#utility.yul\":3107:3185   */\n      tag_154\n        /* \"#utility.yul\":3180:3184   */\n      dup2\n        /* \"#utility.yul\":3171:3177   */\n      dup5\n        /* \"#utility.yul\":3107:3185   */\n      tag_135\n      jump\t// in\n    tag_154:\n        /* \"#utility.yul\":3099:3185   */\n      swap1\n      pop\n        /* \"#utility.yul\":2879:3192   */\n      swap3\n      swap2\n      pop\n      pop\n      jump\t// out\n        /* \"#utility.yul\":3198:3712   */\n    tag_26:\n        /* \"#utility.yul\":3359:3363   */\n      0x00\n        /* \"#utility.yul\":3397:3399   */\n      0x40\n        /* \"#utility.yul\":3386:3395   */\n      dup3\n        /* \"#utility.yul\":3382:3400   */\n      add\n        /* \"#utility.yul\":3374:3400   */\n      swap1\n      pop\n        /* \"#utility.yul\":3446:3455   */\n      dup2\n        /* \"#utility.yul\":3440:3444   */\n      dup2\n        /* \"#utility.yul\":3436:3456   */\n      sub\n        /* \"#utility.yul\":3432:3433   */\n      0x00\n        /* \"#utility.yul\":3421:3430   */\n      dup4\n        /* \"#utility.yul\":3417:3434   */\n      add\n        /* \"#utility.yul\":3410:3457   */\n      mstore\n        /* \"#utility.yul\":3474:3552   */\n      tag_156\n        /* \"#utility.yul\":3547:3551   */\n      dup2\n        /* \"#utility.yul\":3538:3544   */\n      dup6\n        /* \"#utility.yul\":3474:3552   */\n      tag_135\n      jump\t// in\n    tag_156:\n        /* \"#utility.yul\":3466:3552   */\n      swap1\n      pop\n        /* \"#utility.yul\":3599:3608   */\n      dup2\n        /* \"#utility.yul\":3593:3597   */\n      dup2\n        /* \"#utility.yul\":3589:3609   */\n      sub\n        /* \"#utility.yul\":3584:3586   */\n      0x20\n        /* \"#utility.yul\":3573:3582   */\n      dup4\n        /* \"#utility.yul\":3569:3587   */\n      add\n        /* \"#utility.yul\":3562:3610   */\n      mstore\n        /* \"#utility.yul\":3627:3705   */\n      tag_157\n        /* \"#utility.yul\":3700:3704   */\n      dup2\n        /* \"#utility.yul\":3691:3697   */\n      dup5\n        /* \"#utility.yul\":3627:3705   */\n      tag_135\n      jump\t// in\n    tag_157:\n        /* \"#utility.yul\":3619:3705   */\n      swap1\n      pop\n        /* \"#utility.yul\":3198:3712   */\n      swap4\n      swap3\n      pop\n      pop\n      pop\n      jump\t// out\n        /* \"#utility.yul\":3718:3940   */\n    tag_21:\n        /* \"#utility.yul\":3811:3815   */\n      0x00\n        /* \"#utility.yul\":3849:3851   */\n      0x20\n        /* \"#utility.yul\":3838:3847   */\n      dup3\n        /* \"#utility.yul\":3834:3852   */\n      add\n        /* \"#utility.yul\":3826:3852   */\n      swap1\n      pop\n        /* \"#utility.yul\":3862:3933   */\n      tag_159\n        /* \"#utility.yul\":3930:3931   */\n      0x00\n        /* \"#utility.yul\":3919:3928   */\n      dup4\n        /* \"#utility.yul\":3915:3932   */\n      add\n        /* \"#utility.yul\":3906:3912   */\n      dup5\n        /* \"#utility.yul\":3862:3933   */\n      tag_145\n      jump\t// in\n    tag_159:\n        /* \"#utility.yul\":3718:3940   */\n      swap3\n      swap2\n      pop\n      pop\n      jump\t// out\n        /* \"#utility.yul\":3946:4075   */\n    tag_104:\n        /* \"#utility.yul\":3980:3986   */\n      0x00\n        /* \"#utility.yul\":4007:4027   */\n      tag_161\n      tag_162\n      jump\t// in\n    tag_161:\n        /* \"#utility.yul\":3997:4027   */\n      swap1\n      pop\n        /* \"#utility.yul\":4036:4069   */\n      tag_163\n        /* \"#utility.yul\":4064:4068   */\n      dup3\n        /* \"#utility.yul\":4056:4062   */\n      dup3\n        /* \"#utility.yul\":4036:4069   */\n      tag_164\n      jump\t// in\n    tag_163:\n        /* \"#utility.yul\":3946:4075   */\n      swap2\n      swap1\n      pop\n      jump\t// out\n        /* \"#utility.yul\":4081:4156   */\n    tag_162:\n        /* \"#utility.yul\":4114:4120   */\n      0x00\n        /* \"#utility.yul\":4147:4149   */\n      0x40\n        /* \"#utility.yul\":4141:4150   */\n      mload\n        /* \"#utility.yul\":4131:4150   */\n      swap1\n      pop\n        /* \"#utility.yul\":4081:4156   */\n      swap1\n      jump\t// out\n        /* \"#utility.yul\":4162:4470   */\n    tag_103:\n        /* \"#utility.yul\":4224:4228   */\n      0x00\n        /* \"#utility.yul\":4314:4332   */\n      0xffffffffffffffff\n        /* \"#utility.yul\":4306:4312   */\n      dup3\n        /* \"#utility.yul\":4303:4333   */\n      gt\n        /* \"#utility.yul\":4300:4356   */\n      iszero\n      tag_167\n      jumpi\n        /* \"#utility.yul\":4336:4354   */\n      tag_168\n      tag_169\n      jump\t// in\n    tag_168:\n        /* \"#utility.yul\":4300:4356   */\n    tag_167:\n        /* \"#utility.yul\":4374:4403   */\n      tag_170\n        /* \"#utility.yul\":4396:4402   */\n      dup3\n        /* \"#utility.yul\":4374:4403   */\n      tag_144\n      jump\t// in\n    tag_170:\n        /* \"#utility.yul\":4366:4403   */\n      swap1\n      pop\n        /* \"#utility.yul\":4458:4462   */\n      0x20\n        /* \"#utility.yul\":4452:4456   */\n      dup2\n        /* \"#utility.yul\":4448:4463   */\n      add\n        /* \"#utility.yul\":4440:4463   */\n      swap1\n      pop\n        /* \"#utility.yul\":4162:4470   */\n      swap2\n      swap1\n      pop\n      jump\t// out\n        /* \"#utility.yul\":4476:4575   */\n    tag_138:\n        /* \"#utility.yul\":4528:4534   */\n      0x00\n        /* \"#utility.yul\":4562:4567   */\n      dup2\n        /* \"#utility.yul\":4556:4568   */\n      mload\n        /* \"#utility.yul\":4546:4568   */\n      swap1\n      pop\n        /* \"#utility.yul\":4476:4575   */\n      swap2\n      swap1\n      pop\n      jump\t// out\n        /* \"#utility.yul\":4581:4750   */\n    tag_140:\n        /* \"#utility.yul\":4665:4676   */\n      0x00\n        /* \"#utility.yul\":4699:4705   */\n      dup3\n        /* \"#utility.yul\":4694:4697   */\n      dup3\n        /* \"#utility.yul\":4687:4706   */\n      mstore\n        /* \"#utility.yul\":4739:4743   */\n      0x20\n        /* \"#utility.yul\":4734:4737   */\n      dup3\n        /* \"#utility.yul\":4730:4744   */\n      add\n        /* \"#utility.yul\":4715:4744   */\n      swap1\n      pop\n        /* \"#utility.yul\":4581:4750   */\n      swap3\n      swap2\n      pop\n      pop\n      jump\t// out\n        /* \"#utility.yul\":4756:5061   */\n    tag_71:\n        /* \"#utility.yul\":4796:4799   */\n      0x00\n        /* \"#utility.yul\":4815:4835   */\n      tag_174\n        /* \"#utility.yul\":4833:4834   */\n      dup3\n        /* \"#utility.yul\":4815:4835   */\n      tag_148\n      jump\t// in\n    tag_174:\n        /* \"#utility.yul\":4810:4835   */\n      swap2\n      pop\n        /* \"#utility.yul\":4849:4869   */\n      tag_175\n        /* \"#utility.yul\":4867:4868   */\n      dup4\n        /* \"#utility.yul\":4849:4869   */\n      tag_148\n      jump\t// in\n    tag_175:\n        /* \"#utility.yul\":4844:4869   */\n      swap3\n      pop\n        /* \"#utility.yul\":5003:5004   */\n      dup3\n        /* \"#utility.yul\":4935:5001   */\n      0xffffffffffffffffffffffffffffffffffffffffffffffffffffffffffffffff\n        /* \"#utility.yul\":4931:5005   */\n      sub\n        /* \"#utility.yul\":4928:4929   */\n      dup3\n        /* \"#utility.yul\":4925:5006   */\n      gt\n        /* \"#utility.yul\":4922:5029   */\n      iszero\n      tag_176\n      jumpi\n        /* \"#utility.yul\":5009:5027   */\n      tag_177\n      tag_178\n      jump\t// in\n    tag_177:\n        /* \"#utility.yul\":4922:5029   */\n    tag_176:\n        /* \"#utility.yul\":5053:5054   */\n      dup3\n        /* \"#utility.yul\":5050:5051   */\n      dup3\n        /* \"#utility.yul\":5046:5055   */\n      add\n        /* \"#utility.yul\":5039:5055   */\n      swap1\n      pop\n        /* \"#utility.yul\":4756:5061   */\n      swap3\n      swap2\n      pop\n      pop\n      jump\t// out\n        /* \"#utility.yul\":5067:5163   */\n    tag_134:\n        /* \"#utility.yul\":5104:5111   */\n      0x00\n        /* \"#utility.yul\":5133:5157   */\n      tag_180\n        /* \"#utility.yul\":5151:5156   */\n      dup3\n        /* \"#utility.yul\":5133:5157   */\n      tag_181\n      jump\t// in\n    tag_180:\n        /* \"#utility.yul\":5122:5157   */\n      swap1\n      pop\n        /* \"#utility.yul\":5067:5163   */\n      swap2\n      swap1\n      pop\n      jump\t// out\n        /* \"#utility.yul\":5169:5273   */\n    tag_130:\n        /* \"#utility.yul\":5214:5221   */\n      0x00\n        /* \"#utility.yul\":5243:5267   */\n      tag_183\n        /* \"#utility.yul\":5261:5266   */\n      dup3\n        /* \"#utility.yul\":5243:5267   */\n      tag_181\n      jump\t// in\n    tag_183:\n        /* \"#utility.yul\":5232:5267   */\n      swap1\n      pop\n        /* \"#utility.yul\":5169:5273   */\n      swap2\n      swap1\n      pop\n      jump\t// out\n        /* \"#utility.yul\":5279:5405   */\n    tag_181:\n        /* \"#utility.yul\":5316:5323   */\n      0x00\n        /* \"#utility.yul\":5356:5398   */\n      0xffffffffffffffffffffffffffffffffffffffff\n        /* \"#utility.yul\":5349:5354   */\n      dup3\n        /* \"#utility.yul\":5345:5399   */\n      and\n        /* \"#utility.yul\":5334:5399   */\n      swap1\n      pop\n        /* \"#utility.yul\":5279:5405   */\n      swap2\n      swap1\n      pop\n      jump\t// out\n        /* \"#utility.yul\":5411:5488   */\n    tag_148:\n        /* \"#utility.yul\":5448:5455   */\n      0x00\n        /* \"#utility.yul\":5477:5482   */\n      dup2\n        /* \"#utility.yul\":5466:5482   */\n      swap1\n      pop\n        /* \"#utility.yul\":5411:5488   */\n      swap2\n      swap1\n      pop\n      jump\t// out\n        /* \"#utility.yul\":5494:5648   */\n    tag_109:\n        /* \"#utility.yul\":5578:5584   */\n      dup3\n        /* \"#utility.yul\":5573:5576   */\n      dup2\n        /* \"#utility.yul\":5568:5571   */\n      dup4\n        /* \"#utility.yul\":5555:5585   */\n      calldatacopy\n        /* \"#utility.yul\":5640:5641   */\n      0x00\n        /* \"#utility.yul\":5631:5637   */\n      dup4\n        /* \"#utility.yul\":5626:5629   */\n      dup4\n        /* \"#utility.yul\":5622:5638   */\n      add\n        /* \"#utility.yul\":5615:5642   */\n      mstore\n        /* \"#utility.yul\":5494:5648   */\n      pop\n      pop\n      pop\n      jump\t// out\n        /* \"#utility.yul\":5654:5961   */\n    tag_142:\n        /* \"#utility.yul\":5722:5723   */\n      0x00\n        /* \"#utility.yul\":5732:5845   */\n    tag_188:\n        /* \"#utility.yul\":5746:5752   */\n      dup4\n        /* \"#utility.yul\":5743:5744   */\n      dup2\n        /* \"#utility.yul\":5740:5753   */\n      lt\n        /* \"#utility.yul\":5732:5845   */\n      iszero\n      tag_190\n      jumpi\n        /* \"#utility.yul\":5831:5832   */\n      dup1\n        /* \"#utility.yul\":5826:5829   */\n      dup3\n        /* \"#utility.yul\":5822:5833   */\n      add\n        /* \"#utility.yul\":5816:5834   */\n      mload\n        /* \"#utility.yul\":5812:5813   */\n      dup2\n        /* \"#utility.yul\":5807:5810   */\n      dup5\n        /* \"#utility.yul\":5803:5814   */\n      add\n        /* \"#utility.yul\":5796:5835   */\n      mstore\n        /* \"#utility.yul\":5768:5770   */\n      0x20\n        /* \"#utility.yul\":5765:5766   */\n      dup2\n        /* \"#utility.yul\":5761:5771   */\n      add\n        /* \"#utility.yul\":5756:5771   */\n      swap1\n      pop\n        /* \"#utility.yul\":5732:5845   */\n      jump(tag_188)\n    tag_190:\n        /* \"#utility.yul\":5863:5869   */\n      dup4\n        /* \"#utility.yul\":5860:5861   */\n      dup2\n        /* \"#utility.yul\":5857:5870   */\n      gt\n        /* \"#utility.yul\":5854:5955   */\n      iszero\n      tag_191\n      jumpi\n        /* \"#utility.yul\":5943:5944   */\n      0x00\n        /* \"#utility.yul\":5934:5940   */\n      dup5\n        /* \"#utility.yul\":5929:5932   */\n      dup5\n        /* \"#utility.yul\":5925:5941   */\n      add\n        /* \"#utility.yul\":5918:5945   */\n      mstore\n        /* \"#utility.yul\":5854:5955   */\n    tag_191:\n        /* \"#utility.yul\":5703:5961   */\n      pop\n        /* \"#utility.yul\":5654:5961   */\n      pop\n      pop\n      pop\n      jump\t// out\n        /* \"#utility.yul\":5967:6287   */\n    tag_55:\n        /* \"#utility.yul\":6011:6017   */\n      0x00\n        /* \"#utility.yul\":6048:6049   */\n      0x02\n        /* \"#utility.yul\":6042:6046   */\n      dup3\n        /* \"#utility.yul\":6038:6050   */\n      div\n        /* \"#utility.yul\":6028:6050   */\n      swap1\n      pop\n        /* \"#utility.yul\":6095:6096   */\n      0x01\n        /* \"#utility.yul\":6089:6093   */\n      dup3\n        /* \"#utility.yul\":6085:6097   */\n      and\n        /* \"#utility.yul\":6116:6134   */\n      dup1\n        /* \"#utility.yul\":6106:6187   */\n      tag_193\n      jumpi\n        /* \"#utility.yul\":6172:6176   */\n      0x7f\n        /* \"#utility.yul\":6164:6170   */\n      dup3\n        /* \"#utility.yul\":6160:6177   */\n      and\n        /* \"#utility.yul\":6150:6177   */\n      swap2\n      pop\n        /* \"#utility.yul\":6106:6187   */\n    tag_193:\n        /* \"#utility.yul\":6234:6236   */\n      0x20\n        /* \"#utility.yul\":6226:6232   */\n      dup3\n        /* \"#utility.yul\":6223:6237   */\n      lt\n        /* \"#utility.yul\":6203:6221   */\n      dup2\n        /* \"#utility.yul\":6200:6238   */\n      eq\n        /* \"#utility.yul\":6197:6281   */\n      iszero\n      tag_194\n      jumpi\n        /* \"#utility.yul\":6253:6271   */\n      tag_195\n      tag_196\n      jump\t// in\n    tag_195:\n        /* \"#utility.yul\":6197:6281   */\n    tag_194:\n        /* \"#utility.yul\":6018:6287   */\n      pop\n        /* \"#utility.yul\":5967:6287   */\n      swap2\n      swap1\n      pop\n      jump\t// out\n        /* \"#utility.yul\":6293:6574   */\n    tag_164:\n        /* \"#utility.yul\":6376:6403   */\n      tag_198\n        /* \"#utility.yul\":6398:6402   */\n      dup3\n        /* \"#utility.yul\":6376:6403   */\n      tag_144\n      jump\t// in\n    tag_198:\n        /* \"#utility.yul\":6368:6374   */\n      dup2\n        /* \"#utility.yul\":6364:6404   */\n      add\n        /* \"#utility.yul\":6506:6512   */\n      dup2\n        /* \"#utility.yul\":6494:6504   */\n      dup2\n        /* \"#utility.yul\":6491:6513   */\n      lt\n        /* \"#utility.yul\":6470:6488   */\n      0xffffffffffffffff\n        /* \"#utility.yul\":6458:6468   */\n      dup3\n        /* \"#utility.yul\":6455:6489   */\n      gt\n        /* \"#utility.yul\":6452:6514   */\n      or\n        /* \"#utility.yul\":6449:6537   */\n      iszero\n      tag_199\n      jumpi\n        /* \"#utility.yul\":6517:6535   */\n      tag_200\n      tag_169\n      jump\t// in\n    tag_200:\n        /* \"#utility.yul\":6449:6537   */\n    tag_199:\n        /* \"#utility.yul\":6557:6567   */\n      dup1\n        /* \"#utility.yul\":6553:6555   */\n      0x40\n        /* \"#utility.yul\":6546:6568   */\n      mstore\n        /* \"#utility.yul\":6336:6574   */\n      pop\n        /* \"#utility.yul\":6293:6574   */\n      pop\n      pop\n      jump\t// out\n        /* \"#utility.yul\":6580:6760   */\n    tag_178:\n        /* \"#utility.yul\":6628:6705   */\n      0x4e487b7100000000000000000000000000000000000000000000000000000000\n        /* \"#utility.yul\":6625:6626   */\n      0x00\n        /* \"#utility.yul\":6618:6706   */\n      mstore\n        /* \"#utility.yul\":6725:6729   */\n      0x11\n        /* \"#utility.yul\":6722:6723   */\n      0x04\n        /* \"#utility.yul\":6715:6730   */\n      mstore\n        /* \"#utility.yul\":6749:6753   */\n      0x24\n        /* \"#utility.yul\":6746:6747   */\n      0x00\n        /* \"#utility.yul\":6739:6754   */\n      revert\n        /* \"#utility.yul\":6766:6946   */\n    tag_196:\n        /* \"#utility.yul\":6814:6891   */\n      0x4e487b7100000000000000000000000000000000000000000000000000000000\n        /* \"#utility.yul\":6811:6812   */\n      0x00\n        /* \"#utility.yul\":6804:6892   */\n      mstore\n        /* \"#utility.yul\":6911:6915   */\n      0x22\n        /* \"#utility.yul\":6908:6909   */\n      0x04\n        /* \"#utility.yul\":6901:6916   */\n      mstore\n        /* \"#utility.yul\":6935:6939   */\n      0x24\n        /* \"#utility.yul\":6932:6933   */\n      0x00\n        /* \"#utility.yul\":6925:6940   */\n      revert\n        /* \"#utility.yul\":6952:7132   */\n    tag_169:\n        /* \"#utility.yul\":7000:7077   */\n      0x4e487b7100000000000000000000000000000000000000000000000000000000\n        /* \"#utility.yul\":6997:6998   */\n      0x00\n        /* \"#utility.yul\":6990:7078   */\n      mstore\n        /* \"#utility.yul\":7097:7101   */\n      0x41\n        /* \"#utility.yul\":7094:7095   */\n      0x04\n        /* \"#utility.yul\":7087:7102   */\n      mstore\n        /* \"#utility.yul\":7121:7125   */\n      0x24\n        /* \"#utility.yul\":7118:7119   */\n      0x00\n        /* \"#utility.yul\":7111:7126   */\n      revert\n        /* \"#utility.yul\":7138:7255   */\n    tag_114:\n        /* \"#utility.yul\":7247:7248   */\n      0x00\n        /* \"#utility.yul\":7244:7245   */\n      dup1\n        /* \"#utility.yul\":7237:7249   */\n      revert\n        /* \"#utility.yul\":7261:7378   */\n    tag_107:\n        /* \"#utility.yul\":7370:7371   */\n      0x00\n        /* \"#utility.yul\":7367:7368   */\n      dup1\n        /* \"#utility.yul\":7360:7372   */\n      revert\n        /* \"#utility.yul\":7384:7501   */\n    tag_122:\n        /* \"#utility.yul\":7493:7494   */\n      0x00\n        /* \"#utility.yul\":7490:7491   */\n      dup1\n        /* \"#utility.yul\":7483:7495   */\n      revert\n        /* \"#utility.yul\":7507:7624   */\n    tag_119:\n        /* \"#utility.yul\":7616:7617   */\n      0x00\n        /* \"#utility.yul\":7613:7614   */\n      dup1\n        /* \"#utility.yul\":7606:7618   */\n      revert\n        /* \"#utility.yul\":7630:7732   */\n    tag_144:\n        /* \"#utility.yul\":7671:7677   */\n      0x00\n        /* \"#utility.yul\":7722:7724   */\n      0x1f\n        /* \"#utility.yul\":7718:7725   */\n      not\n        /* \"#utility.yul\":7713:7715   */\n      0x1f\n        /* \"#utility.yul\":7706:7711   */\n      dup4\n        /* \"#utility.yul\":7702:7716   */\n      add\n        /* \"#utility.yul\":7698:7726   */\n      and\n        /* \"#utility.yul\":7688:7726   */\n      swap1\n      pop\n        /* \"#utility.yul\":7630:7732   */\n      swap2\n      swap1\n      pop\n      jump\t// out\n\n    auxdata: 0xa2646970667358221220664f06309d80c5d053fcf6b2ec65f81f23e2b490443776ab99822210edfb730e64736f6c63430008070033\n}\n",
				"bytecode": {
					"linkReferences": {},
					"object": "6080604052678ac7230489e8000060025534801561001c57600080fd5b50610abd8061002c6000396000f3fe6080604052600436106100865760003560e01c8063972a857611610059578063972a857614610129578063a8dc86f714610154578063b69ef8a81461017f578063bc7b35b2146101aa578063d925dbbe146101d557610086565b8063141a8dd81461008b57806322a2421e146100b657806377f0e6bf146100e15780639090d6261461010d575b600080fd5b34801561009757600080fd5b506100a0610200565b6040516100ad9190610770565b60405180910390f35b3480156100c257600080fd5b506100cb610218565b6040516100d891906107ff565b60405180910390f35b3480156100ed57600080fd5b506100f661021e565b6040516101049291906107c8565b60405180910390f35b61012760048036038101906101229190610692565b610345565b005b34801561013557600080fd5b5061013e6103b3565b60405161014b91906107a6565b60405180910390f35b34801561016057600080fd5b50610169610441565b60405161017691906107ff565b60405180910390f35b34801561018b57600080fd5b50610194610447565b6040516101a191906107ff565b60405180910390f35b3480156101b657600080fd5b506101bf61044d565b6040516101cc91906107a6565b60405180910390f35b3480156101e157600080fd5b506101ea6104db565b6040516101f7919061078b565b60405180910390f35b73ab8483f64d9c6d1ecf9b849ae677dd3315835cb281565b60045481565b6060806000600181805461023190610972565b80601f016020809104026020016040519081016040528092919081815260200182805461025d90610972565b80156102aa5780601f1061027f576101008083540402835291602001916102aa565b820191906000526020600020905b81548152906001019060200180831161028d57829003601f168201915b505050505091508080546102bd90610972565b80601f01602080910402602001604051908101604052809291908181526020018280546102e990610972565b80156103365780601f1061030b57610100808354040283529160200191610336565b820191906000526020600020905b81548152906001019060200180831161031957829003601f168201915b50505050509050915091509091565b816000908051906020019061035b92919061057f565b50806001908051906020019061037292919061057f565b50670de0b6b3a7640000341161038757600080fd5b34600354610395919061088c565b600381905550600254600354106103af576103ae610501565b5b5050565b600180546103c090610972565b80601f01602080910402602001604051908101604052809291908181526020018280546103ec90610972565b80156104395780601f1061040e57610100808354040283529160200191610439565b820191906000526020600020905b81548152906001019060200180831161041c57829003601f168201915b505050505081565b60025481565b60035481565b6000805461045a90610972565b80601f016020809104026020016040519081016040528092919081815260200182805461048690610972565b80156104d35780601f106104a8576101008083540402835291602001916104d3565b820191906000526020600020905b8154815290600101906020018083116104b657829003601f168201915b505050505081565b600560009054906101000a900473ffffffffffffffffffffffffffffffffffffffff1681565b6003546004819055506000600381905550600560009054906101000a900473ffffffffffffffffffffffffffffffffffffffff1673ffffffffffffffffffffffffffffffffffffffff166108fc6004549081150290604051600060405180830381858888f1935050505015801561057c573d6000803e3d6000fd5b50565b82805461058b90610972565b90600052602060002090601f0160209004810192826105ad57600085556105f4565b82601f106105c657805160ff19168380011785556105f4565b828001600101855582156105f4579182015b828111156105f35782518255916020019190600101906105d8565b5b5090506106019190610605565b5090565b5b8082111561061e576000816000905550600101610606565b5090565b60006106356106308461083f565b61081a565b90508281526020810184848401111561065157610650610a67565b5b61065c848285610930565b509392505050565b600082601f83011261067957610678610a62565b5b8135610689848260208601610622565b91505092915050565b600080604083850312156106a9576106a8610a71565b5b600083013567ffffffffffffffff8111156106c7576106c6610a6c565b5b6106d385828601610664565b925050602083013567ffffffffffffffff8111156106f4576106f3610a6c565b5b61070085828601610664565b9150509250929050565b610713816108f4565b82525050565b610722816108e2565b82525050565b600061073382610870565b61073d818561087b565b935061074d81856020860161093f565b61075681610a76565b840191505092915050565b61076a81610926565b82525050565b60006020820190506107856000830184610719565b92915050565b60006020820190506107a0600083018461070a565b92915050565b600060208201905081810360008301526107c08184610728565b905092915050565b600060408201905081810360008301526107e28185610728565b905081810360208301526107f68184610728565b90509392505050565b60006020820190506108146000830184610761565b92915050565b6000610824610835565b905061083082826109a4565b919050565b6000604051905090565b600067ffffffffffffffff82111561085a57610859610a33565b5b61086382610a76565b9050602081019050919050565b600081519050919050565b600082825260208201905092915050565b600061089782610926565b91506108a283610926565b9250827fffffffffffffffffffffffffffffffffffffffffffffffffffffffffffffffff038211156108d7576108d66109d5565b5b828201905092915050565b60006108ed82610906565b9050919050565b60006108ff82610906565b9050919050565b600073ffffffffffffffffffffffffffffffffffffffff82169050919050565b6000819050919050565b82818337600083830152505050565b60005b8381101561095d578082015181840152602081019050610942565b8381111561096c576000848401525b50505050565b6000600282049050600182168061098a57607f821691505b6020821081141561099e5761099d610a04565b5b50919050565b6109ad82610a76565b810181811067ffffffffffffffff821117156109cc576109cb610a33565b5b80604052505050565b7f4e487b7100000000000000000000000000000000000000000000000000000000600052601160045260246000fd5b7f4e487b7100000000000000000000000000000000000000000000000000000000600052602260045260246000fd5b7f4e487b7100000000000000000000000000000000000000000000000000000000600052604160045260246000fd5b600080fd5b600080fd5b600080fd5b600080fd5b6000601f19601f830116905091905056fea2646970667358221220664f06309d80c5d053fcf6b2ec65f81f23e2b490443776ab99822210edfb730e64736f6c63430008070033",
					"opcodes": "PUSH1 0x80 PUSH1 0x40 MSTORE PUSH8 0x8AC7230489E80000 PUSH1 0x2 SSTORE CALLVALUE DUP1 ISZERO PUSH2 0x1C JUMPI PUSH1 0x0 DUP1 REVERT JUMPDEST POP PUSH2 0xABD DUP1 PUSH2 0x2C PUSH1 0x0 CODECOPY PUSH1 0x0 RETURN INVALID PUSH1 0x80 PUSH1 0x40 MSTORE PUSH1 0x4 CALLDATASIZE LT PUSH2 0x86 JUMPI PUSH1 0x0 CALLDATALOAD PUSH1 0xE0 SHR DUP1 PUSH4 0x972A8576 GT PUSH2 0x59 JUMPI DUP1 PUSH4 0x972A8576 EQ PUSH2 0x129 JUMPI DUP1 PUSH4 0xA8DC86F7 EQ PUSH2 0x154 JUMPI DUP1 PUSH4 0xB69EF8A8 EQ PUSH2 0x17F JUMPI DUP1 PUSH4 0xBC7B35B2 EQ PUSH2 0x1AA JUMPI DUP1 PUSH4 0xD925DBBE EQ PUSH2 0x1D5 JUMPI PUSH2 0x86 JUMP JUMPDEST DUP1 PUSH4 0x141A8DD8 EQ PUSH2 0x8B JUMPI DUP1 PUSH4 0x22A2421E EQ PUSH2 0xB6 JUMPI DUP1 PUSH4 0x77F0E6BF EQ PUSH2 0xE1 JUMPI DUP1 PUSH4 0x9090D626 EQ PUSH2 0x10D JUMPI JUMPDEST PUSH1 0x0 DUP1 REVERT JUMPDEST CALLVALUE DUP1 ISZERO PUSH2 0x97 JUMPI PUSH1 0x0 DUP1 REVERT JUMPDEST POP PUSH2 0xA0 PUSH2 0x200 JUMP JUMPDEST PUSH1 0x40 MLOAD PUSH2 0xAD SWAP2 SWAP1 PUSH2 0x770 JUMP JUMPDEST PUSH1 0x40 MLOAD DUP1 SWAP2 SUB SWAP1 RETURN JUMPDEST CALLVALUE DUP1 ISZERO PUSH2 0xC2 JUMPI PUSH1 0x0 DUP1 REVERT JUMPDEST POP PUSH2 0xCB PUSH2 0x218 JUMP JUMPDEST PUSH1 0x40 MLOAD PUSH2 0xD8 SWAP2 SWAP1 PUSH2 0x7FF JUMP JUMPDEST PUSH1 0x40 MLOAD DUP1 SWAP2 SUB SWAP1 RETURN JUMPDEST CALLVALUE DUP1 ISZERO PUSH2 0xED JUMPI PUSH1 0x0 DUP1 REVERT JUMPDEST POP PUSH2 0xF6 PUSH2 0x21E JUMP JUMPDEST PUSH1 0x40 MLOAD PUSH2 0x104 SWAP3 SWAP2 SWAP1 PUSH2 0x7C8 JUMP JUMPDEST PUSH1 0x40 MLOAD DUP1 SWAP2 SUB SWAP1 RETURN JUMPDEST PUSH2 0x127 PUSH1 0x4 DUP1 CALLDATASIZE SUB DUP2 ADD SWAP1 PUSH2 0x122 SWAP2 SWAP1 PUSH2 0x692 JUMP JUMPDEST PUSH2 0x345 JUMP JUMPDEST STOP JUMPDEST CALLVALUE DUP1 ISZERO PUSH2 0x135 JUMPI PUSH1 0x0 DUP1 REVERT JUMPDEST POP PUSH2 0x13E PUSH2 0x3B3 JUMP JUMPDEST PUSH1 0x40 MLOAD PUSH2 0x14B SWAP2 SWAP1 PUSH2 0x7A6 JUMP JUMPDEST PUSH1 0x40 MLOAD DUP1 SWAP2 SUB SWAP1 RETURN JUMPDEST CALLVALUE DUP1 ISZERO PUSH2 0x160 JUMPI PUSH1 0x0 DUP1 REVERT JUMPDEST POP PUSH2 0x169 PUSH2 0x441 JUMP JUMPDEST PUSH1 0x40 MLOAD PUSH2 0x176 SWAP2 SWAP1 PUSH2 0x7FF JUMP JUMPDEST PUSH1 0x40 MLOAD DUP1 SWAP2 SUB SWAP1 RETURN JUMPDEST CALLVALUE DUP1 ISZERO PUSH2 0x18B JUMPI PUSH1 0x0 DUP1 REVERT JUMPDEST POP PUSH2 0x194 PUSH2 0x447 JUMP JUMPDEST PUSH1 0x40 MLOAD PUSH2 0x1A1 SWAP2 SWAP1 PUSH2 0x7FF JUMP JUMPDEST PUSH1 0x40 MLOAD DUP1 SWAP2 SUB SWAP1 RETURN JUMPDEST CALLVALUE DUP1 ISZERO PUSH2 0x1B6 JUMPI PUSH1 0x0 DUP1 REVERT JUMPDEST POP PUSH2 0x1BF PUSH2 0x44D JUMP JUMPDEST PUSH1 0x40 MLOAD PUSH2 0x1CC SWAP2 SWAP1 PUSH2 0x7A6 JUMP JUMPDEST PUSH1 0x40 MLOAD DUP1 SWAP2 SUB SWAP1 RETURN JUMPDEST CALLVALUE DUP1 ISZERO PUSH2 0x1E1 JUMPI PUSH1 0x0 DUP1 REVERT JUMPDEST POP PUSH2 0x1EA PUSH2 0x4DB JUMP JUMPDEST PUSH1 0x40 MLOAD PUSH2 0x1F7 SWAP2 SWAP1 PUSH2 0x78B JUMP JUMPDEST PUSH1 0x40 MLOAD DUP1 SWAP2 SUB SWAP1 RETURN JUMPDEST PUSH20 0xAB8483F64D9C6D1ECF9B849AE677DD3315835CB2 DUP2 JUMP JUMPDEST PUSH1 0x4 SLOAD DUP2 JUMP JUMPDEST PUSH1 0x60 DUP1 PUSH1 0x0 PUSH1 0x1 DUP2 DUP1 SLOAD PUSH2 0x231 SWAP1 PUSH2 0x972 JUMP JUMPDEST DUP1 PUSH1 0x1F ADD PUSH1 0x20 DUP1 SWAP2 DIV MUL PUSH1 0x20 ADD PUSH1 0x40 MLOAD SWAP1 DUP2 ADD PUSH1 0x40 MSTORE DUP1 SWAP3 SWAP2 SWAP1 DUP2 DUP2 MSTORE PUSH1 0x20 ADD DUP3 DUP1 SLOAD PUSH2 0x25D SWAP1 PUSH2 0x972 JUMP JUMPDEST DUP1 ISZERO PUSH2 0x2AA JUMPI DUP1 PUSH1 0x1F LT PUSH2 0x27F JUMPI PUSH2 0x100 DUP1 DUP4 SLOAD DIV MUL DUP4 MSTORE SWAP2 PUSH1 0x20 ADD SWAP2 PUSH2 0x2AA JUMP JUMPDEST DUP3 ADD SWAP2 SWAP1 PUSH1 0x0 MSTORE PUSH1 0x20 PUSH1 0x0 KECCAK256 SWAP1 JUMPDEST DUP2 SLOAD DUP2 MSTORE SWAP1 PUSH1 0x1 ADD SWAP1 PUSH1 0x20 ADD DUP1 DUP4 GT PUSH2 0x28D JUMPI DUP3 SWAP1 SUB PUSH1 0x1F AND DUP3 ADD SWAP2 JUMPDEST POP POP POP POP POP SWAP2 POP DUP1 DUP1 SLOAD PUSH2 0x2BD SWAP1 PUSH2 0x972 JUMP JUMPDEST DUP1 PUSH1 0x1F ADD PUSH1 0x20 DUP1 SWAP2 DIV MUL PUSH1 0x20 ADD PUSH1 0x40 MLOAD SWAP1 DUP2 ADD PUSH1 0x40 MSTORE DUP1 SWAP3 SWAP2 SWAP1 DUP2 DUP2 MSTORE PUSH1 0x20 ADD DUP3 DUP1 SLOAD PUSH2 0x2E9 SWAP1 PUSH2 0x972 JUMP JUMPDEST DUP1 ISZERO PUSH2 0x336 JUMPI DUP1 PUSH1 0x1F LT PUSH2 0x30B JUMPI PUSH2 0x100 DUP1 DUP4 SLOAD DIV MUL DUP4 MSTORE SWAP2 PUSH1 0x20 ADD SWAP2 PUSH2 0x336 JUMP JUMPDEST DUP3 ADD SWAP2 SWAP1 PUSH1 0x0 MSTORE PUSH1 0x20 PUSH1 0x0 KECCAK256 SWAP1 JUMPDEST DUP2 SLOAD DUP2 MSTORE SWAP1 PUSH1 0x1 ADD SWAP1 PUSH1 0x20 ADD DUP1 DUP4 GT PUSH2 0x319 JUMPI DUP3 SWAP1 SUB PUSH1 0x1F AND DUP3 ADD SWAP2 JUMPDEST POP POP POP POP POP SWAP1 POP SWAP2 POP SWAP2 POP SWAP1 SWAP2 JUMP JUMPDEST DUP2 PUSH1 0x0 SWAP1 DUP1 MLOAD SWAP1 PUSH1 0x20 ADD SWAP1 PUSH2 0x35B SWAP3 SWAP2 SWAP1 PUSH2 0x57F JUMP JUMPDEST POP DUP1 PUSH1 0x1 SWAP1 DUP1 MLOAD SWAP1 PUSH1 0x20 ADD SWAP1 PUSH2 0x372 SWAP3 SWAP2 SWAP1 PUSH2 0x57F JUMP JUMPDEST POP PUSH8 0xDE0B6B3A7640000 CALLVALUE GT PUSH2 0x387 JUMPI PUSH1 0x0 DUP1 REVERT JUMPDEST CALLVALUE PUSH1 0x3 SLOAD PUSH2 0x395 SWAP2 SWAP1 PUSH2 0x88C JUMP JUMPDEST PUSH1 0x3 DUP2 SWAP1 SSTORE POP PUSH1 0x2 SLOAD PUSH1 0x3 SLOAD LT PUSH2 0x3AF JUMPI PUSH2 0x3AE PUSH2 0x501 JUMP JUMPDEST JUMPDEST POP POP JUMP JUMPDEST PUSH1 0x1 DUP1 SLOAD PUSH2 0x3C0 SWAP1 PUSH2 0x972 JUMP JUMPDEST DUP1 PUSH1 0x1F ADD PUSH1 0x20 DUP1 SWAP2 DIV MUL PUSH1 0x20 ADD PUSH1 0x40 MLOAD SWAP1 DUP2 ADD PUSH1 0x40 MSTORE DUP1 SWAP3 SWAP2 SWAP1 DUP2 DUP2 MSTORE PUSH1 0x20 ADD DUP3 DUP1 SLOAD PUSH2 0x3EC SWAP1 PUSH2 0x972 JUMP JUMPDEST DUP1 ISZERO PUSH2 0x439 JUMPI DUP1 PUSH1 0x1F LT PUSH2 0x40E JUMPI PUSH2 0x100 DUP1 DUP4 SLOAD DIV MUL DUP4 MSTORE SWAP2 PUSH1 0x20 ADD SWAP2 PUSH2 0x439 JUMP JUMPDEST DUP3 ADD SWAP2 SWAP1 PUSH1 0x0 MSTORE PUSH1 0x20 PUSH1 0x0 KECCAK256 SWAP1 JUMPDEST DUP2 SLOAD DUP2 MSTORE SWAP1 PUSH1 0x1 ADD SWAP1 PUSH1 0x20 ADD DUP1 DUP4 GT PUSH2 0x41C JUMPI DUP3 SWAP1 SUB PUSH1 0x1F AND DUP3 ADD SWAP2 JUMPDEST POP POP POP POP POP DUP2 JUMP JUMPDEST PUSH1 0x2 SLOAD DUP2 JUMP JUMPDEST PUSH1 0x3 SLOAD DUP2 JUMP JUMPDEST PUSH1 0x0 DUP1 SLOAD PUSH2 0x45A SWAP1 PUSH2 0x972 JUMP JUMPDEST DUP1 PUSH1 0x1F ADD PUSH1 0x20 DUP1 SWAP2 DIV MUL PUSH1 0x20 ADD PUSH1 0x40 MLOAD SWAP1 DUP2 ADD PUSH1 0x40 MSTORE DUP1 SWAP3 SWAP2 SWAP1 DUP2 DUP2 MSTORE PUSH1 0x20 ADD DUP3 DUP1 SLOAD PUSH2 0x486 SWAP1 PUSH2 0x972 JUMP JUMPDEST DUP1 ISZERO PUSH2 0x4D3 JUMPI DUP1 PUSH1 0x1F LT PUSH2 0x4A8 JUMPI PUSH2 0x100 DUP1 DUP4 SLOAD DIV MUL DUP4 MSTORE SWAP2 PUSH1 0x20 ADD SWAP2 PUSH2 0x4D3 JUMP JUMPDEST DUP3 ADD SWAP2 SWAP1 PUSH1 0x0 MSTORE PUSH1 0x20 PUSH1 0x0 KECCAK256 SWAP1 JUMPDEST DUP2 SLOAD DUP2 MSTORE SWAP1 PUSH1 0x1 ADD SWAP1 PUSH1 0x20 ADD DUP1 DUP4 GT PUSH2 0x4B6 JUMPI DUP3 SWAP1 SUB PUSH1 0x1F AND DUP3 ADD SWAP2 JUMPDEST POP POP POP POP POP DUP2 JUMP JUMPDEST PUSH1 0x5 PUSH1 0x0 SWAP1 SLOAD SWAP1 PUSH2 0x100 EXP SWAP1 DIV PUSH20 0xFFFFFFFFFFFFFFFFFFFFFFFFFFFFFFFFFFFFFFFF AND DUP2 JUMP JUMPDEST PUSH1 0x3 SLOAD PUSH1 0x4 DUP2 SWAP1 SSTORE POP PUSH1 0x0 PUSH1 0x3 DUP2 SWAP1 SSTORE POP PUSH1 0x5 PUSH1 0x0 SWAP1 SLOAD SWAP1 PUSH2 0x100 EXP SWAP1 DIV PUSH20 0xFFFFFFFFFFFFFFFFFFFFFFFFFFFFFFFFFFFFFFFF AND PUSH20 0xFFFFFFFFFFFFFFFFFFFFFFFFFFFFFFFFFFFFFFFF AND PUSH2 0x8FC PUSH1 0x4 SLOAD SWAP1 DUP2 ISZERO MUL SWAP1 PUSH1 0x40 MLOAD PUSH1 0x0 PUSH1 0x40 MLOAD DUP1 DUP4 SUB DUP2 DUP6 DUP9 DUP9 CALL SWAP4 POP POP POP POP ISZERO DUP1 ISZERO PUSH2 0x57C JUMPI RETURNDATASIZE PUSH1 0x0 DUP1 RETURNDATACOPY RETURNDATASIZE PUSH1 0x0 REVERT JUMPDEST POP JUMP JUMPDEST DUP3 DUP1 SLOAD PUSH2 0x58B SWAP1 PUSH2 0x972 JUMP JUMPDEST SWAP1 PUSH1 0x0 MSTORE PUSH1 0x20 PUSH1 0x0 KECCAK256 SWAP1 PUSH1 0x1F ADD PUSH1 0x20 SWAP1 DIV DUP2 ADD SWAP3 DUP3 PUSH2 0x5AD JUMPI PUSH1 0x0 DUP6 SSTORE PUSH2 0x5F4 JUMP JUMPDEST DUP3 PUSH1 0x1F LT PUSH2 0x5C6 JUMPI DUP1 MLOAD PUSH1 0xFF NOT AND DUP4 DUP1 ADD OR DUP6 SSTORE PUSH2 0x5F4 JUMP JUMPDEST DUP3 DUP1 ADD PUSH1 0x1 ADD DUP6 SSTORE DUP3 ISZERO PUSH2 0x5F4 JUMPI SWAP2 DUP3 ADD JUMPDEST DUP3 DUP2 GT ISZERO PUSH2 0x5F3 JUMPI DUP3 MLOAD DUP3 SSTORE SWAP2 PUSH1 0x20 ADD SWAP2 SWAP1 PUSH1 0x1 ADD SWAP1 PUSH2 0x5D8 JUMP JUMPDEST JUMPDEST POP SWAP1 POP PUSH2 0x601 SWAP2 SWAP1 PUSH2 0x605 JUMP JUMPDEST POP SWAP1 JUMP JUMPDEST JUMPDEST DUP1 DUP3 GT ISZERO PUSH2 0x61E JUMPI PUSH1 0x0 DUP2 PUSH1 0x0 SWAP1 SSTORE POP PUSH1 0x1 ADD PUSH2 0x606 JUMP JUMPDEST POP SWAP1 JUMP JUMPDEST PUSH1 0x0 PUSH2 0x635 PUSH2 0x630 DUP5 PUSH2 0x83F JUMP JUMPDEST PUSH2 0x81A JUMP JUMPDEST SWAP1 POP DUP3 DUP2 MSTORE PUSH1 0x20 DUP2 ADD DUP5 DUP5 DUP5 ADD GT ISZERO PUSH2 0x651 JUMPI PUSH2 0x650 PUSH2 0xA67 JUMP JUMPDEST JUMPDEST PUSH2 0x65C DUP5 DUP3 DUP6 PUSH2 0x930 JUMP JUMPDEST POP SWAP4 SWAP3 POP POP POP JUMP JUMPDEST PUSH1 0x0 DUP3 PUSH1 0x1F DUP4 ADD SLT PUSH2 0x679 JUMPI PUSH2 0x678 PUSH2 0xA62 JUMP JUMPDEST JUMPDEST DUP2 CALLDATALOAD PUSH2 0x689 DUP5 DUP3 PUSH1 0x20 DUP7 ADD PUSH2 0x622 JUMP JUMPDEST SWAP2 POP POP SWAP3 SWAP2 POP POP JUMP JUMPDEST PUSH1 0x0 DUP1 PUSH1 0x40 DUP4 DUP6 SUB SLT ISZERO PUSH2 0x6A9 JUMPI PUSH2 0x6A8 PUSH2 0xA71 JUMP JUMPDEST JUMPDEST PUSH1 0x0 DUP4 ADD CALLDATALOAD PUSH8 0xFFFFFFFFFFFFFFFF DUP2 GT ISZERO PUSH2 0x6C7 JUMPI PUSH2 0x6C6 PUSH2 0xA6C JUMP JUMPDEST JUMPDEST PUSH2 0x6D3 DUP6 DUP3 DUP7 ADD PUSH2 0x664 JUMP JUMPDEST SWAP3 POP POP PUSH1 0x20 DUP4 ADD CALLDATALOAD PUSH8 0xFFFFFFFFFFFFFFFF DUP2 GT ISZERO PUSH2 0x6F4 JUMPI PUSH2 0x6F3 PUSH2 0xA6C JUMP JUMPDEST JUMPDEST PUSH2 0x700 DUP6 DUP3 DUP7 ADD PUSH2 0x664 JUMP JUMPDEST SWAP2 POP POP SWAP3 POP SWAP3 SWAP1 POP JUMP JUMPDEST PUSH2 0x713 DUP2 PUSH2 0x8F4 JUMP JUMPDEST DUP3 MSTORE POP POP JUMP JUMPDEST PUSH2 0x722 DUP2 PUSH2 0x8E2 JUMP JUMPDEST DUP3 MSTORE POP POP JUMP JUMPDEST PUSH1 0x0 PUSH2 0x733 DUP3 PUSH2 0x870 JUMP JUMPDEST PUSH2 0x73D DUP2 DUP6 PUSH2 0x87B JUMP JUMPDEST SWAP4 POP PUSH2 0x74D DUP2 DUP6 PUSH1 0x20 DUP7 ADD PUSH2 0x93F JUMP JUMPDEST PUSH2 0x756 DUP2 PUSH2 0xA76 JUMP JUMPDEST DUP5 ADD SWAP2 POP POP SWAP3 SWAP2 POP POP JUMP JUMPDEST PUSH2 0x76A DUP2 PUSH2 0x926 JUMP JUMPDEST DUP3 MSTORE POP POP JUMP JUMPDEST PUSH1 0x0 PUSH1 0x20 DUP3 ADD SWAP1 POP PUSH2 0x785 PUSH1 0x0 DUP4 ADD DUP5 PUSH2 0x719 JUMP JUMPDEST SWAP3 SWAP2 POP POP JUMP JUMPDEST PUSH1 0x0 PUSH1 0x20 DUP3 ADD SWAP1 POP PUSH2 0x7A0 PUSH1 0x0 DUP4 ADD DUP5 PUSH2 0x70A JUMP JUMPDEST SWAP3 SWAP2 POP POP JUMP JUMPDEST PUSH1 0x0 PUSH1 0x20 DUP3 ADD SWAP1 POP DUP2 DUP2 SUB PUSH1 0x0 DUP4 ADD MSTORE PUSH2 0x7C0 DUP2 DUP5 PUSH2 0x728 JUMP JUMPDEST SWAP1 POP SWAP3 SWAP2 POP POP JUMP JUMPDEST PUSH1 0x0 PUSH1 0x40 DUP3 ADD SWAP1 POP DUP2 DUP2 SUB PUSH1 0x0 DUP4 ADD MSTORE PUSH2 0x7E2 DUP2 DUP6 PUSH2 0x728 JUMP JUMPDEST SWAP1 POP DUP2 DUP2 SUB PUSH1 0x20 DUP4 ADD MSTORE PUSH2 0x7F6 DUP2 DUP5 PUSH2 0x728 JUMP JUMPDEST SWAP1 POP SWAP4 SWAP3 POP POP POP JUMP JUMPDEST PUSH1 0x0 PUSH1 0x20 DUP3 ADD SWAP1 POP PUSH2 0x814 PUSH1 0x0 DUP4 ADD DUP5 PUSH2 0x761 JUMP JUMPDEST SWAP3 SWAP2 POP POP JUMP JUMPDEST PUSH1 0x0 PUSH2 0x824 PUSH2 0x835 JUMP JUMPDEST SWAP1 POP PUSH2 0x830 DUP3 DUP3 PUSH2 0x9A4 JUMP JUMPDEST SWAP2 SWAP1 POP JUMP JUMPDEST PUSH1 0x0 PUSH1 0x40 MLOAD SWAP1 POP SWAP1 JUMP JUMPDEST PUSH1 0x0 PUSH8 0xFFFFFFFFFFFFFFFF DUP3 GT ISZERO PUSH2 0x85A JUMPI PUSH2 0x859 PUSH2 0xA33 JUMP JUMPDEST JUMPDEST PUSH2 0x863 DUP3 PUSH2 0xA76 JUMP JUMPDEST SWAP1 POP PUSH1 0x20 DUP2 ADD SWAP1 POP SWAP2 SWAP1 POP JUMP JUMPDEST PUSH1 0x0 DUP2 MLOAD SWAP1 POP SWAP2 SWAP1 POP JUMP JUMPDEST PUSH1 0x0 DUP3 DUP3 MSTORE PUSH1 0x20 DUP3 ADD SWAP1 POP SWAP3 SWAP2 POP POP JUMP JUMPDEST PUSH1 0x0 PUSH2 0x897 DUP3 PUSH2 0x926 JUMP JUMPDEST SWAP2 POP PUSH2 0x8A2 DUP4 PUSH2 0x926 JUMP JUMPDEST SWAP3 POP DUP3 PUSH32 0xFFFFFFFFFFFFFFFFFFFFFFFFFFFFFFFFFFFFFFFFFFFFFFFFFFFFFFFFFFFFFFFF SUB DUP3 GT ISZERO PUSH2 0x8D7 JUMPI PUSH2 0x8D6 PUSH2 0x9D5 JUMP JUMPDEST JUMPDEST DUP3 DUP3 ADD SWAP1 POP SWAP3 SWAP2 POP POP JUMP JUMPDEST PUSH1 0x0 PUSH2 0x8ED DUP3 PUSH2 0x906 JUMP JUMPDEST SWAP1 POP SWAP2 SWAP1 POP JUMP JUMPDEST PUSH1 0x0 PUSH2 0x8FF DUP3 PUSH2 0x906 JUMP JUMPDEST SWAP1 POP SWAP2 SWAP1 POP JUMP JUMPDEST PUSH1 0x0 PUSH20 0xFFFFFFFFFFFFFFFFFFFFFFFFFFFFFFFFFFFFFFFF DUP3 AND SWAP1 POP SWAP2 SWAP1 POP JUMP JUMPDEST PUSH1 0x0 DUP2 SWAP1 POP SWAP2 SWAP1 POP JUMP JUMPDEST DUP3 DUP2 DUP4 CALLDATACOPY PUSH1 0x0 DUP4 DUP4 ADD MSTORE POP POP POP JUMP JUMPDEST PUSH1 0x0 JUMPDEST DUP4 DUP2 LT ISZERO PUSH2 0x95D JUMPI DUP1 DUP3 ADD MLOAD DUP2 DUP5 ADD MSTORE PUSH1 0x20 DUP2 ADD SWAP1 POP PUSH2 0x942 JUMP JUMPDEST DUP4 DUP2 GT ISZERO PUSH2 0x96C JUMPI PUSH1 0x0 DUP5 DUP5 ADD MSTORE JUMPDEST POP POP POP POP JUMP JUMPDEST PUSH1 0x0 PUSH1 0x2 DUP3 DIV SWAP1 POP PUSH1 0x1 DUP3 AND DUP1 PUSH2 0x98A JUMPI PUSH1 0x7F DUP3 AND SWAP2 POP JUMPDEST PUSH1 0x20 DUP3 LT DUP2 EQ ISZERO PUSH2 0x99E JUMPI PUSH2 0x99D PUSH2 0xA04 JUMP JUMPDEST JUMPDEST POP SWAP2 SWAP1 POP JUMP JUMPDEST PUSH2 0x9AD DUP3 PUSH2 0xA76 JUMP JUMPDEST DUP2 ADD DUP2 DUP2 LT PUSH8 0xFFFFFFFFFFFFFFFF DUP3 GT OR ISZERO PUSH2 0x9CC JUMPI PUSH2 0x9CB PUSH2 0xA33 JUMP JUMPDEST JUMPDEST DUP1 PUSH1 0x40 MSTORE POP POP POP JUMP JUMPDEST PUSH32 0x4E487B7100000000000000000000000000000000000000000000000000000000 PUSH1 0x0 MSTORE PUSH1 0x11 PUSH1 0x4 MSTORE PUSH1 0x24 PUSH1 0x0 REVERT JUMPDEST PUSH32 0x4E487B7100000000000000000000000000000000000000000000000000000000 PUSH1 0x0 MSTORE PUSH1 0x22 PUSH1 0x4 MSTORE PUSH1 0x24 PUSH1 0x0 REVERT JUMPDEST PUSH32 0x4E487B7100000000000000000000000000000000000000000000000000000000 PUSH1 0x0 MSTORE PUSH1 0x41 PUSH1 0x4 MSTORE PUSH1 0x24 PUSH1 0x0 REVERT JUMPDEST PUSH1 0x0 DUP1 REVERT JUMPDEST PUSH1 0x0 DUP1 REVERT JUMPDEST PUSH1 0x0 DUP1 REVERT JUMPDEST PUSH1 0x0 DUP1 REVERT JUMPDEST PUSH1 0x0 PUSH1 0x1F NOT PUSH1 0x1F DUP4 ADD AND SWAP1 POP SWAP2 SWAP1 POP JUMP INVALID LOG2 PUSH5 0x6970667358 0x22 SLT KECCAK256 PUSH7 0x4F06309D80C5D0 MSTORE8 0xFC 0xF6 0xB2 0xEC PUSH6 0xF81F23E2B490 DIFFICULTY CALLDATACOPY PUSH23 0xAB99822210EDFB730E64736F6C63430008070033000000 "
				},
				"gasEstimates": {
					"creation": {
						"codeDepositCost": "549800",
						"executionCost": "22687",
						"totalCost": "572487"
					},
					"external": {
						"apellido()": "infinite",
						"approver()": "379",
						"artista()": "2602",
						"balance()": "2473",
						"getMecenas()": "infinite",
						"nombre()": "infinite",
						"objetivo()": "2451",
						"setMecenas(string,string)": "infinite",
						"totalRecaudado()": "2452"
					},
					"internal": {
						"payOut()": "infinite"
					}
				},
				"methodIdentifiers": {
					"apellido()": "972a8576",
					"approver()": "141a8dd8",
					"artista()": "d925dbbe",
					"balance()": "b69ef8a8",
					"getMecenas()": "77f0e6bf",
					"nombre()": "bc7b35b2",
					"objetivo()": "a8dc86f7",
					"setMecenas(string,string)": "9090d626",
					"totalRecaudado()": "22a2421e"
				}
			},
			"storageLayout": {
				"storage": [
					{
						"astId": 3,
						"contract": "contracts/5_Crowdfunding.sol:Crowdfunding",
						"label": "nombre",
						"offset": 0,
						"slot": "0",
						"type": "t_string_storage"
					},
					{
						"astId": 5,
						"contract": "contracts/5_Crowdfunding.sol:Crowdfunding",
						"label": "apellido",
						"offset": 0,
						"slot": "1",
						"type": "t_string_storage"
					},
					{
						"astId": 8,
						"contract": "contracts/5_Crowdfunding.sol:Crowdfunding",
						"label": "objetivo",
						"offset": 0,
						"slot": "2",
						"type": "t_uint256"
					},
					{
						"astId": 10,
						"contract": "contracts/5_Crowdfunding.sol:Crowdfunding",
						"label": "balance",
						"offset": 0,
						"slot": "3",
						"type": "t_uint256"
					},
					{
						"astId": 12,
						"contract": "contracts/5_Crowdfunding.sol:Crowdfunding",
						"label": "totalRecaudado",
						"offset": 0,
						"slot": "4",
						"type": "t_uint256"
					},
					{
						"astId": 14,
						"contract": "contracts/5_Crowdfunding.sol:Crowdfunding",
						"label": "artista",
						"offset": 0,
						"slot": "5",
						"type": "t_address_payable"
					}
				],
				"types": {
					"t_address_payable": {
						"encoding": "inplace",
						"label": "address payable",
						"numberOfBytes": "20"
					},
					"t_string_storage": {
						"encoding": "bytes",
						"label": "string",
						"numberOfBytes": "32"
					},
					"t_uint256": {
						"encoding": "inplace",
						"label": "uint256",
						"numberOfBytes": "32"
					}
				}
			},
			"userdoc": {
				"kind": "user",
				"methods": {},
				"version": 1
			}
		}
	}
}