{
	"contracts/5_Crowdfunding.sol": {
		"Crowdfunding": {
			"abi": [
				{
					"inputs": [],
					"name": "apellido",
					"outputs": [
						{
							"internalType": "string",
							"name": "",
							"type": "string"
						}
					],
					"stateMutability": "view",
					"type": "function"
				},
				{
					"inputs": [],
					"name": "artista",
					"outputs": [
						{
							"internalType": "address payable",
							"name": "",
							"type": "address"
						}
					],
					"stateMutability": "view",
					"type": "function"
				},
				{
					"inputs": [],
					"name": "balance",
					"outputs": [
						{
							"internalType": "uint256",
							"name": "",
							"type": "uint256"
						}
					],
					"stateMutability": "view",
					"type": "function"
				},
				{
					"inputs": [],
					"name": "getMecenas",
					"outputs": [
						{
							"internalType": "string",
							"name": "",
							"type": "string"
						},
						{
							"internalType": "string",
							"name": "",
							"type": "string"
						}
					],
					"stateMutability": "view",
					"type": "function"
				},
				{
					"inputs": [],
					"name": "nombre",
					"outputs": [
						{
							"internalType": "string",
							"name": "",
							"type": "string"
						}
					],
					"stateMutability": "view",
					"type": "function"
				},
				{
					"inputs": [],
					"name": "objetivo",
					"outputs": [
						{
							"internalType": "uint256",
							"name": "",
							"type": "uint256"
						}
					],
					"stateMutability": "view",
					"type": "function"
				},
				{
					"inputs": [
						{
							"internalType": "string",
							"name": "nombre_mecenas",
							"type": "string"
						},
						{
							"internalType": "string",
							"name": "apellido_mecenas",
							"type": "string"
						}
					],
					"name": "setMecenas",
					"outputs": [],
					"stateMutability": "payable",
					"type": "function"
				},
				{
					"inputs": [],
					"name": "totalRecaudado",
					"outputs": [
						{
							"internalType": "uint256",
							"name": "",
							"type": "uint256"
						}
					],
					"stateMutability": "view",
					"type": "function"
				}
			],
			"devdoc": {
				"kind": "dev",
				"methods": {},
				"version": 1
			},
			"evm": {
				"assembly": "    /* \"contracts/5_Crowdfunding.sol\":74:1006  contract Crowdfunding {\r... */\n  mstore(0x40, 0x80)\n    /* \"contracts/5_Crowdfunding.sol\":216:224  10 ether */\n  0x8ac7230489e80000\n    /* \"contracts/5_Crowdfunding.sol\":193:224  uint public objetivo = 10 ether */\n  0x03\n  sstore\n    /* \"contracts/5_Crowdfunding.sol\":333:375  0xAb8483F64d9C6d1EcF9b849Ae677dD3315835cb2 */\n  0xab8483f64d9c6d1ecf9b849ae677dd3315835cb2\n    /* \"contracts/5_Crowdfunding.sol\":292:376  address payable public artista = payable(0xAb8483F64d9C6d1EcF9b849Ae677dD3315835cb2) */\n  0x06\n  exp(0x0100, 0x00)\n  dup2\n  sload\n  dup2\n  0xffffffffffffffffffffffffffffffffffffffff\n  mul\n  not\n  and\n  swap1\n  dup4\n  0xffffffffffffffffffffffffffffffffffffffff\n  and\n  mul\n  or\n  swap1\n  sstore\n  pop\n    /* \"contracts/5_Crowdfunding.sol\":74:1006  contract Crowdfunding {\r... */\n  callvalue\n  dup1\n  iszero\n  tag_1\n  jumpi\n  0x00\n  dup1\n  revert\ntag_1:\n  pop\n  dataSize(sub_0)\n  dup1\n  dataOffset(sub_0)\n  0x00\n  codecopy\n  0x00\n  return\nstop\n\nsub_0: assembly {\n        /* \"contracts/5_Crowdfunding.sol\":74:1006  contract Crowdfunding {\r... */\n      mstore(0x40, 0x80)\n      jumpi(tag_1, lt(calldatasize, 0x04))\n      shr(0xe0, calldataload(0x00))\n      dup1\n      0xa8dc86f7\n      gt\n      tag_10\n      jumpi\n      dup1\n      0xa8dc86f7\n      eq\n      tag_6\n      jumpi\n      dup1\n      0xb69ef8a8\n      eq\n      tag_7\n      jumpi\n      dup1\n      0xbc7b35b2\n      eq\n      tag_8\n      jumpi\n      dup1\n      0xd925dbbe\n      eq\n      tag_9\n      jumpi\n      jump(tag_1)\n    tag_10:\n      dup1\n      0x22a2421e\n      eq\n      tag_2\n      jumpi\n      dup1\n      0x77f0e6bf\n      eq\n      tag_3\n      jumpi\n      dup1\n      0x9090d626\n      eq\n      tag_4\n      jumpi\n      dup1\n      0x972a8576\n      eq\n      tag_5\n      jumpi\n    tag_1:\n      0x00\n      dup1\n      revert\n        /* \"contracts/5_Crowdfunding.sol\":257:283  uint public totalRecaudado */\n    tag_2:\n      callvalue\n      dup1\n      iszero\n      tag_11\n      jumpi\n      0x00\n      dup1\n      revert\n    tag_11:\n      pop\n      tag_12\n      tag_13\n      jump\t// in\n    tag_12:\n      mload(0x40)\n      tag_14\n      swap2\n      swap1\n      tag_15\n      jump\t// in\n    tag_14:\n      mload(0x40)\n      dup1\n      swap2\n      sub\n      swap1\n      return\n        /* \"contracts/5_Crowdfunding.sol\":748:861  function getMecenas() public view returns(string memory,string memory){\r... */\n    tag_3:\n      callvalue\n      dup1\n      iszero\n      tag_16\n      jumpi\n      0x00\n      dup1\n      revert\n    tag_16:\n      pop\n      tag_17\n      tag_18\n      jump\t// in\n    tag_17:\n      mload(0x40)\n      tag_19\n      swap3\n      swap2\n      swap1\n      tag_20\n      jump\t// in\n    tag_19:\n      mload(0x40)\n      dup1\n      swap2\n      sub\n      swap1\n      return\n        /* \"contracts/5_Crowdfunding.sol\":385:740  function setMecenas(\r... */\n    tag_4:\n      tag_21\n      0x04\n      dup1\n      calldatasize\n      sub\n      dup2\n      add\n      swap1\n      tag_22\n      swap2\n      swap1\n      tag_23\n      jump\t// in\n    tag_22:\n      tag_24\n      jump\t// in\n    tag_21:\n      stop\n        /* \"contracts/5_Crowdfunding.sol\":162:184  string public apellido */\n    tag_5:\n      callvalue\n      dup1\n      iszero\n      tag_25\n      jumpi\n      0x00\n      dup1\n      revert\n    tag_25:\n      pop\n      tag_26\n      tag_27\n      jump\t// in\n    tag_26:\n      mload(0x40)\n      tag_28\n      swap2\n      swap1\n      tag_29\n      jump\t// in\n    tag_28:\n      mload(0x40)\n      dup1\n      swap2\n      sub\n      swap1\n      return\n        /* \"contracts/5_Crowdfunding.sol\":193:224  uint public objetivo = 10 ether */\n    tag_6:\n      callvalue\n      dup1\n      iszero\n      tag_30\n      jumpi\n      0x00\n      dup1\n      revert\n    tag_30:\n      pop\n      tag_31\n      tag_32\n      jump\t// in\n    tag_31:\n      mload(0x40)\n      tag_33\n      swap2\n      swap1\n      tag_15\n      jump\t// in\n    tag_33:\n      mload(0x40)\n      dup1\n      swap2\n      sub\n      swap1\n      return\n        /* \"contracts/5_Crowdfunding.sol\":231:250  uint public balance */\n    tag_7:\n      callvalue\n      dup1\n      iszero\n      tag_34\n      jumpi\n      0x00\n      dup1\n      revert\n    tag_34:\n      pop\n      tag_35\n      tag_36\n      jump\t// in\n    tag_35:\n      mload(0x40)\n      tag_37\n      swap2\n      swap1\n      tag_15\n      jump\t// in\n    tag_37:\n      mload(0x40)\n      dup1\n      swap2\n      sub\n      swap1\n      return\n        /* \"contracts/5_Crowdfunding.sol\":135:155  string public nombre */\n    tag_8:\n      callvalue\n      dup1\n      iszero\n      tag_38\n      jumpi\n      0x00\n      dup1\n      revert\n    tag_38:\n      pop\n      tag_39\n      tag_40\n      jump\t// in\n    tag_39:\n      mload(0x40)\n      tag_41\n      swap2\n      swap1\n      tag_29\n      jump\t// in\n    tag_41:\n      mload(0x40)\n      dup1\n      swap2\n      sub\n      swap1\n      return\n        /* \"contracts/5_Crowdfunding.sol\":292:376  address payable public artista = payable(0xAb8483F64d9C6d1EcF9b849Ae677dD3315835cb2) */\n    tag_9:\n      callvalue\n      dup1\n      iszero\n      tag_42\n      jumpi\n      0x00\n      dup1\n      revert\n    tag_42:\n      pop\n      tag_43\n      tag_44\n      jump\t// in\n    tag_43:\n      mload(0x40)\n      tag_45\n      swap2\n      swap1\n      tag_46\n      jump\t// in\n    tag_45:\n      mload(0x40)\n      dup1\n      swap2\n      sub\n      swap1\n      return\n        /* \"contracts/5_Crowdfunding.sol\":257:283  uint public totalRecaudado */\n    tag_13:\n      sload(0x05)\n      dup2\n      jump\t// out\n        /* \"contracts/5_Crowdfunding.sol\":748:861  function getMecenas() public view returns(string memory,string memory){\r... */\n    tag_18:\n        /* \"contracts/5_Crowdfunding.sol\":790:803  string memory */\n      0x60\n        /* \"contracts/5_Crowdfunding.sol\":804:817  string memory */\n      dup1\n        /* \"contracts/5_Crowdfunding.sol\":837:843  nombre */\n      0x01\n        /* \"contracts/5_Crowdfunding.sol\":844:852  apellido */\n      0x02\n        /* \"contracts/5_Crowdfunding.sol\":829:853  return (nombre,apellido) */\n      dup2\n      dup1\n      sload\n      tag_48\n      swap1\n      tag_49\n      jump\t// in\n    tag_48:\n      dup1\n      0x1f\n      add\n      0x20\n      dup1\n      swap2\n      div\n      mul\n      0x20\n      add\n      mload(0x40)\n      swap1\n      dup2\n      add\n      0x40\n      mstore\n      dup1\n      swap3\n      swap2\n      swap1\n      dup2\n      dup2\n      mstore\n      0x20\n      add\n      dup3\n      dup1\n      sload\n      tag_50\n      swap1\n      tag_49\n      jump\t// in\n    tag_50:\n      dup1\n      iszero\n      tag_51\n      jumpi\n      dup1\n      0x1f\n      lt\n      tag_52\n      jumpi\n      0x0100\n      dup1\n      dup4\n      sload\n      div\n      mul\n      dup4\n      mstore\n      swap2\n      0x20\n      add\n      swap2\n      jump(tag_51)\n    tag_52:\n      dup3\n      add\n      swap2\n      swap1\n      0x00\n      mstore\n      keccak256(0x00, 0x20)\n      swap1\n    tag_53:\n      dup2\n      sload\n      dup2\n      mstore\n      swap1\n      0x01\n      add\n      swap1\n      0x20\n      add\n      dup1\n      dup4\n      gt\n      tag_53\n      jumpi\n      dup3\n      swap1\n      sub\n      0x1f\n      and\n      dup3\n      add\n      swap2\n    tag_51:\n      pop\n      pop\n      pop\n      pop\n      pop\n      swap2\n      pop\n      dup1\n      dup1\n      sload\n      tag_54\n      swap1\n      tag_49\n      jump\t// in\n    tag_54:\n      dup1\n      0x1f\n      add\n      0x20\n      dup1\n      swap2\n      div\n      mul\n      0x20\n      add\n      mload(0x40)\n      swap1\n      dup2\n      add\n      0x40\n      mstore\n      dup1\n      swap3\n      swap2\n      swap1\n      dup2\n      dup2\n      mstore\n      0x20\n      add\n      dup3\n      dup1\n      sload\n      tag_55\n      swap1\n      tag_49\n      jump\t// in\n    tag_55:\n      dup1\n      iszero\n      tag_56\n      jumpi\n      dup1\n      0x1f\n      lt\n      tag_57\n      jumpi\n      0x0100\n      dup1\n      dup4\n      sload\n      div\n      mul\n      dup4\n      mstore\n      swap2\n      0x20\n      add\n      swap2\n      jump(tag_56)\n    tag_57:\n      dup3\n      add\n      swap2\n      swap1\n      0x00\n      mstore\n      keccak256(0x00, 0x20)\n      swap1\n    tag_58:\n      dup2\n      sload\n      dup2\n      mstore\n      swap1\n      0x01\n      add\n      swap1\n      0x20\n      add\n      dup1\n      dup4\n      gt\n      tag_58\n      jumpi\n      dup3\n      swap1\n      sub\n      0x1f\n      and\n      dup3\n      add\n      swap2\n    tag_56:\n      pop\n      pop\n      pop\n      pop\n      pop\n      swap1\n      pop\n      swap2\n      pop\n      swap2\n      pop\n        /* \"contracts/5_Crowdfunding.sol\":748:861  function getMecenas() public view returns(string memory,string memory){\r... */\n      swap1\n      swap2\n      jump\t// out\n        /* \"contracts/5_Crowdfunding.sol\":385:740  function setMecenas(\r... */\n    tag_24:\n        /* \"contracts/5_Crowdfunding.sol\":527:541  nombre_mecenas */\n      dup2\n        /* \"contracts/5_Crowdfunding.sol\":518:524  nombre */\n      0x01\n        /* \"contracts/5_Crowdfunding.sol\":518:541  nombre = nombre_mecenas */\n      swap1\n      dup1\n      mload\n      swap1\n      0x20\n      add\n      swap1\n      tag_60\n      swap3\n      swap2\n      swap1\n      tag_61\n      jump\t// in\n    tag_60:\n      pop\n        /* \"contracts/5_Crowdfunding.sol\":563:579  apellido_mecenas */\n      dup1\n        /* \"contracts/5_Crowdfunding.sol\":552:560  apellido */\n      0x02\n        /* \"contracts/5_Crowdfunding.sol\":552:579  apellido = apellido_mecenas */\n      swap1\n      dup1\n      mload\n      swap1\n      0x20\n      add\n      swap1\n      tag_62\n      swap3\n      swap2\n      swap1\n      tag_61\n      jump\t// in\n    tag_62:\n      pop\n        /* \"contracts/5_Crowdfunding.sol\":612:619  1 ether */\n      0x0de0b6b3a7640000\n        /* \"contracts/5_Crowdfunding.sol\":600:609  msg.value */\n      callvalue\n        /* \"contracts/5_Crowdfunding.sol\":600:619  msg.value > 1 ether */\n      gt\n        /* \"contracts/5_Crowdfunding.sol\":592:620  require(msg.value > 1 ether) */\n      tag_63\n      jumpi\n      0x00\n      dup1\n      revert\n    tag_63:\n        /* \"contracts/5_Crowdfunding.sol\":653:662  msg.value */\n      callvalue\n        /* \"contracts/5_Crowdfunding.sol\":643:650  balance */\n      sload(0x04)\n        /* \"contracts/5_Crowdfunding.sol\":643:662  balance + msg.value */\n      tag_64\n      swap2\n      swap1\n      tag_65\n      jump\t// in\n    tag_64:\n        /* \"contracts/5_Crowdfunding.sol\":633:640  balance */\n      0x04\n        /* \"contracts/5_Crowdfunding.sol\":633:662  balance = balance + msg.value */\n      dup2\n      swap1\n      sstore\n      pop\n        /* \"contracts/5_Crowdfunding.sol\":689:697  objetivo */\n      sload(0x03)\n        /* \"contracts/5_Crowdfunding.sol\":678:685  balance */\n      sload(0x04)\n        /* \"contracts/5_Crowdfunding.sol\":678:697  balance >= objetivo */\n      lt\n        /* \"contracts/5_Crowdfunding.sol\":675:733  if(balance >= objetivo){\r... */\n      tag_66\n      jumpi\n        /* \"contracts/5_Crowdfunding.sol\":713:721  payOut() */\n      tag_67\n        /* \"contracts/5_Crowdfunding.sol\":713:719  payOut */\n      tag_68\n        /* \"contracts/5_Crowdfunding.sol\":713:721  payOut() */\n      jump\t// in\n    tag_67:\n        /* \"contracts/5_Crowdfunding.sol\":675:733  if(balance >= objetivo){\r... */\n    tag_66:\n        /* \"contracts/5_Crowdfunding.sol\":385:740  function setMecenas(\r... */\n      pop\n      pop\n      jump\t// out\n        /* \"contracts/5_Crowdfunding.sol\":162:184  string public apellido */\n    tag_27:\n      0x02\n      dup1\n      sload\n      tag_69\n      swap1\n      tag_49\n      jump\t// in\n    tag_69:\n      dup1\n      0x1f\n      add\n      0x20\n      dup1\n      swap2\n      div\n      mul\n      0x20\n      add\n      mload(0x40)\n      swap1\n      dup2\n      add\n      0x40\n      mstore\n      dup1\n      swap3\n      swap2\n      swap1\n      dup2\n      dup2\n      mstore\n      0x20\n      add\n      dup3\n      dup1\n      sload\n      tag_70\n      swap1\n      tag_49\n      jump\t// in\n    tag_70:\n      dup1\n      iszero\n      tag_71\n      jumpi\n      dup1\n      0x1f\n      lt\n      tag_72\n      jumpi\n      0x0100\n      dup1\n      dup4\n      sload\n      div\n      mul\n      dup4\n      mstore\n      swap2\n      0x20\n      add\n      swap2\n      jump(tag_71)\n    tag_72:\n      dup3\n      add\n      swap2\n      swap1\n      0x00\n      mstore\n      keccak256(0x00, 0x20)\n      swap1\n    tag_73:\n      dup2\n      sload\n      dup2\n      mstore\n      swap1\n      0x01\n      add\n      swap1\n      0x20\n      add\n      dup1\n      dup4\n      gt\n      tag_73\n      jumpi\n      dup3\n      swap1\n      sub\n      0x1f\n      and\n      dup3\n      add\n      swap2\n    tag_71:\n      pop\n      pop\n      pop\n      pop\n      pop\n      dup2\n      jump\t// out\n        /* \"contracts/5_Crowdfunding.sol\":193:224  uint public objetivo = 10 ether */\n    tag_32:\n      sload(0x03)\n      dup2\n      jump\t// out\n        /* \"contracts/5_Crowdfunding.sol\":231:250  uint public balance */\n    tag_36:\n      sload(0x04)\n      dup2\n      jump\t// out\n        /* \"contracts/5_Crowdfunding.sol\":135:155  string public nombre */\n    tag_40:\n      0x01\n      dup1\n      sload\n      tag_74\n      swap1\n      tag_49\n      jump\t// in\n    tag_74:\n      dup1\n      0x1f\n      add\n      0x20\n      dup1\n      swap2\n      div\n      mul\n      0x20\n      add\n      mload(0x40)\n      swap1\n      dup2\n      add\n      0x40\n      mstore\n      dup1\n      swap3\n      swap2\n      swap1\n      dup2\n      dup2\n      mstore\n      0x20\n      add\n      dup3\n      dup1\n      sload\n      tag_75\n      swap1\n      tag_49\n      jump\t// in\n    tag_75:\n      dup1\n      iszero\n      tag_76\n      jumpi\n      dup1\n      0x1f\n      lt\n      tag_77\n      jumpi\n      0x0100\n      dup1\n      dup4\n      sload\n      div\n      mul\n      dup4\n      mstore\n      swap2\n      0x20\n      add\n      swap2\n      jump(tag_76)\n    tag_77:\n      dup3\n      add\n      swap2\n      swap1\n      0x00\n      mstore\n      keccak256(0x00, 0x20)\n      swap1\n    tag_78:\n      dup2\n      sload\n      dup2\n      mstore\n      swap1\n      0x01\n      add\n      swap1\n      0x20\n      add\n      dup1\n      dup4\n      gt\n      tag_78\n      jumpi\n      dup3\n      swap1\n      sub\n      0x1f\n      and\n      dup3\n      add\n      swap2\n    tag_76:\n      pop\n      pop\n      pop\n      pop\n      pop\n      dup2\n      jump\t// out\n        /* \"contracts/5_Crowdfunding.sol\":292:376  address payable public artista = payable(0xAb8483F64d9C6d1EcF9b849Ae677dD3315835cb2) */\n    tag_44:\n      0x06\n      0x00\n      swap1\n      sload\n      swap1\n      0x0100\n      exp\n      swap1\n      div\n      0xffffffffffffffffffffffffffffffffffffffff\n      and\n      dup2\n      jump\t// out\n        /* \"contracts/5_Crowdfunding.sol\":869:1003  function payOut() private {\r... */\n    tag_68:\n        /* \"contracts/5_Crowdfunding.sol\":923:930  balance */\n      sload(0x04)\n        /* \"contracts/5_Crowdfunding.sol\":906:920  totalRecaudado */\n      0x05\n        /* \"contracts/5_Crowdfunding.sol\":906:930  totalRecaudado = balance */\n      dup2\n      swap1\n      sstore\n      pop\n        /* \"contracts/5_Crowdfunding.sol\":951:952  0 */\n      0x00\n        /* \"contracts/5_Crowdfunding.sol\":941:948  balance */\n      0x04\n        /* \"contracts/5_Crowdfunding.sol\":941:952  balance = 0 */\n      dup2\n      swap1\n      sstore\n      pop\n        /* \"contracts/5_Crowdfunding.sol\":963:970  artista */\n      0x06\n      0x00\n      swap1\n      sload\n      swap1\n      0x0100\n      exp\n      swap1\n      div\n      0xffffffffffffffffffffffffffffffffffffffff\n      and\n        /* \"contracts/5_Crowdfunding.sol\":963:979  artista.transfer */\n      0xffffffffffffffffffffffffffffffffffffffff\n      and\n        /* \"contracts/5_Crowdfunding.sol\":963:995  artista.transfer(totalRecaudado) */\n      0x08fc\n        /* \"contracts/5_Crowdfunding.sol\":980:994  totalRecaudado */\n      sload(0x05)\n        /* \"contracts/5_Crowdfunding.sol\":963:995  artista.transfer(totalRecaudado) */\n      swap1\n      dup2\n      iszero\n      mul\n      swap1\n      mload(0x40)\n      0x00\n      mload(0x40)\n      dup1\n      dup4\n      sub\n      dup2\n      dup6\n      dup9\n      dup9\n      call\n      swap4\n      pop\n      pop\n      pop\n      pop\n      iszero\n      dup1\n      iszero\n      tag_81\n      jumpi\n      returndatasize\n      0x00\n      dup1\n      returndatacopy\n      revert(0x00, returndatasize)\n    tag_81:\n      pop\n        /* \"contracts/5_Crowdfunding.sol\":869:1003  function payOut() private {\r... */\n      jump\t// out\n    tag_61:\n      dup3\n      dup1\n      sload\n      tag_82\n      swap1\n      tag_49\n      jump\t// in\n    tag_82:\n      swap1\n      0x00\n      mstore\n      keccak256(0x00, 0x20)\n      swap1\n      0x1f\n      add\n      0x20\n      swap1\n      div\n      dup2\n      add\n      swap3\n      dup3\n      tag_84\n      jumpi\n      0x00\n      dup6\n      sstore\n      jump(tag_83)\n    tag_84:\n      dup3\n      0x1f\n      lt\n      tag_85\n      jumpi\n      dup1\n      mload\n      not(0xff)\n      and\n      dup4\n      dup1\n      add\n      or\n      dup6\n      sstore\n      jump(tag_83)\n    tag_85:\n      dup3\n      dup1\n      add\n      0x01\n      add\n      dup6\n      sstore\n      dup3\n      iszero\n      tag_83\n      jumpi\n      swap2\n      dup3\n      add\n    tag_86:\n      dup3\n      dup2\n      gt\n      iszero\n      tag_87\n      jumpi\n      dup3\n      mload\n      dup3\n      sstore\n      swap2\n      0x20\n      add\n      swap2\n      swap1\n      0x01\n      add\n      swap1\n      jump(tag_86)\n    tag_87:\n    tag_83:\n      pop\n      swap1\n      pop\n      tag_88\n      swap2\n      swap1\n      tag_89\n      jump\t// in\n    tag_88:\n      pop\n      swap1\n      jump\t// out\n    tag_89:\n    tag_90:\n      dup1\n      dup3\n      gt\n      iszero\n      tag_91\n      jumpi\n      0x00\n      dup2\n      0x00\n      swap1\n      sstore\n      pop\n      0x01\n      add\n      jump(tag_90)\n    tag_91:\n      pop\n      swap1\n      jump\t// out\n        /* \"#utility.yul\":7:419   */\n    tag_93:\n        /* \"#utility.yul\":85:90   */\n      0x00\n        /* \"#utility.yul\":110:176   */\n      tag_95\n        /* \"#utility.yul\":126:175   */\n      tag_96\n        /* \"#utility.yul\":168:174   */\n      dup5\n        /* \"#utility.yul\":126:175   */\n      tag_97\n      jump\t// in\n    tag_96:\n        /* \"#utility.yul\":110:176   */\n      tag_98\n      jump\t// in\n    tag_95:\n        /* \"#utility.yul\":101:176   */\n      swap1\n      pop\n        /* \"#utility.yul\":199:205   */\n      dup3\n        /* \"#utility.yul\":192:197   */\n      dup2\n        /* \"#utility.yul\":185:206   */\n      mstore\n        /* \"#utility.yul\":237:241   */\n      0x20\n        /* \"#utility.yul\":230:235   */\n      dup2\n        /* \"#utility.yul\":226:242   */\n      add\n        /* \"#utility.yul\":275:278   */\n      dup5\n        /* \"#utility.yul\":266:272   */\n      dup5\n        /* \"#utility.yul\":261:264   */\n      dup5\n        /* \"#utility.yul\":257:273   */\n      add\n        /* \"#utility.yul\":254:279   */\n      gt\n        /* \"#utility.yul\":251:363   */\n      iszero\n      tag_99\n      jumpi\n        /* \"#utility.yul\":282:361   */\n      tag_100\n      tag_101\n      jump\t// in\n    tag_100:\n        /* \"#utility.yul\":251:363   */\n    tag_99:\n        /* \"#utility.yul\":372:413   */\n      tag_102\n        /* \"#utility.yul\":406:412   */\n      dup5\n        /* \"#utility.yul\":401:404   */\n      dup3\n        /* \"#utility.yul\":396:399   */\n      dup6\n        /* \"#utility.yul\":372:413   */\n      tag_103\n      jump\t// in\n    tag_102:\n        /* \"#utility.yul\":91:419   */\n      pop\n        /* \"#utility.yul\":7:419   */\n      swap4\n      swap3\n      pop\n      pop\n      pop\n      jump\t// out\n        /* \"#utility.yul\":439:779   */\n    tag_104:\n        /* \"#utility.yul\":495:500   */\n      0x00\n        /* \"#utility.yul\":544:547   */\n      dup3\n        /* \"#utility.yul\":537:541   */\n      0x1f\n        /* \"#utility.yul\":529:535   */\n      dup4\n        /* \"#utility.yul\":525:542   */\n      add\n        /* \"#utility.yul\":521:548   */\n      slt\n        /* \"#utility.yul\":511:633   */\n      tag_106\n      jumpi\n        /* \"#utility.yul\":552:631   */\n      tag_107\n      tag_108\n      jump\t// in\n    tag_107:\n        /* \"#utility.yul\":511:633   */\n    tag_106:\n        /* \"#utility.yul\":669:675   */\n      dup2\n        /* \"#utility.yul\":656:676   */\n      calldataload\n        /* \"#utility.yul\":694:773   */\n      tag_109\n        /* \"#utility.yul\":769:772   */\n      dup5\n        /* \"#utility.yul\":761:767   */\n      dup3\n        /* \"#utility.yul\":754:758   */\n      0x20\n        /* \"#utility.yul\":746:752   */\n      dup7\n        /* \"#utility.yul\":742:759   */\n      add\n        /* \"#utility.yul\":694:773   */\n      tag_93\n      jump\t// in\n    tag_109:\n        /* \"#utility.yul\":685:773   */\n      swap2\n      pop\n        /* \"#utility.yul\":501:779   */\n      pop\n        /* \"#utility.yul\":439:779   */\n      swap3\n      swap2\n      pop\n      pop\n      jump\t// out\n        /* \"#utility.yul\":785:1619   */\n    tag_23:\n        /* \"#utility.yul\":873:879   */\n      0x00\n        /* \"#utility.yul\":881:887   */\n      dup1\n        /* \"#utility.yul\":930:932   */\n      0x40\n        /* \"#utility.yul\":918:927   */\n      dup4\n        /* \"#utility.yul\":909:916   */\n      dup6\n        /* \"#utility.yul\":905:928   */\n      sub\n        /* \"#utility.yul\":901:933   */\n      slt\n        /* \"#utility.yul\":898:1017   */\n      iszero\n      tag_111\n      jumpi\n        /* \"#utility.yul\":936:1015   */\n      tag_112\n      tag_113\n      jump\t// in\n    tag_112:\n        /* \"#utility.yul\":898:1017   */\n    tag_111:\n        /* \"#utility.yul\":1084:1085   */\n      0x00\n        /* \"#utility.yul\":1073:1082   */\n      dup4\n        /* \"#utility.yul\":1069:1086   */\n      add\n        /* \"#utility.yul\":1056:1087   */\n      calldataload\n        /* \"#utility.yul\":1114:1132   */\n      0xffffffffffffffff\n        /* \"#utility.yul\":1106:1112   */\n      dup2\n        /* \"#utility.yul\":1103:1133   */\n      gt\n        /* \"#utility.yul\":1100:1217   */\n      iszero\n      tag_114\n      jumpi\n        /* \"#utility.yul\":1136:1215   */\n      tag_115\n      tag_116\n      jump\t// in\n    tag_115:\n        /* \"#utility.yul\":1100:1217   */\n    tag_114:\n        /* \"#utility.yul\":1241:1304   */\n      tag_117\n        /* \"#utility.yul\":1296:1303   */\n      dup6\n        /* \"#utility.yul\":1287:1293   */\n      dup3\n        /* \"#utility.yul\":1276:1285   */\n      dup7\n        /* \"#utility.yul\":1272:1294   */\n      add\n        /* \"#utility.yul\":1241:1304   */\n      tag_104\n      jump\t// in\n    tag_117:\n        /* \"#utility.yul\":1231:1304   */\n      swap3\n      pop\n        /* \"#utility.yul\":1027:1314   */\n      pop\n        /* \"#utility.yul\":1381:1383   */\n      0x20\n        /* \"#utility.yul\":1370:1379   */\n      dup4\n        /* \"#utility.yul\":1366:1384   */\n      add\n        /* \"#utility.yul\":1353:1385   */\n      calldataload\n        /* \"#utility.yul\":1412:1430   */\n      0xffffffffffffffff\n        /* \"#utility.yul\":1404:1410   */\n      dup2\n        /* \"#utility.yul\":1401:1431   */\n      gt\n        /* \"#utility.yul\":1398:1515   */\n      iszero\n      tag_118\n      jumpi\n        /* \"#utility.yul\":1434:1513   */\n      tag_119\n      tag_116\n      jump\t// in\n    tag_119:\n        /* \"#utility.yul\":1398:1515   */\n    tag_118:\n        /* \"#utility.yul\":1539:1602   */\n      tag_120\n        /* \"#utility.yul\":1594:1601   */\n      dup6\n        /* \"#utility.yul\":1585:1591   */\n      dup3\n        /* \"#utility.yul\":1574:1583   */\n      dup7\n        /* \"#utility.yul\":1570:1592   */\n      add\n        /* \"#utility.yul\":1539:1602   */\n      tag_104\n      jump\t// in\n    tag_120:\n        /* \"#utility.yul\":1529:1602   */\n      swap2\n      pop\n        /* \"#utility.yul\":1324:1612   */\n      pop\n        /* \"#utility.yul\":785:1619   */\n      swap3\n      pop\n      swap3\n      swap1\n      pop\n      jump\t// out\n        /* \"#utility.yul\":1625:1767   */\n    tag_121:\n        /* \"#utility.yul\":1728:1760   */\n      tag_123\n        /* \"#utility.yul\":1754:1759   */\n      dup2\n        /* \"#utility.yul\":1728:1760   */\n      tag_124\n      jump\t// in\n    tag_123:\n        /* \"#utility.yul\":1723:1726   */\n      dup3\n        /* \"#utility.yul\":1716:1761   */\n      mstore\n        /* \"#utility.yul\":1625:1767   */\n      pop\n      pop\n      jump\t// out\n        /* \"#utility.yul\":1773:2137   */\n    tag_125:\n        /* \"#utility.yul\":1861:1864   */\n      0x00\n        /* \"#utility.yul\":1889:1928   */\n      tag_127\n        /* \"#utility.yul\":1922:1927   */\n      dup3\n        /* \"#utility.yul\":1889:1928   */\n      tag_128\n      jump\t// in\n    tag_127:\n        /* \"#utility.yul\":1944:2015   */\n      tag_129\n        /* \"#utility.yul\":2008:2014   */\n      dup2\n        /* \"#utility.yul\":2003:2006   */\n      dup6\n        /* \"#utility.yul\":1944:2015   */\n      tag_130\n      jump\t// in\n    tag_129:\n        /* \"#utility.yul\":1937:2015   */\n      swap4\n      pop\n        /* \"#utility.yul\":2024:2076   */\n      tag_131\n        /* \"#utility.yul\":2069:2075   */\n      dup2\n        /* \"#utility.yul\":2064:2067   */\n      dup6\n        /* \"#utility.yul\":2057:2061   */\n      0x20\n        /* \"#utility.yul\":2050:2055   */\n      dup7\n        /* \"#utility.yul\":2046:2062   */\n      add\n        /* \"#utility.yul\":2024:2076   */\n      tag_132\n      jump\t// in\n    tag_131:\n        /* \"#utility.yul\":2101:2130   */\n      tag_133\n        /* \"#utility.yul\":2123:2129   */\n      dup2\n        /* \"#utility.yul\":2101:2130   */\n      tag_134\n      jump\t// in\n    tag_133:\n        /* \"#utility.yul\":2096:2099   */\n      dup5\n        /* \"#utility.yul\":2092:2131   */\n      add\n        /* \"#utility.yul\":2085:2131   */\n      swap2\n      pop\n        /* \"#utility.yul\":1865:2137   */\n      pop\n        /* \"#utility.yul\":1773:2137   */\n      swap3\n      swap2\n      pop\n      pop\n      jump\t// out\n        /* \"#utility.yul\":2143:2261   */\n    tag_135:\n        /* \"#utility.yul\":2230:2254   */\n      tag_137\n        /* \"#utility.yul\":2248:2253   */\n      dup2\n        /* \"#utility.yul\":2230:2254   */\n      tag_138\n      jump\t// in\n    tag_137:\n        /* \"#utility.yul\":2225:2228   */\n      dup3\n        /* \"#utility.yul\":2218:2255   */\n      mstore\n        /* \"#utility.yul\":2143:2261   */\n      pop\n      pop\n      jump\t// out\n        /* \"#utility.yul\":2267:2521   */\n    tag_46:\n        /* \"#utility.yul\":2376:2380   */\n      0x00\n        /* \"#utility.yul\":2414:2416   */\n      0x20\n        /* \"#utility.yul\":2403:2412   */\n      dup3\n        /* \"#utility.yul\":2399:2417   */\n      add\n        /* \"#utility.yul\":2391:2417   */\n      swap1\n      pop\n        /* \"#utility.yul\":2427:2514   */\n      tag_140\n        /* \"#utility.yul\":2511:2512   */\n      0x00\n        /* \"#utility.yul\":2500:2509   */\n      dup4\n        /* \"#utility.yul\":2496:2513   */\n      add\n        /* \"#utility.yul\":2487:2493   */\n      dup5\n        /* \"#utility.yul\":2427:2514   */\n      tag_121\n      jump\t// in\n    tag_140:\n        /* \"#utility.yul\":2267:2521   */\n      swap3\n      swap2\n      pop\n      pop\n      jump\t// out\n        /* \"#utility.yul\":2527:2840   */\n    tag_29:\n        /* \"#utility.yul\":2640:2644   */\n      0x00\n        /* \"#utility.yul\":2678:2680   */\n      0x20\n        /* \"#utility.yul\":2667:2676   */\n      dup3\n        /* \"#utility.yul\":2663:2681   */\n      add\n        /* \"#utility.yul\":2655:2681   */\n      swap1\n      pop\n        /* \"#utility.yul\":2727:2736   */\n      dup2\n        /* \"#utility.yul\":2721:2725   */\n      dup2\n        /* \"#utility.yul\":2717:2737   */\n      sub\n        /* \"#utility.yul\":2713:2714   */\n      0x00\n        /* \"#utility.yul\":2702:2711   */\n      dup4\n        /* \"#utility.yul\":2698:2715   */\n      add\n        /* \"#utility.yul\":2691:2738   */\n      mstore\n        /* \"#utility.yul\":2755:2833   */\n      tag_142\n        /* \"#utility.yul\":2828:2832   */\n      dup2\n        /* \"#utility.yul\":2819:2825   */\n      dup5\n        /* \"#utility.yul\":2755:2833   */\n      tag_125\n      jump\t// in\n    tag_142:\n        /* \"#utility.yul\":2747:2833   */\n      swap1\n      pop\n        /* \"#utility.yul\":2527:2840   */\n      swap3\n      swap2\n      pop\n      pop\n      jump\t// out\n        /* \"#utility.yul\":2846:3360   */\n    tag_20:\n        /* \"#utility.yul\":3007:3011   */\n      0x00\n        /* \"#utility.yul\":3045:3047   */\n      0x40\n        /* \"#utility.yul\":3034:3043   */\n      dup3\n        /* \"#utility.yul\":3030:3048   */\n      add\n        /* \"#utility.yul\":3022:3048   */\n      swap1\n      pop\n        /* \"#utility.yul\":3094:3103   */\n      dup2\n        /* \"#utility.yul\":3088:3092   */\n      dup2\n        /* \"#utility.yul\":3084:3104   */\n      sub\n        /* \"#utility.yul\":3080:3081   */\n      0x00\n        /* \"#utility.yul\":3069:3078   */\n      dup4\n        /* \"#utility.yul\":3065:3082   */\n      add\n        /* \"#utility.yul\":3058:3105   */\n      mstore\n        /* \"#utility.yul\":3122:3200   */\n      tag_144\n        /* \"#utility.yul\":3195:3199   */\n      dup2\n        /* \"#utility.yul\":3186:3192   */\n      dup6\n        /* \"#utility.yul\":3122:3200   */\n      tag_125\n      jump\t// in\n    tag_144:\n        /* \"#utility.yul\":3114:3200   */\n      swap1\n      pop\n        /* \"#utility.yul\":3247:3256   */\n      dup2\n        /* \"#utility.yul\":3241:3245   */\n      dup2\n        /* \"#utility.yul\":3237:3257   */\n      sub\n        /* \"#utility.yul\":3232:3234   */\n      0x20\n        /* \"#utility.yul\":3221:3230   */\n      dup4\n        /* \"#utility.yul\":3217:3235   */\n      add\n        /* \"#utility.yul\":3210:3258   */\n      mstore\n        /* \"#utility.yul\":3275:3353   */\n      tag_145\n        /* \"#utility.yul\":3348:3352   */\n      dup2\n        /* \"#utility.yul\":3339:3345   */\n      dup5\n        /* \"#utility.yul\":3275:3353   */\n      tag_125\n      jump\t// in\n    tag_145:\n        /* \"#utility.yul\":3267:3353   */\n      swap1\n      pop\n        /* \"#utility.yul\":2846:3360   */\n      swap4\n      swap3\n      pop\n      pop\n      pop\n      jump\t// out\n        /* \"#utility.yul\":3366:3588   */\n    tag_15:\n        /* \"#utility.yul\":3459:3463   */\n      0x00\n        /* \"#utility.yul\":3497:3499   */\n      0x20\n        /* \"#utility.yul\":3486:3495   */\n      dup3\n        /* \"#utility.yul\":3482:3500   */\n      add\n        /* \"#utility.yul\":3474:3500   */\n      swap1\n      pop\n        /* \"#utility.yul\":3510:3581   */\n      tag_147\n        /* \"#utility.yul\":3578:3579   */\n      0x00\n        /* \"#utility.yul\":3567:3576   */\n      dup4\n        /* \"#utility.yul\":3563:3580   */\n      add\n        /* \"#utility.yul\":3554:3560   */\n      dup5\n        /* \"#utility.yul\":3510:3581   */\n      tag_135\n      jump\t// in\n    tag_147:\n        /* \"#utility.yul\":3366:3588   */\n      swap3\n      swap2\n      pop\n      pop\n      jump\t// out\n        /* \"#utility.yul\":3594:3723   */\n    tag_98:\n        /* \"#utility.yul\":3628:3634   */\n      0x00\n        /* \"#utility.yul\":3655:3675   */\n      tag_149\n      tag_150\n      jump\t// in\n    tag_149:\n        /* \"#utility.yul\":3645:3675   */\n      swap1\n      pop\n        /* \"#utility.yul\":3684:3717   */\n      tag_151\n        /* \"#utility.yul\":3712:3716   */\n      dup3\n        /* \"#utility.yul\":3704:3710   */\n      dup3\n        /* \"#utility.yul\":3684:3717   */\n      tag_152\n      jump\t// in\n    tag_151:\n        /* \"#utility.yul\":3594:3723   */\n      swap2\n      swap1\n      pop\n      jump\t// out\n        /* \"#utility.yul\":3729:3804   */\n    tag_150:\n        /* \"#utility.yul\":3762:3768   */\n      0x00\n        /* \"#utility.yul\":3795:3797   */\n      0x40\n        /* \"#utility.yul\":3789:3798   */\n      mload\n        /* \"#utility.yul\":3779:3798   */\n      swap1\n      pop\n        /* \"#utility.yul\":3729:3804   */\n      swap1\n      jump\t// out\n        /* \"#utility.yul\":3810:4118   */\n    tag_97:\n        /* \"#utility.yul\":3872:3876   */\n      0x00\n        /* \"#utility.yul\":3962:3980   */\n      0xffffffffffffffff\n        /* \"#utility.yul\":3954:3960   */\n      dup3\n        /* \"#utility.yul\":3951:3981   */\n      gt\n        /* \"#utility.yul\":3948:4004   */\n      iszero\n      tag_155\n      jumpi\n        /* \"#utility.yul\":3984:4002   */\n      tag_156\n      tag_157\n      jump\t// in\n    tag_156:\n        /* \"#utility.yul\":3948:4004   */\n    tag_155:\n        /* \"#utility.yul\":4022:4051   */\n      tag_158\n        /* \"#utility.yul\":4044:4050   */\n      dup3\n        /* \"#utility.yul\":4022:4051   */\n      tag_134\n      jump\t// in\n    tag_158:\n        /* \"#utility.yul\":4014:4051   */\n      swap1\n      pop\n        /* \"#utility.yul\":4106:4110   */\n      0x20\n        /* \"#utility.yul\":4100:4104   */\n      dup2\n        /* \"#utility.yul\":4096:4111   */\n      add\n        /* \"#utility.yul\":4088:4111   */\n      swap1\n      pop\n        /* \"#utility.yul\":3810:4118   */\n      swap2\n      swap1\n      pop\n      jump\t// out\n        /* \"#utility.yul\":4124:4223   */\n    tag_128:\n        /* \"#utility.yul\":4176:4182   */\n      0x00\n        /* \"#utility.yul\":4210:4215   */\n      dup2\n        /* \"#utility.yul\":4204:4216   */\n      mload\n        /* \"#utility.yul\":4194:4216   */\n      swap1\n      pop\n        /* \"#utility.yul\":4124:4223   */\n      swap2\n      swap1\n      pop\n      jump\t// out\n        /* \"#utility.yul\":4229:4398   */\n    tag_130:\n        /* \"#utility.yul\":4313:4324   */\n      0x00\n        /* \"#utility.yul\":4347:4353   */\n      dup3\n        /* \"#utility.yul\":4342:4345   */\n      dup3\n        /* \"#utility.yul\":4335:4354   */\n      mstore\n        /* \"#utility.yul\":4387:4391   */\n      0x20\n        /* \"#utility.yul\":4382:4385   */\n      dup3\n        /* \"#utility.yul\":4378:4392   */\n      add\n        /* \"#utility.yul\":4363:4392   */\n      swap1\n      pop\n        /* \"#utility.yul\":4229:4398   */\n      swap3\n      swap2\n      pop\n      pop\n      jump\t// out\n        /* \"#utility.yul\":4404:4709   */\n    tag_65:\n        /* \"#utility.yul\":4444:4447   */\n      0x00\n        /* \"#utility.yul\":4463:4483   */\n      tag_162\n        /* \"#utility.yul\":4481:4482   */\n      dup3\n        /* \"#utility.yul\":4463:4483   */\n      tag_138\n      jump\t// in\n    tag_162:\n        /* \"#utility.yul\":4458:4483   */\n      swap2\n      pop\n        /* \"#utility.yul\":4497:4517   */\n      tag_163\n        /* \"#utility.yul\":4515:4516   */\n      dup4\n        /* \"#utility.yul\":4497:4517   */\n      tag_138\n      jump\t// in\n    tag_163:\n        /* \"#utility.yul\":4492:4517   */\n      swap3\n      pop\n        /* \"#utility.yul\":4651:4652   */\n      dup3\n        /* \"#utility.yul\":4583:4649   */\n      0xffffffffffffffffffffffffffffffffffffffffffffffffffffffffffffffff\n        /* \"#utility.yul\":4579:4653   */\n      sub\n        /* \"#utility.yul\":4576:4577   */\n      dup3\n        /* \"#utility.yul\":4573:4654   */\n      gt\n        /* \"#utility.yul\":4570:4677   */\n      iszero\n      tag_164\n      jumpi\n        /* \"#utility.yul\":4657:4675   */\n      tag_165\n      tag_166\n      jump\t// in\n    tag_165:\n        /* \"#utility.yul\":4570:4677   */\n    tag_164:\n        /* \"#utility.yul\":4701:4702   */\n      dup3\n        /* \"#utility.yul\":4698:4699   */\n      dup3\n        /* \"#utility.yul\":4694:4703   */\n      add\n        /* \"#utility.yul\":4687:4703   */\n      swap1\n      pop\n        /* \"#utility.yul\":4404:4709   */\n      swap3\n      swap2\n      pop\n      pop\n      jump\t// out\n        /* \"#utility.yul\":4715:4819   */\n    tag_124:\n        /* \"#utility.yul\":4760:4767   */\n      0x00\n        /* \"#utility.yul\":4789:4813   */\n      tag_168\n        /* \"#utility.yul\":4807:4812   */\n      dup3\n        /* \"#utility.yul\":4789:4813   */\n      tag_169\n      jump\t// in\n    tag_168:\n        /* \"#utility.yul\":4778:4813   */\n      swap1\n      pop\n        /* \"#utility.yul\":4715:4819   */\n      swap2\n      swap1\n      pop\n      jump\t// out\n        /* \"#utility.yul\":4825:4951   */\n    tag_169:\n        /* \"#utility.yul\":4862:4869   */\n      0x00\n        /* \"#utility.yul\":4902:4944   */\n      0xffffffffffffffffffffffffffffffffffffffff\n        /* \"#utility.yul\":4895:4900   */\n      dup3\n        /* \"#utility.yul\":4891:4945   */\n      and\n        /* \"#utility.yul\":4880:4945   */\n      swap1\n      pop\n        /* \"#utility.yul\":4825:4951   */\n      swap2\n      swap1\n      pop\n      jump\t// out\n        /* \"#utility.yul\":4957:5034   */\n    tag_138:\n        /* \"#utility.yul\":4994:5001   */\n      0x00\n        /* \"#utility.yul\":5023:5028   */\n      dup2\n        /* \"#utility.yul\":5012:5028   */\n      swap1\n      pop\n        /* \"#utility.yul\":4957:5034   */\n      swap2\n      swap1\n      pop\n      jump\t// out\n        /* \"#utility.yul\":5040:5194   */\n    tag_103:\n        /* \"#utility.yul\":5124:5130   */\n      dup3\n        /* \"#utility.yul\":5119:5122   */\n      dup2\n        /* \"#utility.yul\":5114:5117   */\n      dup4\n        /* \"#utility.yul\":5101:5131   */\n      calldatacopy\n        /* \"#utility.yul\":5186:5187   */\n      0x00\n        /* \"#utility.yul\":5177:5183   */\n      dup4\n        /* \"#utility.yul\":5172:5175   */\n      dup4\n        /* \"#utility.yul\":5168:5184   */\n      add\n        /* \"#utility.yul\":5161:5188   */\n      mstore\n        /* \"#utility.yul\":5040:5194   */\n      pop\n      pop\n      pop\n      jump\t// out\n        /* \"#utility.yul\":5200:5507   */\n    tag_132:\n        /* \"#utility.yul\":5268:5269   */\n      0x00\n        /* \"#utility.yul\":5278:5391   */\n    tag_174:\n        /* \"#utility.yul\":5292:5298   */\n      dup4\n        /* \"#utility.yul\":5289:5290   */\n      dup2\n        /* \"#utility.yul\":5286:5299   */\n      lt\n        /* \"#utility.yul\":5278:5391   */\n      iszero\n      tag_176\n      jumpi\n        /* \"#utility.yul\":5377:5378   */\n      dup1\n        /* \"#utility.yul\":5372:5375   */\n      dup3\n        /* \"#utility.yul\":5368:5379   */\n      add\n        /* \"#utility.yul\":5362:5380   */\n      mload\n        /* \"#utility.yul\":5358:5359   */\n      dup2\n        /* \"#utility.yul\":5353:5356   */\n      dup5\n        /* \"#utility.yul\":5349:5360   */\n      add\n        /* \"#utility.yul\":5342:5381   */\n      mstore\n        /* \"#utility.yul\":5314:5316   */\n      0x20\n        /* \"#utility.yul\":5311:5312   */\n      dup2\n        /* \"#utility.yul\":5307:5317   */\n      add\n        /* \"#utility.yul\":5302:5317   */\n      swap1\n      pop\n        /* \"#utility.yul\":5278:5391   */\n      jump(tag_174)\n    tag_176:\n        /* \"#utility.yul\":5409:5415   */\n      dup4\n        /* \"#utility.yul\":5406:5407   */\n      dup2\n        /* \"#utility.yul\":5403:5416   */\n      gt\n        /* \"#utility.yul\":5400:5501   */\n      iszero\n      tag_177\n      jumpi\n        /* \"#utility.yul\":5489:5490   */\n      0x00\n        /* \"#utility.yul\":5480:5486   */\n      dup5\n        /* \"#utility.yul\":5475:5478   */\n      dup5\n        /* \"#utility.yul\":5471:5487   */\n      add\n        /* \"#utility.yul\":5464:5491   */\n      mstore\n        /* \"#utility.yul\":5400:5501   */\n    tag_177:\n        /* \"#utility.yul\":5249:5507   */\n      pop\n        /* \"#utility.yul\":5200:5507   */\n      pop\n      pop\n      pop\n      jump\t// out\n        /* \"#utility.yul\":5513:5833   */\n    tag_49:\n        /* \"#utility.yul\":5557:5563   */\n      0x00\n        /* \"#utility.yul\":5594:5595   */\n      0x02\n        /* \"#utility.yul\":5588:5592   */\n      dup3\n        /* \"#utility.yul\":5584:5596   */\n      div\n        /* \"#utility.yul\":5574:5596   */\n      swap1\n      pop\n        /* \"#utility.yul\":5641:5642   */\n      0x01\n        /* \"#utility.yul\":5635:5639   */\n      dup3\n        /* \"#utility.yul\":5631:5643   */\n      and\n        /* \"#utility.yul\":5662:5680   */\n      dup1\n        /* \"#utility.yul\":5652:5733   */\n      tag_179\n      jumpi\n        /* \"#utility.yul\":5718:5722   */\n      0x7f\n        /* \"#utility.yul\":5710:5716   */\n      dup3\n        /* \"#utility.yul\":5706:5723   */\n      and\n        /* \"#utility.yul\":5696:5723   */\n      swap2\n      pop\n        /* \"#utility.yul\":5652:5733   */\n    tag_179:\n        /* \"#utility.yul\":5780:5782   */\n      0x20\n        /* \"#utility.yul\":5772:5778   */\n      dup3\n        /* \"#utility.yul\":5769:5783   */\n      lt\n        /* \"#utility.yul\":5749:5767   */\n      dup2\n        /* \"#utility.yul\":5746:5784   */\n      eq\n        /* \"#utility.yul\":5743:5827   */\n      iszero\n      tag_180\n      jumpi\n        /* \"#utility.yul\":5799:5817   */\n      tag_181\n      tag_182\n      jump\t// in\n    tag_181:\n        /* \"#utility.yul\":5743:5827   */\n    tag_180:\n        /* \"#utility.yul\":5564:5833   */\n      pop\n        /* \"#utility.yul\":5513:5833   */\n      swap2\n      swap1\n      pop\n      jump\t// out\n        /* \"#utility.yul\":5839:6120   */\n    tag_152:\n        /* \"#utility.yul\":5922:5949   */\n      tag_184\n        /* \"#utility.yul\":5944:5948   */\n      dup3\n        /* \"#utility.yul\":5922:5949   */\n      tag_134\n      jump\t// in\n    tag_184:\n        /* \"#utility.yul\":5914:5920   */\n      dup2\n        /* \"#utility.yul\":5910:5950   */\n      add\n        /* \"#utility.yul\":6052:6058   */\n      dup2\n        /* \"#utility.yul\":6040:6050   */\n      dup2\n        /* \"#utility.yul\":6037:6059   */\n      lt\n        /* \"#utility.yul\":6016:6034   */\n      0xffffffffffffffff\n        /* \"#utility.yul\":6004:6014   */\n      dup3\n        /* \"#utility.yul\":6001:6035   */\n      gt\n        /* \"#utility.yul\":5998:6060   */\n      or\n        /* \"#utility.yul\":5995:6083   */\n      iszero\n      tag_185\n      jumpi\n        /* \"#utility.yul\":6063:6081   */\n      tag_186\n      tag_157\n      jump\t// in\n    tag_186:\n        /* \"#utility.yul\":5995:6083   */\n    tag_185:\n        /* \"#utility.yul\":6103:6113   */\n      dup1\n        /* \"#utility.yul\":6099:6101   */\n      0x40\n        /* \"#utility.yul\":6092:6114   */\n      mstore\n        /* \"#utility.yul\":5882:6120   */\n      pop\n        /* \"#utility.yul\":5839:6120   */\n      pop\n      pop\n      jump\t// out\n        /* \"#utility.yul\":6126:6306   */\n    tag_166:\n        /* \"#utility.yul\":6174:6251   */\n      0x4e487b7100000000000000000000000000000000000000000000000000000000\n        /* \"#utility.yul\":6171:6172   */\n      0x00\n        /* \"#utility.yul\":6164:6252   */\n      mstore\n        /* \"#utility.yul\":6271:6275   */\n      0x11\n        /* \"#utility.yul\":6268:6269   */\n      0x04\n        /* \"#utility.yul\":6261:6276   */\n      mstore\n        /* \"#utility.yul\":6295:6299   */\n      0x24\n        /* \"#utility.yul\":6292:6293   */\n      0x00\n        /* \"#utility.yul\":6285:6300   */\n      revert\n        /* \"#utility.yul\":6312:6492   */\n    tag_182:\n        /* \"#utility.yul\":6360:6437   */\n      0x4e487b7100000000000000000000000000000000000000000000000000000000\n        /* \"#utility.yul\":6357:6358   */\n      0x00\n        /* \"#utility.yul\":6350:6438   */\n      mstore\n        /* \"#utility.yul\":6457:6461   */\n      0x22\n        /* \"#utility.yul\":6454:6455   */\n      0x04\n        /* \"#utility.yul\":6447:6462   */\n      mstore\n        /* \"#utility.yul\":6481:6485   */\n      0x24\n        /* \"#utility.yul\":6478:6479   */\n      0x00\n        /* \"#utility.yul\":6471:6486   */\n      revert\n        /* \"#utility.yul\":6498:6678   */\n    tag_157:\n        /* \"#utility.yul\":6546:6623   */\n      0x4e487b7100000000000000000000000000000000000000000000000000000000\n        /* \"#utility.yul\":6543:6544   */\n      0x00\n        /* \"#utility.yul\":6536:6624   */\n      mstore\n        /* \"#utility.yul\":6643:6647   */\n      0x41\n        /* \"#utility.yul\":6640:6641   */\n      0x04\n        /* \"#utility.yul\":6633:6648   */\n      mstore\n        /* \"#utility.yul\":6667:6671   */\n      0x24\n        /* \"#utility.yul\":6664:6665   */\n      0x00\n        /* \"#utility.yul\":6657:6672   */\n      revert\n        /* \"#utility.yul\":6684:6801   */\n    tag_108:\n        /* \"#utility.yul\":6793:6794   */\n      0x00\n        /* \"#utility.yul\":6790:6791   */\n      dup1\n        /* \"#utility.yul\":6783:6795   */\n      revert\n        /* \"#utility.yul\":6807:6924   */\n    tag_101:\n        /* \"#utility.yul\":6916:6917   */\n      0x00\n        /* \"#utility.yul\":6913:6914   */\n      dup1\n        /* \"#utility.yul\":6906:6918   */\n      revert\n        /* \"#utility.yul\":6930:7047   */\n    tag_116:\n        /* \"#utility.yul\":7039:7040   */\n      0x00\n        /* \"#utility.yul\":7036:7037   */\n      dup1\n        /* \"#utility.yul\":7029:7041   */\n      revert\n        /* \"#utility.yul\":7053:7170   */\n    tag_113:\n        /* \"#utility.yul\":7162:7163   */\n      0x00\n        /* \"#utility.yul\":7159:7160   */\n      dup1\n        /* \"#utility.yul\":7152:7164   */\n      revert\n        /* \"#utility.yul\":7176:7278   */\n    tag_134:\n        /* \"#utility.yul\":7217:7223   */\n      0x00\n        /* \"#utility.yul\":7268:7270   */\n      0x1f\n        /* \"#utility.yul\":7264:7271   */\n      not\n        /* \"#utility.yul\":7259:7261   */\n      0x1f\n        /* \"#utility.yul\":7252:7257   */\n      dup4\n        /* \"#utility.yul\":7248:7262   */\n      add\n        /* \"#utility.yul\":7244:7272   */\n      and\n        /* \"#utility.yul\":7234:7272   */\n      swap1\n      pop\n        /* \"#utility.yul\":7176:7278   */\n      swap2\n      swap1\n      pop\n      jump\t// out\n\n    auxdata: 0xa264697066735822122081b10a3f14525a5082f958e0700ce03cf281cd969c536e05bad90a0baadc14f964736f6c63430008070033\n}\n",
				"bytecode": {
					"linkReferences": {},
					"object": "6080604052678ac7230489e8000060035573ab8483f64d9c6d1ecf9b849ae677dd3315835cb2600660006101000a81548173ffffffffffffffffffffffffffffffffffffffff021916908373ffffffffffffffffffffffffffffffffffffffff16021790555034801561007157600080fd5b50610a33806100816000396000f3fe60806040526004361061007b5760003560e01c8063a8dc86f71161004e578063a8dc86f71461011e578063b69ef8a814610149578063bc7b35b214610174578063d925dbbe1461019f5761007b565b806322a2421e1461008057806377f0e6bf146100ab5780639090d626146100d7578063972a8576146100f3575b600080fd5b34801561008c57600080fd5b506100956101ca565b6040516100a29190610787565b60405180910390f35b3480156100b757600080fd5b506100c06101d0565b6040516100ce929190610750565b60405180910390f35b6100f160048036038101906100ec9190610644565b6102f7565b005b3480156100ff57600080fd5b50610108610365565b604051610115919061072e565b60405180910390f35b34801561012a57600080fd5b506101336103f3565b6040516101409190610787565b60405180910390f35b34801561015557600080fd5b5061015e6103f9565b60405161016b9190610787565b60405180910390f35b34801561018057600080fd5b506101896103ff565b604051610196919061072e565b60405180910390f35b3480156101ab57600080fd5b506101b461048d565b6040516101c19190610713565b60405180910390f35b60055481565b606080600160028180546101e3906108e8565b80601f016020809104026020016040519081016040528092919081815260200182805461020f906108e8565b801561025c5780601f106102315761010080835404028352916020019161025c565b820191906000526020600020905b81548152906001019060200180831161023f57829003601f168201915b5050505050915080805461026f906108e8565b80601f016020809104026020016040519081016040528092919081815260200182805461029b906108e8565b80156102e85780601f106102bd576101008083540402835291602001916102e8565b820191906000526020600020905b8154815290600101906020018083116102cb57829003601f168201915b50505050509050915091509091565b816001908051906020019061030d929190610531565b508060029080519060200190610324929190610531565b50670de0b6b3a7640000341161033957600080fd5b346004546103479190610814565b60048190555060035460045410610361576103606104b3565b5b5050565b60028054610372906108e8565b80601f016020809104026020016040519081016040528092919081815260200182805461039e906108e8565b80156103eb5780601f106103c0576101008083540402835291602001916103eb565b820191906000526020600020905b8154815290600101906020018083116103ce57829003601f168201915b505050505081565b60035481565b60045481565b6001805461040c906108e8565b80601f0160208091040260200160405190810160405280929190818152602001828054610438906108e8565b80156104855780601f1061045a57610100808354040283529160200191610485565b820191906000526020600020905b81548152906001019060200180831161046857829003601f168201915b505050505081565b600660009054906101000a900473ffffffffffffffffffffffffffffffffffffffff1681565b6004546005819055506000600481905550600660009054906101000a900473ffffffffffffffffffffffffffffffffffffffff1673ffffffffffffffffffffffffffffffffffffffff166108fc6005549081150290604051600060405180830381858888f1935050505015801561052e573d6000803e3d6000fd5b50565b82805461053d906108e8565b90600052602060002090601f01602090048101928261055f57600085556105a6565b82601f1061057857805160ff19168380011785556105a6565b828001600101855582156105a6579182015b828111156105a557825182559160200191906001019061058a565b5b5090506105b391906105b7565b5090565b5b808211156105d05760008160009055506001016105b8565b5090565b60006105e76105e2846107c7565b6107a2565b905082815260208101848484011115610603576106026109dd565b5b61060e8482856108a6565b509392505050565b600082601f83011261062b5761062a6109d8565b5b813561063b8482602086016105d4565b91505092915050565b6000806040838503121561065b5761065a6109e7565b5b600083013567ffffffffffffffff811115610679576106786109e2565b5b61068585828601610616565b925050602083013567ffffffffffffffff8111156106a6576106a56109e2565b5b6106b285828601610616565b9150509250929050565b6106c58161086a565b82525050565b60006106d6826107f8565b6106e08185610803565b93506106f08185602086016108b5565b6106f9816109ec565b840191505092915050565b61070d8161089c565b82525050565b600060208201905061072860008301846106bc565b92915050565b6000602082019050818103600083015261074881846106cb565b905092915050565b6000604082019050818103600083015261076a81856106cb565b9050818103602083015261077e81846106cb565b90509392505050565b600060208201905061079c6000830184610704565b92915050565b60006107ac6107bd565b90506107b8828261091a565b919050565b6000604051905090565b600067ffffffffffffffff8211156107e2576107e16109a9565b5b6107eb826109ec565b9050602081019050919050565b600081519050919050565b600082825260208201905092915050565b600061081f8261089c565b915061082a8361089c565b9250827fffffffffffffffffffffffffffffffffffffffffffffffffffffffffffffffff0382111561085f5761085e61094b565b5b828201905092915050565b60006108758261087c565b9050919050565b600073ffffffffffffffffffffffffffffffffffffffff82169050919050565b6000819050919050565b82818337600083830152505050565b60005b838110156108d35780820151818401526020810190506108b8565b838111156108e2576000848401525b50505050565b6000600282049050600182168061090057607f821691505b602082108114156109145761091361097a565b5b50919050565b610923826109ec565b810181811067ffffffffffffffff82111715610942576109416109a9565b5b80604052505050565b7f4e487b7100000000000000000000000000000000000000000000000000000000600052601160045260246000fd5b7f4e487b7100000000000000000000000000000000000000000000000000000000600052602260045260246000fd5b7f4e487b7100000000000000000000000000000000000000000000000000000000600052604160045260246000fd5b600080fd5b600080fd5b600080fd5b600080fd5b6000601f19601f830116905091905056fea264697066735822122081b10a3f14525a5082f958e0700ce03cf281cd969c536e05bad90a0baadc14f964736f6c63430008070033",
					"opcodes": "PUSH1 0x80 PUSH1 0x40 MSTORE PUSH8 0x8AC7230489E80000 PUSH1 0x3 SSTORE PUSH20 0xAB8483F64D9C6D1ECF9B849AE677DD3315835CB2 PUSH1 0x6 PUSH1 0x0 PUSH2 0x100 EXP DUP2 SLOAD DUP2 PUSH20 0xFFFFFFFFFFFFFFFFFFFFFFFFFFFFFFFFFFFFFFFF MUL NOT AND SWAP1 DUP4 PUSH20 0xFFFFFFFFFFFFFFFFFFFFFFFFFFFFFFFFFFFFFFFF AND MUL OR SWAP1 SSTORE POP CALLVALUE DUP1 ISZERO PUSH2 0x71 JUMPI PUSH1 0x0 DUP1 REVERT JUMPDEST POP PUSH2 0xA33 DUP1 PUSH2 0x81 PUSH1 0x0 CODECOPY PUSH1 0x0 RETURN INVALID PUSH1 0x80 PUSH1 0x40 MSTORE PUSH1 0x4 CALLDATASIZE LT PUSH2 0x7B JUMPI PUSH1 0x0 CALLDATALOAD PUSH1 0xE0 SHR DUP1 PUSH4 0xA8DC86F7 GT PUSH2 0x4E JUMPI DUP1 PUSH4 0xA8DC86F7 EQ PUSH2 0x11E JUMPI DUP1 PUSH4 0xB69EF8A8 EQ PUSH2 0x149 JUMPI DUP1 PUSH4 0xBC7B35B2 EQ PUSH2 0x174 JUMPI DUP1 PUSH4 0xD925DBBE EQ PUSH2 0x19F JUMPI PUSH2 0x7B JUMP JUMPDEST DUP1 PUSH4 0x22A2421E EQ PUSH2 0x80 JUMPI DUP1 PUSH4 0x77F0E6BF EQ PUSH2 0xAB JUMPI DUP1 PUSH4 0x9090D626 EQ PUSH2 0xD7 JUMPI DUP1 PUSH4 0x972A8576 EQ PUSH2 0xF3 JUMPI JUMPDEST PUSH1 0x0 DUP1 REVERT JUMPDEST CALLVALUE DUP1 ISZERO PUSH2 0x8C JUMPI PUSH1 0x0 DUP1 REVERT JUMPDEST POP PUSH2 0x95 PUSH2 0x1CA JUMP JUMPDEST PUSH1 0x40 MLOAD PUSH2 0xA2 SWAP2 SWAP1 PUSH2 0x787 JUMP JUMPDEST PUSH1 0x40 MLOAD DUP1 SWAP2 SUB SWAP1 RETURN JUMPDEST CALLVALUE DUP1 ISZERO PUSH2 0xB7 JUMPI PUSH1 0x0 DUP1 REVERT JUMPDEST POP PUSH2 0xC0 PUSH2 0x1D0 JUMP JUMPDEST PUSH1 0x40 MLOAD PUSH2 0xCE SWAP3 SWAP2 SWAP1 PUSH2 0x750 JUMP JUMPDEST PUSH1 0x40 MLOAD DUP1 SWAP2 SUB SWAP1 RETURN JUMPDEST PUSH2 0xF1 PUSH1 0x4 DUP1 CALLDATASIZE SUB DUP2 ADD SWAP1 PUSH2 0xEC SWAP2 SWAP1 PUSH2 0x644 JUMP JUMPDEST PUSH2 0x2F7 JUMP JUMPDEST STOP JUMPDEST CALLVALUE DUP1 ISZERO PUSH2 0xFF JUMPI PUSH1 0x0 DUP1 REVERT JUMPDEST POP PUSH2 0x108 PUSH2 0x365 JUMP JUMPDEST PUSH1 0x40 MLOAD PUSH2 0x115 SWAP2 SWAP1 PUSH2 0x72E JUMP JUMPDEST PUSH1 0x40 MLOAD DUP1 SWAP2 SUB SWAP1 RETURN JUMPDEST CALLVALUE DUP1 ISZERO PUSH2 0x12A JUMPI PUSH1 0x0 DUP1 REVERT JUMPDEST POP PUSH2 0x133 PUSH2 0x3F3 JUMP JUMPDEST PUSH1 0x40 MLOAD PUSH2 0x140 SWAP2 SWAP1 PUSH2 0x787 JUMP JUMPDEST PUSH1 0x40 MLOAD DUP1 SWAP2 SUB SWAP1 RETURN JUMPDEST CALLVALUE DUP1 ISZERO PUSH2 0x155 JUMPI PUSH1 0x0 DUP1 REVERT JUMPDEST POP PUSH2 0x15E PUSH2 0x3F9 JUMP JUMPDEST PUSH1 0x40 MLOAD PUSH2 0x16B SWAP2 SWAP1 PUSH2 0x787 JUMP JUMPDEST PUSH1 0x40 MLOAD DUP1 SWAP2 SUB SWAP1 RETURN JUMPDEST CALLVALUE DUP1 ISZERO PUSH2 0x180 JUMPI PUSH1 0x0 DUP1 REVERT JUMPDEST POP PUSH2 0x189 PUSH2 0x3FF JUMP JUMPDEST PUSH1 0x40 MLOAD PUSH2 0x196 SWAP2 SWAP1 PUSH2 0x72E JUMP JUMPDEST PUSH1 0x40 MLOAD DUP1 SWAP2 SUB SWAP1 RETURN JUMPDEST CALLVALUE DUP1 ISZERO PUSH2 0x1AB JUMPI PUSH1 0x0 DUP1 REVERT JUMPDEST POP PUSH2 0x1B4 PUSH2 0x48D JUMP JUMPDEST PUSH1 0x40 MLOAD PUSH2 0x1C1 SWAP2 SWAP1 PUSH2 0x713 JUMP JUMPDEST PUSH1 0x40 MLOAD DUP1 SWAP2 SUB SWAP1 RETURN JUMPDEST PUSH1 0x5 SLOAD DUP2 JUMP JUMPDEST PUSH1 0x60 DUP1 PUSH1 0x1 PUSH1 0x2 DUP2 DUP1 SLOAD PUSH2 0x1E3 SWAP1 PUSH2 0x8E8 JUMP JUMPDEST DUP1 PUSH1 0x1F ADD PUSH1 0x20 DUP1 SWAP2 DIV MUL PUSH1 0x20 ADD PUSH1 0x40 MLOAD SWAP1 DUP2 ADD PUSH1 0x40 MSTORE DUP1 SWAP3 SWAP2 SWAP1 DUP2 DUP2 MSTORE PUSH1 0x20 ADD DUP3 DUP1 SLOAD PUSH2 0x20F SWAP1 PUSH2 0x8E8 JUMP JUMPDEST DUP1 ISZERO PUSH2 0x25C JUMPI DUP1 PUSH1 0x1F LT PUSH2 0x231 JUMPI PUSH2 0x100 DUP1 DUP4 SLOAD DIV MUL DUP4 MSTORE SWAP2 PUSH1 0x20 ADD SWAP2 PUSH2 0x25C JUMP JUMPDEST DUP3 ADD SWAP2 SWAP1 PUSH1 0x0 MSTORE PUSH1 0x20 PUSH1 0x0 KECCAK256 SWAP1 JUMPDEST DUP2 SLOAD DUP2 MSTORE SWAP1 PUSH1 0x1 ADD SWAP1 PUSH1 0x20 ADD DUP1 DUP4 GT PUSH2 0x23F JUMPI DUP3 SWAP1 SUB PUSH1 0x1F AND DUP3 ADD SWAP2 JUMPDEST POP POP POP POP POP SWAP2 POP DUP1 DUP1 SLOAD PUSH2 0x26F SWAP1 PUSH2 0x8E8 JUMP JUMPDEST DUP1 PUSH1 0x1F ADD PUSH1 0x20 DUP1 SWAP2 DIV MUL PUSH1 0x20 ADD PUSH1 0x40 MLOAD SWAP1 DUP2 ADD PUSH1 0x40 MSTORE DUP1 SWAP3 SWAP2 SWAP1 DUP2 DUP2 MSTORE PUSH1 0x20 ADD DUP3 DUP1 SLOAD PUSH2 0x29B SWAP1 PUSH2 0x8E8 JUMP JUMPDEST DUP1 ISZERO PUSH2 0x2E8 JUMPI DUP1 PUSH1 0x1F LT PUSH2 0x2BD JUMPI PUSH2 0x100 DUP1 DUP4 SLOAD DIV MUL DUP4 MSTORE SWAP2 PUSH1 0x20 ADD SWAP2 PUSH2 0x2E8 JUMP JUMPDEST DUP3 ADD SWAP2 SWAP1 PUSH1 0x0 MSTORE PUSH1 0x20 PUSH1 0x0 KECCAK256 SWAP1 JUMPDEST DUP2 SLOAD DUP2 MSTORE SWAP1 PUSH1 0x1 ADD SWAP1 PUSH1 0x20 ADD DUP1 DUP4 GT PUSH2 0x2CB JUMPI DUP3 SWAP1 SUB PUSH1 0x1F AND DUP3 ADD SWAP2 JUMPDEST POP POP POP POP POP SWAP1 POP SWAP2 POP SWAP2 POP SWAP1 SWAP2 JUMP JUMPDEST DUP2 PUSH1 0x1 SWAP1 DUP1 MLOAD SWAP1 PUSH1 0x20 ADD SWAP1 PUSH2 0x30D SWAP3 SWAP2 SWAP1 PUSH2 0x531 JUMP JUMPDEST POP DUP1 PUSH1 0x2 SWAP1 DUP1 MLOAD SWAP1 PUSH1 0x20 ADD SWAP1 PUSH2 0x324 SWAP3 SWAP2 SWAP1 PUSH2 0x531 JUMP JUMPDEST POP PUSH8 0xDE0B6B3A7640000 CALLVALUE GT PUSH2 0x339 JUMPI PUSH1 0x0 DUP1 REVERT JUMPDEST CALLVALUE PUSH1 0x4 SLOAD PUSH2 0x347 SWAP2 SWAP1 PUSH2 0x814 JUMP JUMPDEST PUSH1 0x4 DUP2 SWAP1 SSTORE POP PUSH1 0x3 SLOAD PUSH1 0x4 SLOAD LT PUSH2 0x361 JUMPI PUSH2 0x360 PUSH2 0x4B3 JUMP JUMPDEST JUMPDEST POP POP JUMP JUMPDEST PUSH1 0x2 DUP1 SLOAD PUSH2 0x372 SWAP1 PUSH2 0x8E8 JUMP JUMPDEST DUP1 PUSH1 0x1F ADD PUSH1 0x20 DUP1 SWAP2 DIV MUL PUSH1 0x20 ADD PUSH1 0x40 MLOAD SWAP1 DUP2 ADD PUSH1 0x40 MSTORE DUP1 SWAP3 SWAP2 SWAP1 DUP2 DUP2 MSTORE PUSH1 0x20 ADD DUP3 DUP1 SLOAD PUSH2 0x39E SWAP1 PUSH2 0x8E8 JUMP JUMPDEST DUP1 ISZERO PUSH2 0x3EB JUMPI DUP1 PUSH1 0x1F LT PUSH2 0x3C0 JUMPI PUSH2 0x100 DUP1 DUP4 SLOAD DIV MUL DUP4 MSTORE SWAP2 PUSH1 0x20 ADD SWAP2 PUSH2 0x3EB JUMP JUMPDEST DUP3 ADD SWAP2 SWAP1 PUSH1 0x0 MSTORE PUSH1 0x20 PUSH1 0x0 KECCAK256 SWAP1 JUMPDEST DUP2 SLOAD DUP2 MSTORE SWAP1 PUSH1 0x1 ADD SWAP1 PUSH1 0x20 ADD DUP1 DUP4 GT PUSH2 0x3CE JUMPI DUP3 SWAP1 SUB PUSH1 0x1F AND DUP3 ADD SWAP2 JUMPDEST POP POP POP POP POP DUP2 JUMP JUMPDEST PUSH1 0x3 SLOAD DUP2 JUMP JUMPDEST PUSH1 0x4 SLOAD DUP2 JUMP JUMPDEST PUSH1 0x1 DUP1 SLOAD PUSH2 0x40C SWAP1 PUSH2 0x8E8 JUMP JUMPDEST DUP1 PUSH1 0x1F ADD PUSH1 0x20 DUP1 SWAP2 DIV MUL PUSH1 0x20 ADD PUSH1 0x40 MLOAD SWAP1 DUP2 ADD PUSH1 0x40 MSTORE DUP1 SWAP3 SWAP2 SWAP1 DUP2 DUP2 MSTORE PUSH1 0x20 ADD DUP3 DUP1 SLOAD PUSH2 0x438 SWAP1 PUSH2 0x8E8 JUMP JUMPDEST DUP1 ISZERO PUSH2 0x485 JUMPI DUP1 PUSH1 0x1F LT PUSH2 0x45A JUMPI PUSH2 0x100 DUP1 DUP4 SLOAD DIV MUL DUP4 MSTORE SWAP2 PUSH1 0x20 ADD SWAP2 PUSH2 0x485 JUMP JUMPDEST DUP3 ADD SWAP2 SWAP1 PUSH1 0x0 MSTORE PUSH1 0x20 PUSH1 0x0 KECCAK256 SWAP1 JUMPDEST DUP2 SLOAD DUP2 MSTORE SWAP1 PUSH1 0x1 ADD SWAP1 PUSH1 0x20 ADD DUP1 DUP4 GT PUSH2 0x468 JUMPI DUP3 SWAP1 SUB PUSH1 0x1F AND DUP3 ADD SWAP2 JUMPDEST POP POP POP POP POP DUP2 JUMP JUMPDEST PUSH1 0x6 PUSH1 0x0 SWAP1 SLOAD SWAP1 PUSH2 0x100 EXP SWAP1 DIV PUSH20 0xFFFFFFFFFFFFFFFFFFFFFFFFFFFFFFFFFFFFFFFF AND DUP2 JUMP JUMPDEST PUSH1 0x4 SLOAD PUSH1 0x5 DUP2 SWAP1 SSTORE POP PUSH1 0x0 PUSH1 0x4 DUP2 SWAP1 SSTORE POP PUSH1 0x6 PUSH1 0x0 SWAP1 SLOAD SWAP1 PUSH2 0x100 EXP SWAP1 DIV PUSH20 0xFFFFFFFFFFFFFFFFFFFFFFFFFFFFFFFFFFFFFFFF AND PUSH20 0xFFFFFFFFFFFFFFFFFFFFFFFFFFFFFFFFFFFFFFFF AND PUSH2 0x8FC PUSH1 0x5 SLOAD SWAP1 DUP2 ISZERO MUL SWAP1 PUSH1 0x40 MLOAD PUSH1 0x0 PUSH1 0x40 MLOAD DUP1 DUP4 SUB DUP2 DUP6 DUP9 DUP9 CALL SWAP4 POP POP POP POP ISZERO DUP1 ISZERO PUSH2 0x52E JUMPI RETURNDATASIZE PUSH1 0x0 DUP1 RETURNDATACOPY RETURNDATASIZE PUSH1 0x0 REVERT JUMPDEST POP JUMP JUMPDEST DUP3 DUP1 SLOAD PUSH2 0x53D SWAP1 PUSH2 0x8E8 JUMP JUMPDEST SWAP1 PUSH1 0x0 MSTORE PUSH1 0x20 PUSH1 0x0 KECCAK256 SWAP1 PUSH1 0x1F ADD PUSH1 0x20 SWAP1 DIV DUP2 ADD SWAP3 DUP3 PUSH2 0x55F JUMPI PUSH1 0x0 DUP6 SSTORE PUSH2 0x5A6 JUMP JUMPDEST DUP3 PUSH1 0x1F LT PUSH2 0x578 JUMPI DUP1 MLOAD PUSH1 0xFF NOT AND DUP4 DUP1 ADD OR DUP6 SSTORE PUSH2 0x5A6 JUMP JUMPDEST DUP3 DUP1 ADD PUSH1 0x1 ADD DUP6 SSTORE DUP3 ISZERO PUSH2 0x5A6 JUMPI SWAP2 DUP3 ADD JUMPDEST DUP3 DUP2 GT ISZERO PUSH2 0x5A5 JUMPI DUP3 MLOAD DUP3 SSTORE SWAP2 PUSH1 0x20 ADD SWAP2 SWAP1 PUSH1 0x1 ADD SWAP1 PUSH2 0x58A JUMP JUMPDEST JUMPDEST POP SWAP1 POP PUSH2 0x5B3 SWAP2 SWAP1 PUSH2 0x5B7 JUMP JUMPDEST POP SWAP1 JUMP JUMPDEST JUMPDEST DUP1 DUP3 GT ISZERO PUSH2 0x5D0 JUMPI PUSH1 0x0 DUP2 PUSH1 0x0 SWAP1 SSTORE POP PUSH1 0x1 ADD PUSH2 0x5B8 JUMP JUMPDEST POP SWAP1 JUMP JUMPDEST PUSH1 0x0 PUSH2 0x5E7 PUSH2 0x5E2 DUP5 PUSH2 0x7C7 JUMP JUMPDEST PUSH2 0x7A2 JUMP JUMPDEST SWAP1 POP DUP3 DUP2 MSTORE PUSH1 0x20 DUP2 ADD DUP5 DUP5 DUP5 ADD GT ISZERO PUSH2 0x603 JUMPI PUSH2 0x602 PUSH2 0x9DD JUMP JUMPDEST JUMPDEST PUSH2 0x60E DUP5 DUP3 DUP6 PUSH2 0x8A6 JUMP JUMPDEST POP SWAP4 SWAP3 POP POP POP JUMP JUMPDEST PUSH1 0x0 DUP3 PUSH1 0x1F DUP4 ADD SLT PUSH2 0x62B JUMPI PUSH2 0x62A PUSH2 0x9D8 JUMP JUMPDEST JUMPDEST DUP2 CALLDATALOAD PUSH2 0x63B DUP5 DUP3 PUSH1 0x20 DUP7 ADD PUSH2 0x5D4 JUMP JUMPDEST SWAP2 POP POP SWAP3 SWAP2 POP POP JUMP JUMPDEST PUSH1 0x0 DUP1 PUSH1 0x40 DUP4 DUP6 SUB SLT ISZERO PUSH2 0x65B JUMPI PUSH2 0x65A PUSH2 0x9E7 JUMP JUMPDEST JUMPDEST PUSH1 0x0 DUP4 ADD CALLDATALOAD PUSH8 0xFFFFFFFFFFFFFFFF DUP2 GT ISZERO PUSH2 0x679 JUMPI PUSH2 0x678 PUSH2 0x9E2 JUMP JUMPDEST JUMPDEST PUSH2 0x685 DUP6 DUP3 DUP7 ADD PUSH2 0x616 JUMP JUMPDEST SWAP3 POP POP PUSH1 0x20 DUP4 ADD CALLDATALOAD PUSH8 0xFFFFFFFFFFFFFFFF DUP2 GT ISZERO PUSH2 0x6A6 JUMPI PUSH2 0x6A5 PUSH2 0x9E2 JUMP JUMPDEST JUMPDEST PUSH2 0x6B2 DUP6 DUP3 DUP7 ADD PUSH2 0x616 JUMP JUMPDEST SWAP2 POP POP SWAP3 POP SWAP3 SWAP1 POP JUMP JUMPDEST PUSH2 0x6C5 DUP2 PUSH2 0x86A JUMP JUMPDEST DUP3 MSTORE POP POP JUMP JUMPDEST PUSH1 0x0 PUSH2 0x6D6 DUP3 PUSH2 0x7F8 JUMP JUMPDEST PUSH2 0x6E0 DUP2 DUP6 PUSH2 0x803 JUMP JUMPDEST SWAP4 POP PUSH2 0x6F0 DUP2 DUP6 PUSH1 0x20 DUP7 ADD PUSH2 0x8B5 JUMP JUMPDEST PUSH2 0x6F9 DUP2 PUSH2 0x9EC JUMP JUMPDEST DUP5 ADD SWAP2 POP POP SWAP3 SWAP2 POP POP JUMP JUMPDEST PUSH2 0x70D DUP2 PUSH2 0x89C JUMP JUMPDEST DUP3 MSTORE POP POP JUMP JUMPDEST PUSH1 0x0 PUSH1 0x20 DUP3 ADD SWAP1 POP PUSH2 0x728 PUSH1 0x0 DUP4 ADD DUP5 PUSH2 0x6BC JUMP JUMPDEST SWAP3 SWAP2 POP POP JUMP JUMPDEST PUSH1 0x0 PUSH1 0x20 DUP3 ADD SWAP1 POP DUP2 DUP2 SUB PUSH1 0x0 DUP4 ADD MSTORE PUSH2 0x748 DUP2 DUP5 PUSH2 0x6CB JUMP JUMPDEST SWAP1 POP SWAP3 SWAP2 POP POP JUMP JUMPDEST PUSH1 0x0 PUSH1 0x40 DUP3 ADD SWAP1 POP DUP2 DUP2 SUB PUSH1 0x0 DUP4 ADD MSTORE PUSH2 0x76A DUP2 DUP6 PUSH2 0x6CB JUMP JUMPDEST SWAP1 POP DUP2 DUP2 SUB PUSH1 0x20 DUP4 ADD MSTORE PUSH2 0x77E DUP2 DUP5 PUSH2 0x6CB JUMP JUMPDEST SWAP1 POP SWAP4 SWAP3 POP POP POP JUMP JUMPDEST PUSH1 0x0 PUSH1 0x20 DUP3 ADD SWAP1 POP PUSH2 0x79C PUSH1 0x0 DUP4 ADD DUP5 PUSH2 0x704 JUMP JUMPDEST SWAP3 SWAP2 POP POP JUMP JUMPDEST PUSH1 0x0 PUSH2 0x7AC PUSH2 0x7BD JUMP JUMPDEST SWAP1 POP PUSH2 0x7B8 DUP3 DUP3 PUSH2 0x91A JUMP JUMPDEST SWAP2 SWAP1 POP JUMP JUMPDEST PUSH1 0x0 PUSH1 0x40 MLOAD SWAP1 POP SWAP1 JUMP JUMPDEST PUSH1 0x0 PUSH8 0xFFFFFFFFFFFFFFFF DUP3 GT ISZERO PUSH2 0x7E2 JUMPI PUSH2 0x7E1 PUSH2 0x9A9 JUMP JUMPDEST JUMPDEST PUSH2 0x7EB DUP3 PUSH2 0x9EC JUMP JUMPDEST SWAP1 POP PUSH1 0x20 DUP2 ADD SWAP1 POP SWAP2 SWAP1 POP JUMP JUMPDEST PUSH1 0x0 DUP2 MLOAD SWAP1 POP SWAP2 SWAP1 POP JUMP JUMPDEST PUSH1 0x0 DUP3 DUP3 MSTORE PUSH1 0x20 DUP3 ADD SWAP1 POP SWAP3 SWAP2 POP POP JUMP JUMPDEST PUSH1 0x0 PUSH2 0x81F DUP3 PUSH2 0x89C JUMP JUMPDEST SWAP2 POP PUSH2 0x82A DUP4 PUSH2 0x89C JUMP JUMPDEST SWAP3 POP DUP3 PUSH32 0xFFFFFFFFFFFFFFFFFFFFFFFFFFFFFFFFFFFFFFFFFFFFFFFFFFFFFFFFFFFFFFFF SUB DUP3 GT ISZERO PUSH2 0x85F JUMPI PUSH2 0x85E PUSH2 0x94B JUMP JUMPDEST JUMPDEST DUP3 DUP3 ADD SWAP1 POP SWAP3 SWAP2 POP POP JUMP JUMPDEST PUSH1 0x0 PUSH2 0x875 DUP3 PUSH2 0x87C JUMP JUMPDEST SWAP1 POP SWAP2 SWAP1 POP JUMP JUMPDEST PUSH1 0x0 PUSH20 0xFFFFFFFFFFFFFFFFFFFFFFFFFFFFFFFFFFFFFFFF DUP3 AND SWAP1 POP SWAP2 SWAP1 POP JUMP JUMPDEST PUSH1 0x0 DUP2 SWAP1 POP SWAP2 SWAP1 POP JUMP JUMPDEST DUP3 DUP2 DUP4 CALLDATACOPY PUSH1 0x0 DUP4 DUP4 ADD MSTORE POP POP POP JUMP JUMPDEST PUSH1 0x0 JUMPDEST DUP4 DUP2 LT ISZERO PUSH2 0x8D3 JUMPI DUP1 DUP3 ADD MLOAD DUP2 DUP5 ADD MSTORE PUSH1 0x20 DUP2 ADD SWAP1 POP PUSH2 0x8B8 JUMP JUMPDEST DUP4 DUP2 GT ISZERO PUSH2 0x8E2 JUMPI PUSH1 0x0 DUP5 DUP5 ADD MSTORE JUMPDEST POP POP POP POP JUMP JUMPDEST PUSH1 0x0 PUSH1 0x2 DUP3 DIV SWAP1 POP PUSH1 0x1 DUP3 AND DUP1 PUSH2 0x900 JUMPI PUSH1 0x7F DUP3 AND SWAP2 POP JUMPDEST PUSH1 0x20 DUP3 LT DUP2 EQ ISZERO PUSH2 0x914 JUMPI PUSH2 0x913 PUSH2 0x97A JUMP JUMPDEST JUMPDEST POP SWAP2 SWAP1 POP JUMP JUMPDEST PUSH2 0x923 DUP3 PUSH2 0x9EC JUMP JUMPDEST DUP2 ADD DUP2 DUP2 LT PUSH8 0xFFFFFFFFFFFFFFFF DUP3 GT OR ISZERO PUSH2 0x942 JUMPI PUSH2 0x941 PUSH2 0x9A9 JUMP JUMPDEST JUMPDEST DUP1 PUSH1 0x40 MSTORE POP POP POP JUMP JUMPDEST PUSH32 0x4E487B7100000000000000000000000000000000000000000000000000000000 PUSH1 0x0 MSTORE PUSH1 0x11 PUSH1 0x4 MSTORE PUSH1 0x24 PUSH1 0x0 REVERT JUMPDEST PUSH32 0x4E487B7100000000000000000000000000000000000000000000000000000000 PUSH1 0x0 MSTORE PUSH1 0x22 PUSH1 0x4 MSTORE PUSH1 0x24 PUSH1 0x0 REVERT JUMPDEST PUSH32 0x4E487B7100000000000000000000000000000000000000000000000000000000 PUSH1 0x0 MSTORE PUSH1 0x41 PUSH1 0x4 MSTORE PUSH1 0x24 PUSH1 0x0 REVERT JUMPDEST PUSH1 0x0 DUP1 REVERT JUMPDEST PUSH1 0x0 DUP1 REVERT JUMPDEST PUSH1 0x0 DUP1 REVERT JUMPDEST PUSH1 0x0 DUP1 REVERT JUMPDEST PUSH1 0x0 PUSH1 0x1F NOT PUSH1 0x1F DUP4 ADD AND SWAP1 POP SWAP2 SWAP1 POP JUMP INVALID LOG2 PUSH5 0x6970667358 0x22 SLT KECCAK256 DUP2 0xB1 EXP EXTCODEHASH EQ MSTORE GAS POP DUP3 0xF9 PC 0xE0 PUSH17 0xCE03CF281CD969C536E05BAD90A0BAADC EQ 0xF9 PUSH5 0x736F6C6343 STOP ADDMOD SMOD STOP CALLER "
				},
				"gasEstimates": {
					"creation": {
						"codeDepositCost": "522200",
						"executionCost": "46929",
						"totalCost": "569129"
					},
					"external": {
						"apellido()": "infinite",
						"artista()": "2580",
						"balance()": "2451",
						"getMecenas()": "infinite",
						"nombre()": "infinite",
						"objetivo()": "2429",
						"setMecenas(string,string)": "infinite",
						"totalRecaudado()": "2430"
					},
					"internal": {
						"payOut()": "infinite"
					}
				},
				"methodIdentifiers": {
					"apellido()": "972a8576",
					"artista()": "d925dbbe",
					"balance()": "b69ef8a8",
					"getMecenas()": "77f0e6bf",
					"nombre()": "bc7b35b2",
					"objetivo()": "a8dc86f7",
					"setMecenas(string,string)": "9090d626",
					"totalRecaudado()": "22a2421e"
				}
			},
			"storageLayout": {
				"storage": [
					{
						"astId": 3,
						"contract": "contracts/5_Crowdfunding.sol:Crowdfunding",
						"label": "owner",
						"offset": 0,
						"slot": "0",
						"type": "t_address"
					},
					{
						"astId": 5,
						"contract": "contracts/5_Crowdfunding.sol:Crowdfunding",
						"label": "nombre",
						"offset": 0,
						"slot": "1",
						"type": "t_string_storage"
					},
					{
						"astId": 7,
						"contract": "contracts/5_Crowdfunding.sol:Crowdfunding",
						"label": "apellido",
						"offset": 0,
						"slot": "2",
						"type": "t_string_storage"
					},
					{
						"astId": 10,
						"contract": "contracts/5_Crowdfunding.sol:Crowdfunding",
						"label": "objetivo",
						"offset": 0,
						"slot": "3",
						"type": "t_uint256"
					},
					{
						"astId": 12,
						"contract": "contracts/5_Crowdfunding.sol:Crowdfunding",
						"label": "balance",
						"offset": 0,
						"slot": "4",
						"type": "t_uint256"
					},
					{
						"astId": 14,
						"contract": "contracts/5_Crowdfunding.sol:Crowdfunding",
						"label": "totalRecaudado",
						"offset": 0,
						"slot": "5",
						"type": "t_uint256"
					},
					{
						"astId": 20,
						"contract": "contracts/5_Crowdfunding.sol:Crowdfunding",
						"label": "artista",
						"offset": 0,
						"slot": "6",
						"type": "t_address_payable"
					}
				],
				"types": {
					"t_address": {
						"encoding": "inplace",
						"label": "address",
						"numberOfBytes": "20"
					},
					"t_address_payable": {
						"encoding": "inplace",
						"label": "address payable",
						"numberOfBytes": "20"
					},
					"t_string_storage": {
						"encoding": "bytes",
						"label": "string",
						"numberOfBytes": "32"
					},
					"t_uint256": {
						"encoding": "inplace",
						"label": "uint256",
						"numberOfBytes": "32"
					}
				}
			},
			"userdoc": {
				"kind": "user",
				"methods": {},
				"version": 1
			}
		}
	}
}