{
	"contracts/6_CrowdfundingEjer2.sol": {
		"Project": {
			"abi": [
				{
					"inputs": [
						{
							"internalType": "address payable",
							"name": "creadorProyecto",
							"type": "address"
						},
						{
							"internalType": "string",
							"name": "tituloProyecto",
							"type": "string"
						},
						{
							"internalType": "string",
							"name": "descripcionProyecto",
							"type": "string"
						},
						{
							"internalType": "uint256",
							"name": "fechaLimiteRecaudacion",
							"type": "uint256"
						},
						{
							"internalType": "uint256",
							"name": "montoObjetivo",
							"type": "uint256"
						}
					],
					"stateMutability": "nonpayable",
					"type": "constructor"
				},
				{
					"anonymous": false,
					"inputs": [
						{
							"indexed": false,
							"internalType": "address",
							"name": "beneficiario",
							"type": "address"
						}
					],
					"name": "ArtistaPagado",
					"type": "event"
				},
				{
					"anonymous": false,
					"inputs": [
						{
							"indexed": false,
							"internalType": "address",
							"name": "mecenas",
							"type": "address"
						},
						{
							"indexed": false,
							"internalType": "uint256",
							"name": "monto",
							"type": "uint256"
						},
						{
							"indexed": false,
							"internalType": "uint256",
							"name": "totalActual",
							"type": "uint256"
						}
					],
					"name": "FondosRecibidos",
					"type": "event"
				},
				{
					"inputs": [],
					"name": "artista",
					"outputs": [
						{
							"internalType": "address payable",
							"name": "",
							"type": "address"
						}
					],
					"stateMutability": "view",
					"type": "function"
				},
				{
					"inputs": [],
					"name": "balanceActual",
					"outputs": [
						{
							"internalType": "uint256",
							"name": "",
							"type": "uint256"
						}
					],
					"stateMutability": "view",
					"type": "function"
				},
				{
					"inputs": [],
					"name": "comprobarSiRecaudacionCompletadaOExpirada",
					"outputs": [],
					"stateMutability": "nonpayable",
					"type": "function"
				},
				{
					"inputs": [],
					"name": "contribuir",
					"outputs": [],
					"stateMutability": "payable",
					"type": "function"
				},
				{
					"inputs": [],
					"name": "descripcion",
					"outputs": [
						{
							"internalType": "string",
							"name": "",
							"type": "string"
						}
					],
					"stateMutability": "view",
					"type": "function"
				},
				{
					"inputs": [
						{
							"internalType": "address",
							"name": "",
							"type": "address"
						}
					],
					"name": "direcciones_mecenas",
					"outputs": [
						{
							"internalType": "uint256",
							"name": "",
							"type": "uint256"
						}
					],
					"stateMutability": "view",
					"type": "function"
				},
				{
					"inputs": [],
					"name": "estado",
					"outputs": [
						{
							"internalType": "enum Project.Estado",
							"name": "",
							"type": "uint8"
						}
					],
					"stateMutability": "view",
					"type": "function"
				},
				{
					"inputs": [],
					"name": "fechaCompletado",
					"outputs": [
						{
							"internalType": "uint256",
							"name": "",
							"type": "uint256"
						}
					],
					"stateMutability": "view",
					"type": "function"
				},
				{
					"inputs": [],
					"name": "fechaLimite",
					"outputs": [
						{
							"internalType": "uint256",
							"name": "",
							"type": "uint256"
						}
					],
					"stateMutability": "view",
					"type": "function"
				},
				{
					"inputs": [],
					"name": "getDetalles",
					"outputs": [
						{
							"internalType": "address payable",
							"name": "creadorProyecto",
							"type": "address"
						},
						{
							"internalType": "string",
							"name": "tituloProyecto",
							"type": "string"
						},
						{
							"internalType": "string",
							"name": "descripcionProyecto",
							"type": "string"
						},
						{
							"internalType": "uint256",
							"name": "fechaLimiteRecaudacion",
							"type": "uint256"
						},
						{
							"internalType": "enum Project.Estado",
							"name": "estadoActual",
							"type": "uint8"
						},
						{
							"internalType": "uint256",
							"name": "montoActual",
							"type": "uint256"
						},
						{
							"internalType": "uint256",
							"name": "montoObjetivo",
							"type": "uint256"
						}
					],
					"stateMutability": "view",
					"type": "function"
				},
				{
					"inputs": [],
					"name": "objetivo",
					"outputs": [
						{
							"internalType": "uint256",
							"name": "",
							"type": "uint256"
						}
					],
					"stateMutability": "view",
					"type": "function"
				},
				{
					"inputs": [],
					"name": "titulo",
					"outputs": [
						{
							"internalType": "string",
							"name": "",
							"type": "string"
						}
					],
					"stateMutability": "view",
					"type": "function"
				}
			],
			"devdoc": {
				"kind": "dev",
				"methods": {},
				"version": 1
			},
			"evm": {
				"assembly": "    /* \"contracts/6_CrowdfundingEjer2.sol\":748:4471  contract Project {\r... */\n  mstore(0x40, 0x80)\n    /* \"contracts/6_CrowdfundingEjer2.sol\":1317:1334  Estado.Recaudando */\n  0x00\n    /* \"contracts/6_CrowdfundingEjer2.sol\":1294:1334  Estado public estado = Estado.Recaudando */\n  0x07\n  exp(0x0100, 0x00)\n  dup2\n  sload\n  dup2\n  0xff\n  mul\n  not\n  and\n  swap1\n  dup4\n  0x02\n  dup2\n  gt\n  iszero\n  tag_1\n  jumpi\n  invalid\ntag_1:\n  mul\n  or\n  swap1\n  sstore\n  pop\n    /* \"contracts/6_CrowdfundingEjer2.sol\":1847:2359  constructor(\r... */\n  callvalue\n  dup1\n  iszero\n  tag_2\n  jumpi\n  0x00\n  dup1\n  revert\ntag_2:\n  pop\n  mload(0x40)\n  sub(codesize, bytecodeSize)\n  dup1\n  bytecodeSize\n  dup4\n  codecopy\n  dup2\n  dup2\n  add\n  0x40\n  mstore\n  0xa0\n  dup2\n  lt\n  iszero\n  tag_3\n  jumpi\n  0x00\n  dup1\n  revert\ntag_3:\n  dup2\n  add\n  swap1\n  dup1\n  dup1\n  mload\n  swap1\n  0x20\n  add\n  swap1\n  swap3\n  swap2\n  swap1\n  dup1\n  mload\n  mload(0x40)\n  swap4\n  swap3\n  swap2\n  swap1\n  dup5\n  0x0100000000\n  dup3\n  gt\n  iszero\n  tag_4\n  jumpi\n  0x00\n  dup1\n  revert\ntag_4:\n  dup4\n  dup3\n  add\n  swap2\n  pop\n  0x20\n  dup3\n  add\n  dup6\n  dup2\n  gt\n  iszero\n  tag_5\n  jumpi\n  0x00\n  dup1\n  revert\ntag_5:\n  dup3\n  mload\n  dup7\n  0x01\n  dup3\n  mul\n  dup4\n  add\n  gt\n  0x0100000000\n  dup3\n  gt\n  or\n  iszero\n  tag_6\n  jumpi\n  0x00\n  dup1\n  revert\ntag_6:\n  dup1\n  dup4\n  mstore\n  0x20\n  dup4\n  add\n  swap3\n  pop\n  pop\n  pop\n  swap1\n  dup1\n  mload\n  swap1\n  0x20\n  add\n  swap1\n  dup1\n  dup4\n  dup4\n  0x00\ntag_7:\n  dup4\n  dup2\n  lt\n  iszero\n  tag_9\n  jumpi\n  dup1\n  dup3\n  add\n  mload\n  dup2\n  dup5\n  add\n  mstore\n  0x20\n  dup2\n  add\n  swap1\n  pop\n  jump(tag_7)\ntag_9:\n  pop\n  pop\n  pop\n  pop\n  swap1\n  pop\n  swap1\n  dup2\n  add\n  swap1\n  0x1f\n  and\n  dup1\n  iszero\n  tag_10\n  jumpi\n  dup1\n  dup3\n  sub\n  dup1\n  mload\n  0x01\n  dup4\n  0x20\n  sub\n  0x0100\n  exp\n  sub\n  not\n  and\n  dup2\n  mstore\n  0x20\n  add\n  swap2\n  pop\ntag_10:\n  pop\n  0x40\n  mstore\n  0x20\n  add\n  dup1\n  mload\n  mload(0x40)\n  swap4\n  swap3\n  swap2\n  swap1\n  dup5\n  0x0100000000\n  dup3\n  gt\n  iszero\n  tag_11\n  jumpi\n  0x00\n  dup1\n  revert\ntag_11:\n  dup4\n  dup3\n  add\n  swap2\n  pop\n  0x20\n  dup3\n  add\n  dup6\n  dup2\n  gt\n  iszero\n  tag_12\n  jumpi\n  0x00\n  dup1\n  revert\ntag_12:\n  dup3\n  mload\n  dup7\n  0x01\n  dup3\n  mul\n  dup4\n  add\n  gt\n  0x0100000000\n  dup3\n  gt\n  or\n  iszero\n  tag_13\n  jumpi\n  0x00\n  dup1\n  revert\ntag_13:\n  dup1\n  dup4\n  mstore\n  0x20\n  dup4\n  add\n  swap3\n  pop\n  pop\n  pop\n  swap1\n  dup1\n  mload\n  swap1\n  0x20\n  add\n  swap1\n  dup1\n  dup4\n  dup4\n  0x00\ntag_14:\n  dup4\n  dup2\n  lt\n  iszero\n  tag_16\n  jumpi\n  dup1\n  dup3\n  add\n  mload\n  dup2\n  dup5\n  add\n  mstore\n  0x20\n  dup2\n  add\n  swap1\n  pop\n  jump(tag_14)\ntag_16:\n  pop\n  pop\n  pop\n  pop\n  swap1\n  pop\n  swap1\n  dup2\n  add\n  swap1\n  0x1f\n  and\n  dup1\n  iszero\n  tag_17\n  jumpi\n  dup1\n  dup3\n  sub\n  dup1\n  mload\n  0x01\n  dup4\n  0x20\n  sub\n  0x0100\n  exp\n  sub\n  not\n  and\n  dup2\n  mstore\n  0x20\n  add\n  swap2\n  pop\ntag_17:\n  pop\n  0x40\n  mstore\n  0x20\n  add\n  dup1\n  mload\n  swap1\n  0x20\n  add\n  swap1\n  swap3\n  swap2\n  swap1\n  dup1\n  mload\n  swap1\n  0x20\n  add\n  swap1\n  swap3\n  swap2\n  swap1\n  pop\n  pop\n  pop\n    /* \"contracts/6_CrowdfundingEjer2.sol\":2112:2127  creadorProyecto */\n  dup5\n    /* \"contracts/6_CrowdfundingEjer2.sol\":2102:2109  artista */\n  0x00\n  dup1\n    /* \"contracts/6_CrowdfundingEjer2.sol\":2102:2127  artista = creadorProyecto */\n  0x0100\n  exp\n  dup2\n  sload\n  dup2\n  0xffffffffffffffffffffffffffffffffffffffff\n  mul\n  not\n  and\n  swap1\n  dup4\n  0xffffffffffffffffffffffffffffffffffffffff\n  and\n  mul\n  or\n  swap1\n  sstore\n  pop\n    /* \"contracts/6_CrowdfundingEjer2.sol\":2153:2167  tituloProyecto */\n  dup4\n    /* \"contracts/6_CrowdfundingEjer2.sol\":2144:2150  titulo */\n  0x05\n    /* \"contracts/6_CrowdfundingEjer2.sol\":2144:2167  titulo = tituloProyecto */\n  swap1\n  dup1\n  mload\n  swap1\n  0x20\n  add\n  swap1\n  tag_20\n  swap3\n  swap2\n  swap1\n  tag_21\n  jump\t// in\ntag_20:\n  pop\n    /* \"contracts/6_CrowdfundingEjer2.sol\":2198:2217  descripcionProyecto */\n  dup3\n    /* \"contracts/6_CrowdfundingEjer2.sol\":2184:2195  descripcion */\n  0x06\n    /* \"contracts/6_CrowdfundingEjer2.sol\":2184:2217  descripcion = descripcionProyecto */\n  swap1\n  dup1\n  mload\n  swap1\n  0x20\n  add\n  swap1\n  tag_22\n  swap3\n  swap2\n  swap1\n  tag_21\n  jump\t// in\ntag_22:\n  pop\n    /* \"contracts/6_CrowdfundingEjer2.sol\":2245:2258  montoObjetivo */\n  dup1\n    /* \"contracts/6_CrowdfundingEjer2.sol\":2234:2242  objetivo */\n  0x01\n    /* \"contracts/6_CrowdfundingEjer2.sol\":2234:2258  objetivo = montoObjetivo */\n  dup2\n  swap1\n  sstore\n  pop\n    /* \"contracts/6_CrowdfundingEjer2.sol\":2289:2311  fechaLimiteRecaudacion */\n  dup2\n    /* \"contracts/6_CrowdfundingEjer2.sol\":2275:2286  fechaLimite */\n  0x04\n    /* \"contracts/6_CrowdfundingEjer2.sol\":2275:2311  fechaLimite = fechaLimiteRecaudacion */\n  dup2\n  swap1\n  sstore\n  pop\n    /* \"contracts/6_CrowdfundingEjer2.sol\":2344:2345  0 */\n  0x00\n    /* \"contracts/6_CrowdfundingEjer2.sol\":2328:2341  balanceActual */\n  0x03\n    /* \"contracts/6_CrowdfundingEjer2.sol\":2328:2345  balanceActual = 0 */\n  dup2\n  swap1\n  sstore\n  pop\n    /* \"contracts/6_CrowdfundingEjer2.sol\":1847:2359  constructor(\r... */\n  pop\n  pop\n  pop\n  pop\n  pop\n    /* \"contracts/6_CrowdfundingEjer2.sol\":748:4471  contract Project {\r... */\n  jump(tag_23)\ntag_21:\n  dup3\n  dup1\n  sload\n  0x01\n  dup2\n  0x01\n  and\n  iszero\n  0x0100\n  mul\n  sub\n  and\n  0x02\n  swap1\n  div\n  swap1\n  0x00\n  mstore\n  keccak256(0x00, 0x20)\n  swap1\n  0x1f\n  add\n  0x20\n  swap1\n  div\n  dup2\n  add\n  swap3\n  dup3\n  0x1f\n  lt\n  tag_25\n  jumpi\n  dup1\n  mload\n  not(0xff)\n  and\n  dup4\n  dup1\n  add\n  or\n  dup6\n  sstore\n  jump(tag_24)\ntag_25:\n  dup3\n  dup1\n  add\n  0x01\n  add\n  dup6\n  sstore\n  dup3\n  iszero\n  tag_24\n  jumpi\n  swap2\n  dup3\n  add\ntag_26:\n  dup3\n  dup2\n  gt\n  iszero\n  tag_27\n  jumpi\n  dup3\n  mload\n  dup3\n  sstore\n  swap2\n  0x20\n  add\n  swap2\n  swap1\n  0x01\n  add\n  swap1\n  jump(tag_26)\ntag_27:\ntag_24:\n  pop\n  swap1\n  pop\n  tag_28\n  swap2\n  swap1\n  tag_29\n  jump\t// in\ntag_28:\n  pop\n  swap1\n  jump\t// out\ntag_29:\ntag_30:\n  dup1\n  dup3\n  gt\n  iszero\n  tag_31\n  jumpi\n  0x00\n  dup2\n  0x00\n  swap1\n  sstore\n  pop\n  0x01\n  add\n  jump(tag_30)\ntag_31:\n  pop\n  swap1\n  jump\t// out\ntag_23:\n  dataSize(sub_0)\n  dup1\n  dataOffset(sub_0)\n  0x00\n  codecopy\n  0x00\n  return\nstop\n\nsub_0: assembly {\n        /* \"contracts/6_CrowdfundingEjer2.sol\":748:4471  contract Project {\r... */\n      mstore(0x40, 0x80)\n      jumpi(tag_1, lt(calldatasize, 0x04))\n      shr(0xe0, calldataload(0x00))\n      dup1\n      0x799000b1\n      gt\n      tag_14\n      jumpi\n      dup1\n      0x799000b1\n      eq\n      tag_8\n      jumpi\n      dup1\n      0xa8dc86f7\n      eq\n      tag_9\n      jumpi\n      dup1\n      0xc053a99c\n      eq\n      tag_10\n      jumpi\n      dup1\n      0xd925dbbe\n      eq\n      tag_11\n      jumpi\n      dup1\n      0xe97232cb\n      eq\n      tag_12\n      jumpi\n      dup1\n      0xf8ae774d\n      eq\n      tag_13\n      jumpi\n      jump(tag_1)\n    tag_14:\n      dup1\n      0x0f2a397a\n      eq\n      tag_2\n      jumpi\n      dup1\n      0x14137912\n      eq\n      tag_3\n      jumpi\n      dup1\n      0x391b1ab0\n      eq\n      tag_4\n      jumpi\n      dup1\n      0x56fb71e5\n      eq\n      tag_5\n      jumpi\n      dup1\n      0x688e3467\n      eq\n      tag_6\n      jumpi\n      dup1\n      0x6c83420b\n      eq\n      tag_7\n      jumpi\n    tag_1:\n      0x00\n      dup1\n      revert\n        /* \"contracts/6_CrowdfundingEjer2.sol\":1192:1215  uint public fechaLimite */\n    tag_2:\n      callvalue\n      dup1\n      iszero\n      tag_15\n      jumpi\n      0x00\n      dup1\n      revert\n    tag_15:\n      pop\n      tag_16\n      tag_17\n      jump\t// in\n    tag_16:\n      mload(0x40)\n      dup1\n      dup3\n      dup2\n      mstore\n      0x20\n      add\n      swap2\n      pop\n      pop\n      mload(0x40)\n      dup1\n      swap2\n      sub\n      swap1\n      return\n        /* \"contracts/6_CrowdfundingEjer2.sol\":1345:1396  mapping(address => uint) public direcciones_mecenas */\n    tag_3:\n      callvalue\n      dup1\n      iszero\n      tag_18\n      jumpi\n      0x00\n      dup1\n      revert\n    tag_18:\n      pop\n      tag_19\n      0x04\n      dup1\n      calldatasize\n      sub\n      0x20\n      dup2\n      lt\n      iszero\n      tag_20\n      jumpi\n      0x00\n      dup1\n      revert\n    tag_20:\n      dup2\n      add\n      swap1\n      dup1\n      dup1\n      calldataload\n      0xffffffffffffffffffffffffffffffffffffffff\n      and\n      swap1\n      0x20\n      add\n      swap1\n      swap3\n      swap2\n      swap1\n      pop\n      pop\n      pop\n      tag_21\n      jump\t// in\n    tag_19:\n      mload(0x40)\n      dup1\n      dup3\n      dup2\n      mstore\n      0x20\n      add\n      swap2\n      pop\n      pop\n      mload(0x40)\n      dup1\n      swap2\n      sub\n      swap1\n      return\n        /* \"contracts/6_CrowdfundingEjer2.sol\":1226:1246  string public titulo */\n    tag_4:\n      callvalue\n      dup1\n      iszero\n      tag_22\n      jumpi\n      0x00\n      dup1\n      revert\n    tag_22:\n      pop\n      tag_23\n      tag_24\n      jump\t// in\n    tag_23:\n      mload(0x40)\n      dup1\n      dup1\n      0x20\n      add\n      dup3\n      dup2\n      sub\n      dup3\n      mstore\n      dup4\n      dup2\n      dup2\n      mload\n      dup2\n      mstore\n      0x20\n      add\n      swap2\n      pop\n      dup1\n      mload\n      swap1\n      0x20\n      add\n      swap1\n      dup1\n      dup4\n      dup4\n      0x00\n    tag_25:\n      dup4\n      dup2\n      lt\n      iszero\n      tag_27\n      jumpi\n      dup1\n      dup3\n      add\n      mload\n      dup2\n      dup5\n      add\n      mstore\n      0x20\n      dup2\n      add\n      swap1\n      pop\n      jump(tag_25)\n    tag_27:\n      pop\n      pop\n      pop\n      pop\n      swap1\n      pop\n      swap1\n      dup2\n      add\n      swap1\n      0x1f\n      and\n      dup1\n      iszero\n      tag_28\n      jumpi\n      dup1\n      dup3\n      sub\n      dup1\n      mload\n      0x01\n      dup4\n      0x20\n      sub\n      0x0100\n      exp\n      sub\n      not\n      and\n      dup2\n      mstore\n      0x20\n      add\n      swap2\n      pop\n    tag_28:\n      pop\n      swap3\n      pop\n      pop\n      pop\n      mload(0x40)\n      dup1\n      swap2\n      sub\n      swap1\n      return\n        /* \"contracts/6_CrowdfundingEjer2.sol\":3758:4468  function getDetalles() public view returns(\r... */\n    tag_5:\n      callvalue\n      dup1\n      iszero\n      tag_29\n      jumpi\n      0x00\n      dup1\n      revert\n    tag_29:\n      pop\n      tag_30\n      tag_31\n      jump\t// in\n    tag_30:\n      mload(0x40)\n      dup1\n      dup9\n      0xffffffffffffffffffffffffffffffffffffffff\n      and\n      dup2\n      mstore\n      0x20\n      add\n      dup1\n      0x20\n      add\n      dup1\n      0x20\n      add\n      dup8\n      dup2\n      mstore\n      0x20\n      add\n      dup7\n      0x02\n      dup2\n      gt\n      iszero\n      tag_32\n      jumpi\n      invalid\n    tag_32:\n      dup2\n      mstore\n      0x20\n      add\n      dup6\n      dup2\n      mstore\n      0x20\n      add\n      dup5\n      dup2\n      mstore\n      0x20\n      add\n      dup4\n      dup2\n      sub\n      dup4\n      mstore\n      dup10\n      dup2\n      dup2\n      mload\n      dup2\n      mstore\n      0x20\n      add\n      swap2\n      pop\n      dup1\n      mload\n      swap1\n      0x20\n      add\n      swap1\n      dup1\n      dup4\n      dup4\n      0x00\n    tag_33:\n      dup4\n      dup2\n      lt\n      iszero\n      tag_35\n      jumpi\n      dup1\n      dup3\n      add\n      mload\n      dup2\n      dup5\n      add\n      mstore\n      0x20\n      dup2\n      add\n      swap1\n      pop\n      jump(tag_33)\n    tag_35:\n      pop\n      pop\n      pop\n      pop\n      swap1\n      pop\n      swap1\n      dup2\n      add\n      swap1\n      0x1f\n      and\n      dup1\n      iszero\n      tag_36\n      jumpi\n      dup1\n      dup3\n      sub\n      dup1\n      mload\n      0x01\n      dup4\n      0x20\n      sub\n      0x0100\n      exp\n      sub\n      not\n      and\n      dup2\n      mstore\n      0x20\n      add\n      swap2\n      pop\n    tag_36:\n      pop\n      dup4\n      dup2\n      sub\n      dup3\n      mstore\n      dup9\n      dup2\n      dup2\n      mload\n      dup2\n      mstore\n      0x20\n      add\n      swap2\n      pop\n      dup1\n      mload\n      swap1\n      0x20\n      add\n      swap1\n      dup1\n      dup4\n      dup4\n      0x00\n    tag_37:\n      dup4\n      dup2\n      lt\n      iszero\n      tag_39\n      jumpi\n      dup1\n      dup3\n      add\n      mload\n      dup2\n      dup5\n      add\n      mstore\n      0x20\n      dup2\n      add\n      swap1\n      pop\n      jump(tag_37)\n    tag_39:\n      pop\n      pop\n      pop\n      pop\n      swap1\n      pop\n      swap1\n      dup2\n      add\n      swap1\n      0x1f\n      and\n      dup1\n      iszero\n      tag_40\n      jumpi\n      dup1\n      dup3\n      sub\n      dup1\n      mload\n      0x01\n      dup4\n      0x20\n      sub\n      0x0100\n      exp\n      sub\n      not\n      and\n      dup2\n      mstore\n      0x20\n      add\n      swap2\n      pop\n    tag_40:\n      pop\n      swap10\n      pop\n      pop\n      pop\n      pop\n      pop\n      pop\n      pop\n      pop\n      pop\n      pop\n      mload(0x40)\n      dup1\n      swap2\n      sub\n      swap1\n      return\n        /* \"contracts/6_CrowdfundingEjer2.sol\":1294:1334  Estado public estado = Estado.Recaudando */\n    tag_6:\n      callvalue\n      dup1\n      iszero\n      tag_41\n      jumpi\n      0x00\n      dup1\n      revert\n    tag_41:\n      pop\n      tag_42\n      tag_43\n      jump\t// in\n    tag_42:\n      mload(0x40)\n      dup1\n      dup3\n      0x02\n      dup2\n      gt\n      iszero\n      tag_44\n      jumpi\n      invalid\n    tag_44:\n      dup2\n      mstore\n      0x20\n      add\n      swap2\n      pop\n      pop\n      mload(0x40)\n      dup1\n      swap2\n      sub\n      swap1\n      return\n        /* \"contracts/6_CrowdfundingEjer2.sol\":1257:1282  string public descripcion */\n    tag_7:\n      callvalue\n      dup1\n      iszero\n      tag_45\n      jumpi\n      0x00\n      dup1\n      revert\n    tag_45:\n      pop\n      tag_46\n      tag_47\n      jump\t// in\n    tag_46:\n      mload(0x40)\n      dup1\n      dup1\n      0x20\n      add\n      dup3\n      dup2\n      sub\n      dup3\n      mstore\n      dup4\n      dup2\n      dup2\n      mload\n      dup2\n      mstore\n      0x20\n      add\n      swap2\n      pop\n      dup1\n      mload\n      swap1\n      0x20\n      add\n      swap1\n      dup1\n      dup4\n      dup4\n      0x00\n    tag_48:\n      dup4\n      dup2\n      lt\n      iszero\n      tag_50\n      jumpi\n      dup1\n      dup3\n      add\n      mload\n      dup2\n      dup5\n      add\n      mstore\n      0x20\n      dup2\n      add\n      swap1\n      pop\n      jump(tag_48)\n    tag_50:\n      pop\n      pop\n      pop\n      pop\n      swap1\n      pop\n      swap1\n      dup2\n      add\n      swap1\n      0x1f\n      and\n      dup1\n      iszero\n      tag_51\n      jumpi\n      dup1\n      dup3\n      sub\n      dup1\n      mload\n      0x01\n      dup4\n      0x20\n      sub\n      0x0100\n      exp\n      sub\n      not\n      and\n      dup2\n      mstore\n      0x20\n      add\n      swap2\n      pop\n    tag_51:\n      pop\n      swap3\n      pop\n      pop\n      pop\n      mload(0x40)\n      dup1\n      swap2\n      sub\n      swap1\n      return\n        /* \"contracts/6_CrowdfundingEjer2.sol\":2474:2895  function contribuir() external enEstado(Estado.Recaudando) payable {\r... */\n    tag_8:\n      tag_52\n      tag_53\n      jump\t// in\n    tag_52:\n      stop\n        /* \"contracts/6_CrowdfundingEjer2.sol\":1084:1104  uint public objetivo */\n    tag_9:\n      callvalue\n      dup1\n      iszero\n      tag_54\n      jumpi\n      0x00\n      dup1\n      revert\n    tag_54:\n      pop\n      tag_55\n      tag_56\n      jump\t// in\n    tag_55:\n      mload(0x40)\n      dup1\n      dup3\n      dup2\n      mstore\n      0x20\n      add\n      swap2\n      pop\n      pop\n      mload(0x40)\n      dup1\n      swap2\n      sub\n      swap1\n      return\n        /* \"contracts/6_CrowdfundingEjer2.sol\":1153:1181  uint256 public balanceActual */\n    tag_10:\n      callvalue\n      dup1\n      iszero\n      tag_57\n      jumpi\n      0x00\n      dup1\n      revert\n    tag_57:\n      pop\n      tag_58\n      tag_59\n      jump\t// in\n    tag_58:\n      mload(0x40)\n      dup1\n      dup3\n      dup2\n      mstore\n      0x20\n      add\n      swap2\n      pop\n      pop\n      mload(0x40)\n      dup1\n      swap2\n      sub\n      swap1\n      return\n        /* \"contracts/6_CrowdfundingEjer2.sol\":1019:1049  address payable public artista */\n    tag_11:\n      callvalue\n      dup1\n      iszero\n      tag_60\n      jumpi\n      0x00\n      dup1\n      revert\n    tag_60:\n      pop\n      tag_61\n      tag_62\n      jump\t// in\n    tag_61:\n      mload(0x40)\n      dup1\n      dup3\n      0xffffffffffffffffffffffffffffffffffffffff\n      and\n      dup2\n      mstore\n      0x20\n      add\n      swap2\n      pop\n      pop\n      mload(0x40)\n      dup1\n      swap2\n      sub\n      swap1\n      return\n        /* \"contracts/6_CrowdfundingEjer2.sol\":2907:3250  function comprobarSiRecaudacionCompletadaOExpirada() public {\r... */\n    tag_12:\n      callvalue\n      dup1\n      iszero\n      tag_63\n      jumpi\n      0x00\n      dup1\n      revert\n    tag_63:\n      pop\n      tag_64\n      tag_65\n      jump\t// in\n    tag_64:\n      stop\n        /* \"contracts/6_CrowdfundingEjer2.sol\":1115:1142  uint public fechaCompletado */\n    tag_13:\n      callvalue\n      dup1\n      iszero\n      tag_66\n      jumpi\n      0x00\n      dup1\n      revert\n    tag_66:\n      pop\n      tag_67\n      tag_68\n      jump\t// in\n    tag_67:\n      mload(0x40)\n      dup1\n      dup3\n      dup2\n      mstore\n      0x20\n      add\n      swap2\n      pop\n      pop\n      mload(0x40)\n      dup1\n      swap2\n      sub\n      swap1\n      return\n        /* \"contracts/6_CrowdfundingEjer2.sol\":1192:1215  uint public fechaLimite */\n    tag_17:\n      sload(0x04)\n      dup2\n      jump\t// out\n        /* \"contracts/6_CrowdfundingEjer2.sol\":1345:1396  mapping(address => uint) public direcciones_mecenas */\n    tag_21:\n      mstore(0x20, 0x08)\n      dup1\n      0x00\n      mstore\n      keccak256(0x00, 0x40)\n      0x00\n      swap2\n      pop\n      swap1\n      pop\n      sload\n      dup2\n      jump\t// out\n        /* \"contracts/6_CrowdfundingEjer2.sol\":1226:1246  string public titulo */\n    tag_24:\n      0x05\n      dup1\n      sload\n      0x01\n      dup2\n      0x01\n      and\n      iszero\n      0x0100\n      mul\n      sub\n      and\n      0x02\n      swap1\n      div\n      dup1\n      0x1f\n      add\n      0x20\n      dup1\n      swap2\n      div\n      mul\n      0x20\n      add\n      mload(0x40)\n      swap1\n      dup2\n      add\n      0x40\n      mstore\n      dup1\n      swap3\n      swap2\n      swap1\n      dup2\n      dup2\n      mstore\n      0x20\n      add\n      dup3\n      dup1\n      sload\n      0x01\n      dup2\n      0x01\n      and\n      iszero\n      0x0100\n      mul\n      sub\n      and\n      0x02\n      swap1\n      div\n      dup1\n      iszero\n      tag_69\n      jumpi\n      dup1\n      0x1f\n      lt\n      tag_70\n      jumpi\n      0x0100\n      dup1\n      dup4\n      sload\n      div\n      mul\n      dup4\n      mstore\n      swap2\n      0x20\n      add\n      swap2\n      jump(tag_69)\n    tag_70:\n      dup3\n      add\n      swap2\n      swap1\n      0x00\n      mstore\n      keccak256(0x00, 0x20)\n      swap1\n    tag_71:\n      dup2\n      sload\n      dup2\n      mstore\n      swap1\n      0x01\n      add\n      swap1\n      0x20\n      add\n      dup1\n      dup4\n      gt\n      tag_71\n      jumpi\n      dup3\n      swap1\n      sub\n      0x1f\n      and\n      dup3\n      add\n      swap2\n    tag_69:\n      pop\n      pop\n      pop\n      pop\n      pop\n      dup2\n      jump\t// out\n        /* \"contracts/6_CrowdfundingEjer2.sol\":3758:4468  function getDetalles() public view returns(\r... */\n    tag_31:\n        /* \"contracts/6_CrowdfundingEjer2.sol\":3821:3852  address payable creadorProyecto */\n      0x00\n        /* \"contracts/6_CrowdfundingEjer2.sol\":3873:3901  string memory tituloProyecto */\n      0x60\n        /* \"contracts/6_CrowdfundingEjer2.sol\":3922:3955  string memory descripcionProyecto */\n      dup1\n        /* \"contracts/6_CrowdfundingEjer2.sol\":3976:4006  uint256 fechaLimiteRecaudacion */\n      0x00\n        /* \"contracts/6_CrowdfundingEjer2.sol\":4027:4046  Estado estadoActual */\n      dup1\n        /* \"contracts/6_CrowdfundingEjer2.sol\":4067:4086  uint256 montoActual */\n      0x00\n        /* \"contracts/6_CrowdfundingEjer2.sol\":4107:4128  uint256 montoObjetivo */\n      dup1\n        /* \"contracts/6_CrowdfundingEjer2.sol\":4181:4188  artista */\n      0x00\n      dup1\n      sload\n      swap1\n      0x0100\n      exp\n      swap1\n      div\n      0xffffffffffffffffffffffffffffffffffffffff\n      and\n        /* \"contracts/6_CrowdfundingEjer2.sol\":4163:4188  creadorProyecto = artista */\n      swap7\n      pop\n        /* \"contracts/6_CrowdfundingEjer2.sol\":4222:4228  titulo */\n      0x05\n        /* \"contracts/6_CrowdfundingEjer2.sol\":4205:4228  tituloProyecto = titulo */\n      dup1\n      sload\n      0x01\n      dup2\n      0x01\n      and\n      iszero\n      0x0100\n      mul\n      sub\n      and\n      0x02\n      swap1\n      div\n      dup1\n      0x1f\n      add\n      0x20\n      dup1\n      swap2\n      div\n      mul\n      0x20\n      add\n      mload(0x40)\n      swap1\n      dup2\n      add\n      0x40\n      mstore\n      dup1\n      swap3\n      swap2\n      swap1\n      dup2\n      dup2\n      mstore\n      0x20\n      add\n      dup3\n      dup1\n      sload\n      0x01\n      dup2\n      0x01\n      and\n      iszero\n      0x0100\n      mul\n      sub\n      and\n      0x02\n      swap1\n      div\n      dup1\n      iszero\n      tag_73\n      jumpi\n      dup1\n      0x1f\n      lt\n      tag_74\n      jumpi\n      0x0100\n      dup1\n      dup4\n      sload\n      div\n      mul\n      dup4\n      mstore\n      swap2\n      0x20\n      add\n      swap2\n      jump(tag_73)\n    tag_74:\n      dup3\n      add\n      swap2\n      swap1\n      0x00\n      mstore\n      keccak256(0x00, 0x20)\n      swap1\n    tag_75:\n      dup2\n      sload\n      dup2\n      mstore\n      swap1\n      0x01\n      add\n      swap1\n      0x20\n      add\n      dup1\n      dup4\n      gt\n      tag_75\n      jumpi\n      dup3\n      swap1\n      sub\n      0x1f\n      and\n      dup3\n      add\n      swap2\n    tag_73:\n      pop\n      pop\n      pop\n      pop\n      pop\n      swap6\n      pop\n        /* \"contracts/6_CrowdfundingEjer2.sol\":4267:4278  descripcion */\n      0x06\n        /* \"contracts/6_CrowdfundingEjer2.sol\":4245:4278  descripcionProyecto = descripcion */\n      dup1\n      sload\n      0x01\n      dup2\n      0x01\n      and\n      iszero\n      0x0100\n      mul\n      sub\n      and\n      0x02\n      swap1\n      div\n      dup1\n      0x1f\n      add\n      0x20\n      dup1\n      swap2\n      div\n      mul\n      0x20\n      add\n      mload(0x40)\n      swap1\n      dup2\n      add\n      0x40\n      mstore\n      dup1\n      swap3\n      swap2\n      swap1\n      dup2\n      dup2\n      mstore\n      0x20\n      add\n      dup3\n      dup1\n      sload\n      0x01\n      dup2\n      0x01\n      and\n      iszero\n      0x0100\n      mul\n      sub\n      and\n      0x02\n      swap1\n      div\n      dup1\n      iszero\n      tag_76\n      jumpi\n      dup1\n      0x1f\n      lt\n      tag_77\n      jumpi\n      0x0100\n      dup1\n      dup4\n      sload\n      div\n      mul\n      dup4\n      mstore\n      swap2\n      0x20\n      add\n      swap2\n      jump(tag_76)\n    tag_77:\n      dup3\n      add\n      swap2\n      swap1\n      0x00\n      mstore\n      keccak256(0x00, 0x20)\n      swap1\n    tag_78:\n      dup2\n      sload\n      dup2\n      mstore\n      swap1\n      0x01\n      add\n      swap1\n      0x20\n      add\n      dup1\n      dup4\n      gt\n      tag_78\n      jumpi\n      dup3\n      swap1\n      sub\n      0x1f\n      and\n      dup3\n      add\n      swap2\n    tag_76:\n      pop\n      pop\n      pop\n      pop\n      pop\n      swap5\n      pop\n        /* \"contracts/6_CrowdfundingEjer2.sol\":4320:4331  fechaLimite */\n      sload(0x04)\n        /* \"contracts/6_CrowdfundingEjer2.sol\":4295:4331  fechaLimiteRecaudacion = fechaLimite */\n      swap4\n      pop\n        /* \"contracts/6_CrowdfundingEjer2.sol\":4363:4369  estado */\n      0x07\n      0x00\n      swap1\n      sload\n      swap1\n      0x0100\n      exp\n      swap1\n      div\n      0xff\n      and\n        /* \"contracts/6_CrowdfundingEjer2.sol\":4348:4369  estadoActual = estado */\n      swap3\n      pop\n        /* \"contracts/6_CrowdfundingEjer2.sol\":4400:4413  balanceActual */\n      sload(0x03)\n        /* \"contracts/6_CrowdfundingEjer2.sol\":4386:4413  montoActual = balanceActual */\n      swap2\n      pop\n        /* \"contracts/6_CrowdfundingEjer2.sol\":4446:4454  objetivo */\n      sload(0x01)\n        /* \"contracts/6_CrowdfundingEjer2.sol\":4430:4454  montoObjetivo = objetivo */\n      swap1\n      pop\n        /* \"contracts/6_CrowdfundingEjer2.sol\":3758:4468  function getDetalles() public view returns(\r... */\n      swap1\n      swap2\n      swap3\n      swap4\n      swap5\n      swap6\n      swap7\n      jump\t// out\n        /* \"contracts/6_CrowdfundingEjer2.sol\":1294:1334  Estado public estado = Estado.Recaudando */\n    tag_43:\n      0x07\n      0x00\n      swap1\n      sload\n      swap1\n      0x0100\n      exp\n      swap1\n      div\n      0xff\n      and\n      dup2\n      jump\t// out\n        /* \"contracts/6_CrowdfundingEjer2.sol\":1257:1282  string public descripcion */\n    tag_47:\n      0x06\n      dup1\n      sload\n      0x01\n      dup2\n      0x01\n      and\n      iszero\n      0x0100\n      mul\n      sub\n      and\n      0x02\n      swap1\n      div\n      dup1\n      0x1f\n      add\n      0x20\n      dup1\n      swap2\n      div\n      mul\n      0x20\n      add\n      mload(0x40)\n      swap1\n      dup2\n      add\n      0x40\n      mstore\n      dup1\n      swap3\n      swap2\n      swap1\n      dup2\n      dup2\n      mstore\n      0x20\n      add\n      dup3\n      dup1\n      sload\n      0x01\n      dup2\n      0x01\n      and\n      iszero\n      0x0100\n      mul\n      sub\n      and\n      0x02\n      swap1\n      div\n      dup1\n      iszero\n      tag_79\n      jumpi\n      dup1\n      0x1f\n      lt\n      tag_80\n      jumpi\n      0x0100\n      dup1\n      dup4\n      sload\n      div\n      mul\n      dup4\n      mstore\n      swap2\n      0x20\n      add\n      swap2\n      jump(tag_79)\n    tag_80:\n      dup3\n      add\n      swap2\n      swap1\n      0x00\n      mstore\n      keccak256(0x00, 0x20)\n      swap1\n    tag_81:\n      dup2\n      sload\n      dup2\n      mstore\n      swap1\n      0x01\n      add\n      swap1\n      0x20\n      add\n      dup1\n      dup4\n      gt\n      tag_81\n      jumpi\n      dup3\n      swap1\n      sub\n      0x1f\n      and\n      dup3\n      add\n      swap2\n    tag_79:\n      pop\n      pop\n      pop\n      pop\n      pop\n      dup2\n      jump\t// out\n        /* \"contracts/6_CrowdfundingEjer2.sol\":2474:2895  function contribuir() external enEstado(Estado.Recaudando) payable {\r... */\n    tag_53:\n        /* \"contracts/6_CrowdfundingEjer2.sol\":2514:2531  Estado.Recaudando */\n      0x00\n        /* \"contracts/6_CrowdfundingEjer2.sol\":1769:1776  _estado */\n      dup1\n        /* \"contracts/6_CrowdfundingEjer2.sol\":1759:1776  estado == _estado */\n      0x02\n      dup2\n      gt\n      iszero\n      tag_83\n      jumpi\n      invalid\n    tag_83:\n        /* \"contracts/6_CrowdfundingEjer2.sol\":1759:1765  estado */\n      0x07\n      0x00\n      swap1\n      sload\n      swap1\n      0x0100\n      exp\n      swap1\n      div\n      0xff\n      and\n        /* \"contracts/6_CrowdfundingEjer2.sol\":1759:1776  estado == _estado */\n      0x02\n      dup2\n      gt\n      iszero\n      tag_84\n      jumpi\n      invalid\n    tag_84:\n      eq\n        /* \"contracts/6_CrowdfundingEjer2.sol\":1751:1777  require(estado == _estado) */\n      tag_85\n      jumpi\n      0x00\n      dup1\n      revert\n    tag_85:\n        /* \"contracts/6_CrowdfundingEjer2.sol\":2580:2587  artista */\n      0x00\n      dup1\n      sload\n      swap1\n      0x0100\n      exp\n      swap1\n      div\n      0xffffffffffffffffffffffffffffffffffffffff\n      and\n        /* \"contracts/6_CrowdfundingEjer2.sol\":2566:2587  msg.sender != artista */\n      0xffffffffffffffffffffffffffffffffffffffff\n      and\n        /* \"contracts/6_CrowdfundingEjer2.sol\":2566:2576  msg.sender */\n      caller\n        /* \"contracts/6_CrowdfundingEjer2.sol\":2566:2587  msg.sender != artista */\n      0xffffffffffffffffffffffffffffffffffffffff\n      and\n      eq\n      iszero\n        /* \"contracts/6_CrowdfundingEjer2.sol\":2558:2588  require(msg.sender != artista) */\n      tag_87\n      jumpi\n      0x00\n      dup1\n      revert\n    tag_87:\n        /* \"contracts/6_CrowdfundingEjer2.sol\":2639:2685  direcciones_mecenas[msg.sender].add(msg.value) */\n      tag_88\n        /* \"contracts/6_CrowdfundingEjer2.sol\":2675:2684  msg.value */\n      callvalue\n        /* \"contracts/6_CrowdfundingEjer2.sol\":2639:2658  direcciones_mecenas */\n      0x08\n        /* \"contracts/6_CrowdfundingEjer2.sol\":2639:2670  direcciones_mecenas[msg.sender] */\n      0x00\n        /* \"contracts/6_CrowdfundingEjer2.sol\":2659:2669  msg.sender */\n      caller\n        /* \"contracts/6_CrowdfundingEjer2.sol\":2639:2670  direcciones_mecenas[msg.sender] */\n      0xffffffffffffffffffffffffffffffffffffffff\n      and\n      0xffffffffffffffffffffffffffffffffffffffff\n      and\n      dup2\n      mstore\n      0x20\n      add\n      swap1\n      dup2\n      mstore\n      0x20\n      add\n      0x00\n      keccak256\n      sload\n        /* \"contracts/6_CrowdfundingEjer2.sol\":2639:2674  direcciones_mecenas[msg.sender].add */\n      tag_89\n      swap1\n        /* \"contracts/6_CrowdfundingEjer2.sol\":2639:2685  direcciones_mecenas[msg.sender].add(msg.value) */\n      swap2\n      swap1\n      0xffffffff\n      and\n      jump\t// in\n    tag_88:\n        /* \"contracts/6_CrowdfundingEjer2.sol\":2605:2624  direcciones_mecenas */\n      0x08\n        /* \"contracts/6_CrowdfundingEjer2.sol\":2605:2636  direcciones_mecenas[msg.sender] */\n      0x00\n        /* \"contracts/6_CrowdfundingEjer2.sol\":2625:2635  msg.sender */\n      caller\n        /* \"contracts/6_CrowdfundingEjer2.sol\":2605:2636  direcciones_mecenas[msg.sender] */\n      0xffffffffffffffffffffffffffffffffffffffff\n      and\n      0xffffffffffffffffffffffffffffffffffffffff\n      and\n      dup2\n      mstore\n      0x20\n      add\n      swap1\n      dup2\n      mstore\n      0x20\n      add\n      0x00\n      keccak256\n        /* \"contracts/6_CrowdfundingEjer2.sol\":2605:2685  direcciones_mecenas[msg.sender] = direcciones_mecenas[msg.sender].add(msg.value) */\n      dup2\n      swap1\n      sstore\n      pop\n        /* \"contracts/6_CrowdfundingEjer2.sol\":2718:2746  balanceActual.add(msg.value) */\n      tag_90\n        /* \"contracts/6_CrowdfundingEjer2.sol\":2736:2745  msg.value */\n      callvalue\n        /* \"contracts/6_CrowdfundingEjer2.sol\":2718:2731  balanceActual */\n      sload(0x03)\n        /* \"contracts/6_CrowdfundingEjer2.sol\":2718:2735  balanceActual.add */\n      tag_89\n      swap1\n        /* \"contracts/6_CrowdfundingEjer2.sol\":2718:2746  balanceActual.add(msg.value) */\n      swap2\n      swap1\n      0xffffffff\n      and\n      jump\t// in\n    tag_90:\n        /* \"contracts/6_CrowdfundingEjer2.sol\":2702:2715  balanceActual */\n      0x03\n        /* \"contracts/6_CrowdfundingEjer2.sol\":2702:2746  balanceActual = balanceActual.add(msg.value) */\n      dup2\n      swap1\n      sstore\n      pop\n        /* \"contracts/6_CrowdfundingEjer2.sol\":2768:2821  FondosRecibidos(msg.sender, msg.value, balanceActual) */\n      0x3bc9ac65de6b1cb77c2cc72ca9bb3b9b4dec13c6502014e3057bab56515be6b2\n        /* \"contracts/6_CrowdfundingEjer2.sol\":2784:2794  msg.sender */\n      caller\n        /* \"contracts/6_CrowdfundingEjer2.sol\":2796:2805  msg.value */\n      callvalue\n        /* \"contracts/6_CrowdfundingEjer2.sol\":2807:2820  balanceActual */\n      sload(0x03)\n        /* \"contracts/6_CrowdfundingEjer2.sol\":2768:2821  FondosRecibidos(msg.sender, msg.value, balanceActual) */\n      mload(0x40)\n      dup1\n      dup5\n      0xffffffffffffffffffffffffffffffffffffffff\n      and\n      dup2\n      mstore\n      0x20\n      add\n      dup4\n      dup2\n      mstore\n      0x20\n      add\n      dup3\n      dup2\n      mstore\n      0x20\n      add\n      swap4\n      pop\n      pop\n      pop\n      pop\n      mload(0x40)\n      dup1\n      swap2\n      sub\n      swap1\n      log1\n        /* \"contracts/6_CrowdfundingEjer2.sol\":2838:2881  comprobarSiRecaudacionCompletadaOExpirada() */\n      tag_91\n        /* \"contracts/6_CrowdfundingEjer2.sol\":2838:2879  comprobarSiRecaudacionCompletadaOExpirada */\n      tag_65\n        /* \"contracts/6_CrowdfundingEjer2.sol\":2838:2881  comprobarSiRecaudacionCompletadaOExpirada() */\n      jump\t// in\n    tag_91:\n        /* \"contracts/6_CrowdfundingEjer2.sol\":2474:2895  function contribuir() external enEstado(Estado.Recaudando) payable {\r... */\n      pop\n      jump\t// out\n        /* \"contracts/6_CrowdfundingEjer2.sol\":1084:1104  uint public objetivo */\n    tag_56:\n      sload(0x01)\n      dup2\n      jump\t// out\n        /* \"contracts/6_CrowdfundingEjer2.sol\":1153:1181  uint256 public balanceActual */\n    tag_59:\n      sload(0x03)\n      dup2\n      jump\t// out\n        /* \"contracts/6_CrowdfundingEjer2.sol\":1019:1049  address payable public artista */\n    tag_62:\n      0x00\n      dup1\n      sload\n      swap1\n      0x0100\n      exp\n      swap1\n      div\n      0xffffffffffffffffffffffffffffffffffffffff\n      and\n      dup2\n      jump\t// out\n        /* \"contracts/6_CrowdfundingEjer2.sol\":2907:3250  function comprobarSiRecaudacionCompletadaOExpirada() public {\r... */\n    tag_65:\n        /* \"contracts/6_CrowdfundingEjer2.sol\":3005:3013  objetivo */\n      sload(0x01)\n        /* \"contracts/6_CrowdfundingEjer2.sol\":2988:3001  balanceActual */\n      sload(0x03)\n        /* \"contracts/6_CrowdfundingEjer2.sol\":2988:3013  balanceActual >= objetivo */\n      lt\n        /* \"contracts/6_CrowdfundingEjer2.sol\":2984:3199  if (balanceActual >= objetivo) {\r... */\n      tag_93\n      jumpi\n        /* \"contracts/6_CrowdfundingEjer2.sol\":3045:3059  Estado.Exitoso */\n      0x02\n        /* \"contracts/6_CrowdfundingEjer2.sol\":3036:3042  estado */\n      0x07\n      0x00\n        /* \"contracts/6_CrowdfundingEjer2.sol\":3036:3059  estado = Estado.Exitoso */\n      0x0100\n      exp\n      dup2\n      sload\n      dup2\n      0xff\n      mul\n      not\n      and\n      swap1\n      dup4\n      0x02\n      dup2\n      gt\n      iszero\n      tag_94\n      jumpi\n      invalid\n    tag_94:\n      mul\n      or\n      swap1\n      sstore\n      pop\n        /* \"contracts/6_CrowdfundingEjer2.sol\":3080:3088  payOut() */\n      tag_95\n        /* \"contracts/6_CrowdfundingEjer2.sol\":3080:3086  payOut */\n      tag_96\n        /* \"contracts/6_CrowdfundingEjer2.sol\":3080:3088  payOut() */\n      jump\t// in\n    tag_95:\n      pop\n        /* \"contracts/6_CrowdfundingEjer2.sol\":2984:3199  if (balanceActual >= objetivo) {\r... */\n      jump(tag_97)\n    tag_93:\n        /* \"contracts/6_CrowdfundingEjer2.sol\":3122:3133  fechaLimite */\n      sload(0x04)\n        /* \"contracts/6_CrowdfundingEjer2.sol\":3116:3119  now */\n      timestamp\n        /* \"contracts/6_CrowdfundingEjer2.sol\":3116:3133  now > fechaLimite */\n      gt\n        /* \"contracts/6_CrowdfundingEjer2.sol\":3112:3199  if (now > fechaLimite)  {\r... */\n      iszero\n      tag_98\n      jumpi\n        /* \"contracts/6_CrowdfundingEjer2.sol\":3166:3181  Estado.Expirado */\n      0x01\n        /* \"contracts/6_CrowdfundingEjer2.sol\":3157:3163  estado */\n      0x07\n      0x00\n        /* \"contracts/6_CrowdfundingEjer2.sol\":3157:3181  estado = Estado.Expirado */\n      0x0100\n      exp\n      dup2\n      sload\n      dup2\n      0xff\n      mul\n      not\n      and\n      swap1\n      dup4\n      0x02\n      dup2\n      gt\n      iszero\n      tag_99\n      jumpi\n      invalid\n    tag_99:\n      mul\n      or\n      swap1\n      sstore\n      pop\n        /* \"contracts/6_CrowdfundingEjer2.sol\":3112:3199  if (now > fechaLimite)  {\r... */\n    tag_98:\n        /* \"contracts/6_CrowdfundingEjer2.sol\":2984:3199  if (balanceActual >= objetivo) {\r... */\n    tag_97:\n        /* \"contracts/6_CrowdfundingEjer2.sol\":3233:3236  now */\n      timestamp\n        /* \"contracts/6_CrowdfundingEjer2.sol\":3215:3230  fechaCompletado */\n      0x02\n        /* \"contracts/6_CrowdfundingEjer2.sol\":3215:3236  fechaCompletado = now */\n      dup2\n      swap1\n      sstore\n      pop\n        /* \"contracts/6_CrowdfundingEjer2.sol\":2907:3250  function comprobarSiRecaudacionCompletadaOExpirada() public {\r... */\n      jump\t// out\n        /* \"contracts/6_CrowdfundingEjer2.sol\":1115:1142  uint public fechaCompletado */\n    tag_68:\n      sload(0x02)\n      dup2\n      jump\t// out\n        /* \"@openzeppelin/contracts-ethereum-package/contracts/math/SafeMath.sol\":834:1010  function add(uint256 a, uint256 b) internal pure returns (uint256) {... */\n    tag_89:\n        /* \"@openzeppelin/contracts-ethereum-package/contracts/math/SafeMath.sol\":892:899  uint256 */\n      0x00\n        /* \"@openzeppelin/contracts-ethereum-package/contracts/math/SafeMath.sol\":911:920  uint256 c */\n      dup1\n        /* \"@openzeppelin/contracts-ethereum-package/contracts/math/SafeMath.sol\":927:928  b */\n      dup3\n        /* \"@openzeppelin/contracts-ethereum-package/contracts/math/SafeMath.sol\":923:924  a */\n      dup5\n        /* \"@openzeppelin/contracts-ethereum-package/contracts/math/SafeMath.sol\":923:928  a + b */\n      add\n        /* \"@openzeppelin/contracts-ethereum-package/contracts/math/SafeMath.sol\":911:928  uint256 c = a + b */\n      swap1\n      pop\n        /* \"@openzeppelin/contracts-ethereum-package/contracts/math/SafeMath.sol\":951:952  a */\n      dup4\n        /* \"@openzeppelin/contracts-ethereum-package/contracts/math/SafeMath.sol\":946:947  c */\n      dup2\n        /* \"@openzeppelin/contracts-ethereum-package/contracts/math/SafeMath.sol\":946:952  c >= a */\n      lt\n      iszero\n        /* \"@openzeppelin/contracts-ethereum-package/contracts/math/SafeMath.sol\":938:984  require(c >= a, \"SafeMath: addition overflow\") */\n      tag_101\n      jumpi\n      mload(0x40)\n      0x08c379a000000000000000000000000000000000000000000000000000000000\n      dup2\n      mstore\n      0x04\n      add\n      dup1\n      dup1\n      0x20\n      add\n      dup3\n      dup2\n      sub\n      dup3\n      mstore\n      0x1b\n      dup2\n      mstore\n      0x20\n      add\n      dup1\n      0x536166654d6174683a206164646974696f6e206f766572666c6f770000000000\n      dup2\n      mstore\n      pop\n      0x20\n      add\n      swap2\n      pop\n      pop\n      mload(0x40)\n      dup1\n      swap2\n      sub\n      swap1\n      revert\n    tag_101:\n        /* \"@openzeppelin/contracts-ethereum-package/contracts/math/SafeMath.sol\":1002:1003  c */\n      dup1\n        /* \"@openzeppelin/contracts-ethereum-package/contracts/math/SafeMath.sol\":995:1003  return c */\n      swap2\n      pop\n      pop\n        /* \"@openzeppelin/contracts-ethereum-package/contracts/math/SafeMath.sol\":834:1010  function add(uint256 a, uint256 b) internal pure returns (uint256) {... */\n      swap3\n      swap2\n      pop\n      pop\n      jump\t// out\n        /* \"contracts/6_CrowdfundingEjer2.sol\":3262:3746  function payOut() internal enEstado(Estado.Exitoso) returns (bool) {\r... */\n    tag_96:\n        /* \"contracts/6_CrowdfundingEjer2.sol\":3323:3327  bool */\n      0x00\n        /* \"contracts/6_CrowdfundingEjer2.sol\":3298:3312  Estado.Exitoso */\n      0x02\n        /* \"contracts/6_CrowdfundingEjer2.sol\":1769:1776  _estado */\n      dup1\n        /* \"contracts/6_CrowdfundingEjer2.sol\":1759:1776  estado == _estado */\n      0x02\n      dup2\n      gt\n      iszero\n      tag_103\n      jumpi\n      invalid\n    tag_103:\n        /* \"contracts/6_CrowdfundingEjer2.sol\":1759:1765  estado */\n      0x07\n      0x00\n      swap1\n      sload\n      swap1\n      0x0100\n      exp\n      swap1\n      div\n      0xff\n      and\n        /* \"contracts/6_CrowdfundingEjer2.sol\":1759:1776  estado == _estado */\n      0x02\n      dup2\n      gt\n      iszero\n      tag_104\n      jumpi\n      invalid\n    tag_104:\n      eq\n        /* \"contracts/6_CrowdfundingEjer2.sol\":1751:1777  require(estado == _estado) */\n      tag_105\n      jumpi\n      0x00\n      dup1\n      revert\n    tag_105:\n        /* \"contracts/6_CrowdfundingEjer2.sol\":3346:3368  uint256 totalRecaudado */\n      0x00\n        /* \"contracts/6_CrowdfundingEjer2.sol\":3371:3384  balanceActual */\n      sload(0x03)\n        /* \"contracts/6_CrowdfundingEjer2.sol\":3346:3384  uint256 totalRecaudado = balanceActual */\n      swap1\n      pop\n        /* \"contracts/6_CrowdfundingEjer2.sol\":3417:3418  0 */\n      0x00\n        /* \"contracts/6_CrowdfundingEjer2.sol\":3401:3414  balanceActual */\n      0x03\n        /* \"contracts/6_CrowdfundingEjer2.sol\":3401:3418  balanceActual = 0 */\n      dup2\n      swap1\n      sstore\n      pop\n        /* \"contracts/6_CrowdfundingEjer2.sol\":3439:3446  artista */\n      0x00\n      dup1\n      sload\n      swap1\n      0x0100\n      exp\n      swap1\n      div\n      0xffffffffffffffffffffffffffffffffffffffff\n      and\n        /* \"contracts/6_CrowdfundingEjer2.sol\":3439:3451  artista.send */\n      0xffffffffffffffffffffffffffffffffffffffff\n      and\n        /* \"contracts/6_CrowdfundingEjer2.sol\":3439:3467  artista.send(totalRecaudado) */\n      0x08fc\n        /* \"contracts/6_CrowdfundingEjer2.sol\":3452:3466  totalRecaudado */\n      dup3\n        /* \"contracts/6_CrowdfundingEjer2.sol\":3439:3467  artista.send(totalRecaudado) */\n      swap1\n      dup2\n      iszero\n      mul\n      swap1\n      mload(0x40)\n      0x00\n      mload(0x40)\n      dup1\n      dup4\n      sub\n      dup2\n      dup6\n      dup9\n      dup9\n      call\n      swap4\n      pop\n      pop\n      pop\n      pop\n        /* \"contracts/6_CrowdfundingEjer2.sol\":3435:3706  if (artista.send(totalRecaudado)) {\r... */\n      iszero\n      tag_108\n      jumpi\n        /* \"contracts/6_CrowdfundingEjer2.sol\":3499:3521  ArtistaPagado(artista) */\n      0xdea1361b6afde9d7f71da61d66ab9e8459af4ceeab8a266b56eb756ee78282ea\n        /* \"contracts/6_CrowdfundingEjer2.sol\":3513:3520  artista */\n      0x00\n      dup1\n      sload\n      swap1\n      0x0100\n      exp\n      swap1\n      div\n      0xffffffffffffffffffffffffffffffffffffffff\n      and\n        /* \"contracts/6_CrowdfundingEjer2.sol\":3499:3521  ArtistaPagado(artista) */\n      mload(0x40)\n      dup1\n      dup3\n      0xffffffffffffffffffffffffffffffffffffffff\n      and\n      dup2\n      mstore\n      0x20\n      add\n      swap2\n      pop\n      pop\n      mload(0x40)\n      dup1\n      swap2\n      sub\n      swap1\n      log1\n        /* \"contracts/6_CrowdfundingEjer2.sol\":3553:3557  true */\n      0x01\n        /* \"contracts/6_CrowdfundingEjer2.sol\":3546:3557  return true */\n      swap3\n      pop\n      pop\n      jump(tag_106)\n        /* \"contracts/6_CrowdfundingEjer2.sol\":3435:3706  if (artista.send(totalRecaudado)) {\r... */\n    tag_108:\n        /* \"contracts/6_CrowdfundingEjer2.sol\":3626:3640  totalRecaudado */\n      dup1\n        /* \"contracts/6_CrowdfundingEjer2.sol\":3610:3623  balanceActual */\n      0x03\n        /* \"contracts/6_CrowdfundingEjer2.sol\":3610:3640  balanceActual = totalRecaudado */\n      dup2\n      swap1\n      sstore\n      pop\n        /* \"contracts/6_CrowdfundingEjer2.sol\":3674:3688  Estado.Exitoso */\n      0x02\n        /* \"contracts/6_CrowdfundingEjer2.sol\":3665:3671  estado */\n      0x07\n      0x00\n        /* \"contracts/6_CrowdfundingEjer2.sol\":3665:3688  estado = Estado.Exitoso */\n      0x0100\n      exp\n      dup2\n      sload\n      dup2\n      0xff\n      mul\n      not\n      and\n      swap1\n      dup4\n      0x02\n      dup2\n      gt\n      iszero\n      tag_110\n      jumpi\n      invalid\n    tag_110:\n      mul\n      or\n      swap1\n      sstore\n      pop\n        /* \"contracts/6_CrowdfundingEjer2.sol\":3729:3734  false */\n      0x00\n        /* \"contracts/6_CrowdfundingEjer2.sol\":3722:3734  return false */\n      swap3\n      pop\n      pop\n        /* \"contracts/6_CrowdfundingEjer2.sol\":1792:1793  _ */\n    tag_106:\n        /* \"contracts/6_CrowdfundingEjer2.sol\":3262:3746  function payOut() internal enEstado(Estado.Exitoso) returns (bool) {\r... */\n      pop\n      swap1\n      jump\t// out\n\n    auxdata: 0xa2646970667358221220ab7ca67ea4f350bf53a5a08b1f70bc14e9669905b27982d4d3de87df803d2d3d64736f6c634300060c0033\n}\n",
				"bytecode": {
					"linkReferences": {},
					"object": "60806040526000600760006101000a81548160ff021916908360028111156200002457fe5b02179055503480156200003657600080fd5b5060405162000f5238038062000f52833981810160405260a08110156200005c57600080fd5b8101908080519060200190929190805160405193929190846401000000008211156200008757600080fd5b838201915060208201858111156200009e57600080fd5b8251866001820283011164010000000082111715620000bc57600080fd5b8083526020830192505050908051906020019080838360005b83811015620000f2578082015181840152602081019050620000d5565b50505050905090810190601f168015620001205780820380516001836020036101000a031916815260200191505b50604052602001805160405193929190846401000000008211156200014457600080fd5b838201915060208201858111156200015b57600080fd5b82518660018202830111640100000000821117156200017957600080fd5b8083526020830192505050908051906020019080838360005b83811015620001af57808201518184015260208101905062000192565b50505050905090810190601f168015620001dd5780820380516001836020036101000a031916815260200191505b506040526020018051906020019092919080519060200190929190505050846000806101000a81548173ffffffffffffffffffffffffffffffffffffffff021916908373ffffffffffffffffffffffffffffffffffffffff1602179055508360059080519060200190620002539291906200028e565b5082600690805190602001906200026c9291906200028e565b5080600181905550816004819055506000600381905550505050505062000334565b828054600181600116156101000203166002900490600052602060002090601f016020900481019282601f10620002d157805160ff191683800117855562000302565b8280016001018555821562000302579182015b8281111562000301578251825591602001919060010190620002e4565b5b50905062000311919062000315565b5090565b5b808211156200033057600081600090555060010162000316565b5090565b610c0e80620003446000396000f3fe6080604052600436106100a75760003560e01c8063799000b111610064578063799000b1146103d2578063a8dc86f7146103dc578063c053a99c14610407578063d925dbbe14610432578063e97232cb14610473578063f8ae774d1461048a576100a7565b80630f2a397a146100ac57806314137912146100d7578063391b1ab01461013c57806356fb71e5146101cc578063688e34671461030c5780636c83420b14610342575b600080fd5b3480156100b857600080fd5b506100c16104b5565b6040518082815260200191505060405180910390f35b3480156100e357600080fd5b50610126600480360360208110156100fa57600080fd5b81019080803573ffffffffffffffffffffffffffffffffffffffff1690602001909291905050506104bb565b6040518082815260200191505060405180910390f35b34801561014857600080fd5b506101516104d3565b6040518080602001828103825283818151815260200191508051906020019080838360005b83811015610191578082015181840152602081019050610176565b50505050905090810190601f1680156101be5780820380516001836020036101000a031916815260200191505b509250505060405180910390f35b3480156101d857600080fd5b506101e1610571565b604051808873ffffffffffffffffffffffffffffffffffffffff168152602001806020018060200187815260200186600281111561021b57fe5b8152602001858152602001848152602001838103835289818151815260200191508051906020019080838360005b83811015610264578082015181840152602081019050610249565b50505050905090810190601f1680156102915780820380516001836020036101000a031916815260200191505b50838103825288818151815260200191508051906020019080838360005b838110156102ca5780820151818401526020810190506102af565b50505050905090810190601f1680156102f75780820380516001836020036101000a031916815260200191505b50995050505050505050505060405180910390f35b34801561031857600080fd5b50610321610703565b6040518082600281111561033157fe5b815260200191505060405180910390f35b34801561034e57600080fd5b50610357610716565b6040518080602001828103825283818151815260200191508051906020019080838360005b8381101561039757808201518184015260208101905061037c565b50505050905090810190601f1680156103c45780820380516001836020036101000a031916815260200191505b509250505060405180910390f35b6103da6107b4565b005b3480156103e857600080fd5b506103f161095a565b6040518082815260200191505060405180910390f35b34801561041357600080fd5b5061041c610960565b6040518082815260200191505060405180910390f35b34801561043e57600080fd5b50610447610966565b604051808273ffffffffffffffffffffffffffffffffffffffff16815260200191505060405180910390f35b34801561047f57600080fd5b5061048861098a565b005b34801561049657600080fd5b5061049f610a00565b6040518082815260200191505060405180910390f35b60045481565b60086020528060005260406000206000915090505481565b60058054600181600116156101000203166002900480601f0160208091040260200160405190810160405280929190818152602001828054600181600116156101000203166002900480156105695780601f1061053e57610100808354040283529160200191610569565b820191906000526020600020905b81548152906001019060200180831161054c57829003601f168201915b505050505081565b600060608060008060008060008054906101000a900473ffffffffffffffffffffffffffffffffffffffff16965060058054600181600116156101000203166002900480601f0160208091040260200160405190810160405280929190818152602001828054600181600116156101000203166002900480156106355780601f1061060a57610100808354040283529160200191610635565b820191906000526020600020905b81548152906001019060200180831161061857829003601f168201915b5050505050955060068054600181600116156101000203166002900480601f0160208091040260200160405190810160405280929190818152602001828054600181600116156101000203166002900480156106d25780601f106106a7576101008083540402835291602001916106d2565b820191906000526020600020905b8154815290600101906020018083116106b557829003601f168201915b505050505094506004549350600760009054906101000a900460ff1692506003549150600154905090919293949596565b600760009054906101000a900460ff1681565b60068054600181600116156101000203166002900480601f0160208091040260200160405190810160405280929190818152602001828054600181600116156101000203166002900480156107ac5780601f10610781576101008083540402835291602001916107ac565b820191906000526020600020905b81548152906001019060200180831161078f57829003601f168201915b505050505081565b60008060028111156107c257fe5b600760009054906101000a900460ff1660028111156107dd57fe5b146107e757600080fd5b60008054906101000a900473ffffffffffffffffffffffffffffffffffffffff1673ffffffffffffffffffffffffffffffffffffffff163373ffffffffffffffffffffffffffffffffffffffff16141561084057600080fd5b61089234600860003373ffffffffffffffffffffffffffffffffffffffff1673ffffffffffffffffffffffffffffffffffffffff16815260200190815260200160002054610a0690919063ffffffff16565b600860003373ffffffffffffffffffffffffffffffffffffffff1673ffffffffffffffffffffffffffffffffffffffff168152602001908152602001600020819055506108ea34600354610a0690919063ffffffff16565b6003819055507f3bc9ac65de6b1cb77c2cc72ca9bb3b9b4dec13c6502014e3057bab56515be6b23334600354604051808473ffffffffffffffffffffffffffffffffffffffff168152602001838152602001828152602001935050505060405180910390a161095761098a565b50565b60015481565b60035481565b60008054906101000a900473ffffffffffffffffffffffffffffffffffffffff1681565b600154600354106109c7576002600760006101000a81548160ff021916908360028111156109b457fe5b02179055506109c1610a8e565b506109f7565b6004544211156109f6576001600760006101000a81548160ff021916908360028111156109f057fe5b02179055505b5b42600281905550565b60025481565b600080828401905083811015610a84576040517f08c379a000000000000000000000000000000000000000000000000000000000815260040180806020018281038252601b8152602001807f536166654d6174683a206164646974696f6e206f766572666c6f77000000000081525060200191505060405180910390fd5b8091505092915050565b60006002806002811115610a9e57fe5b600760009054906101000a900460ff166002811115610ab957fe5b14610ac357600080fd5b60006003549050600060038190555060008054906101000a900473ffffffffffffffffffffffffffffffffffffffff1673ffffffffffffffffffffffffffffffffffffffff166108fc829081150290604051600060405180830381858888f1935050505015610ba3577fdea1361b6afde9d7f71da61d66ab9e8459af4ceeab8a266b56eb756ee78282ea60008054906101000a900473ffffffffffffffffffffffffffffffffffffffff16604051808273ffffffffffffffffffffffffffffffffffffffff16815260200191505060405180910390a16001925050610bd4565b806003819055506002600760006101000a81548160ff02191690836002811115610bc957fe5b021790555060009250505b509056fea2646970667358221220ab7ca67ea4f350bf53a5a08b1f70bc14e9669905b27982d4d3de87df803d2d3d64736f6c634300060c0033",
					"opcodes": "PUSH1 0x80 PUSH1 0x40 MSTORE PUSH1 0x0 PUSH1 0x7 PUSH1 0x0 PUSH2 0x100 EXP DUP2 SLOAD DUP2 PUSH1 0xFF MUL NOT AND SWAP1 DUP4 PUSH1 0x2 DUP2 GT ISZERO PUSH3 0x24 JUMPI INVALID JUMPDEST MUL OR SWAP1 SSTORE POP CALLVALUE DUP1 ISZERO PUSH3 0x36 JUMPI PUSH1 0x0 DUP1 REVERT JUMPDEST POP PUSH1 0x40 MLOAD PUSH3 0xF52 CODESIZE SUB DUP1 PUSH3 0xF52 DUP4 CODECOPY DUP2 DUP2 ADD PUSH1 0x40 MSTORE PUSH1 0xA0 DUP2 LT ISZERO PUSH3 0x5C JUMPI PUSH1 0x0 DUP1 REVERT JUMPDEST DUP2 ADD SWAP1 DUP1 DUP1 MLOAD SWAP1 PUSH1 0x20 ADD SWAP1 SWAP3 SWAP2 SWAP1 DUP1 MLOAD PUSH1 0x40 MLOAD SWAP4 SWAP3 SWAP2 SWAP1 DUP5 PUSH5 0x100000000 DUP3 GT ISZERO PUSH3 0x87 JUMPI PUSH1 0x0 DUP1 REVERT JUMPDEST DUP4 DUP3 ADD SWAP2 POP PUSH1 0x20 DUP3 ADD DUP6 DUP2 GT ISZERO PUSH3 0x9E JUMPI PUSH1 0x0 DUP1 REVERT JUMPDEST DUP3 MLOAD DUP7 PUSH1 0x1 DUP3 MUL DUP4 ADD GT PUSH5 0x100000000 DUP3 GT OR ISZERO PUSH3 0xBC JUMPI PUSH1 0x0 DUP1 REVERT JUMPDEST DUP1 DUP4 MSTORE PUSH1 0x20 DUP4 ADD SWAP3 POP POP POP SWAP1 DUP1 MLOAD SWAP1 PUSH1 0x20 ADD SWAP1 DUP1 DUP4 DUP4 PUSH1 0x0 JUMPDEST DUP4 DUP2 LT ISZERO PUSH3 0xF2 JUMPI DUP1 DUP3 ADD MLOAD DUP2 DUP5 ADD MSTORE PUSH1 0x20 DUP2 ADD SWAP1 POP PUSH3 0xD5 JUMP JUMPDEST POP POP POP POP SWAP1 POP SWAP1 DUP2 ADD SWAP1 PUSH1 0x1F AND DUP1 ISZERO PUSH3 0x120 JUMPI DUP1 DUP3 SUB DUP1 MLOAD PUSH1 0x1 DUP4 PUSH1 0x20 SUB PUSH2 0x100 EXP SUB NOT AND DUP2 MSTORE PUSH1 0x20 ADD SWAP2 POP JUMPDEST POP PUSH1 0x40 MSTORE PUSH1 0x20 ADD DUP1 MLOAD PUSH1 0x40 MLOAD SWAP4 SWAP3 SWAP2 SWAP1 DUP5 PUSH5 0x100000000 DUP3 GT ISZERO PUSH3 0x144 JUMPI PUSH1 0x0 DUP1 REVERT JUMPDEST DUP4 DUP3 ADD SWAP2 POP PUSH1 0x20 DUP3 ADD DUP6 DUP2 GT ISZERO PUSH3 0x15B JUMPI PUSH1 0x0 DUP1 REVERT JUMPDEST DUP3 MLOAD DUP7 PUSH1 0x1 DUP3 MUL DUP4 ADD GT PUSH5 0x100000000 DUP3 GT OR ISZERO PUSH3 0x179 JUMPI PUSH1 0x0 DUP1 REVERT JUMPDEST DUP1 DUP4 MSTORE PUSH1 0x20 DUP4 ADD SWAP3 POP POP POP SWAP1 DUP1 MLOAD SWAP1 PUSH1 0x20 ADD SWAP1 DUP1 DUP4 DUP4 PUSH1 0x0 JUMPDEST DUP4 DUP2 LT ISZERO PUSH3 0x1AF JUMPI DUP1 DUP3 ADD MLOAD DUP2 DUP5 ADD MSTORE PUSH1 0x20 DUP2 ADD SWAP1 POP PUSH3 0x192 JUMP JUMPDEST POP POP POP POP SWAP1 POP SWAP1 DUP2 ADD SWAP1 PUSH1 0x1F AND DUP1 ISZERO PUSH3 0x1DD JUMPI DUP1 DUP3 SUB DUP1 MLOAD PUSH1 0x1 DUP4 PUSH1 0x20 SUB PUSH2 0x100 EXP SUB NOT AND DUP2 MSTORE PUSH1 0x20 ADD SWAP2 POP JUMPDEST POP PUSH1 0x40 MSTORE PUSH1 0x20 ADD DUP1 MLOAD SWAP1 PUSH1 0x20 ADD SWAP1 SWAP3 SWAP2 SWAP1 DUP1 MLOAD SWAP1 PUSH1 0x20 ADD SWAP1 SWAP3 SWAP2 SWAP1 POP POP POP DUP5 PUSH1 0x0 DUP1 PUSH2 0x100 EXP DUP2 SLOAD DUP2 PUSH20 0xFFFFFFFFFFFFFFFFFFFFFFFFFFFFFFFFFFFFFFFF MUL NOT AND SWAP1 DUP4 PUSH20 0xFFFFFFFFFFFFFFFFFFFFFFFFFFFFFFFFFFFFFFFF AND MUL OR SWAP1 SSTORE POP DUP4 PUSH1 0x5 SWAP1 DUP1 MLOAD SWAP1 PUSH1 0x20 ADD SWAP1 PUSH3 0x253 SWAP3 SWAP2 SWAP1 PUSH3 0x28E JUMP JUMPDEST POP DUP3 PUSH1 0x6 SWAP1 DUP1 MLOAD SWAP1 PUSH1 0x20 ADD SWAP1 PUSH3 0x26C SWAP3 SWAP2 SWAP1 PUSH3 0x28E JUMP JUMPDEST POP DUP1 PUSH1 0x1 DUP2 SWAP1 SSTORE POP DUP2 PUSH1 0x4 DUP2 SWAP1 SSTORE POP PUSH1 0x0 PUSH1 0x3 DUP2 SWAP1 SSTORE POP POP POP POP POP POP PUSH3 0x334 JUMP JUMPDEST DUP3 DUP1 SLOAD PUSH1 0x1 DUP2 PUSH1 0x1 AND ISZERO PUSH2 0x100 MUL SUB AND PUSH1 0x2 SWAP1 DIV SWAP1 PUSH1 0x0 MSTORE PUSH1 0x20 PUSH1 0x0 KECCAK256 SWAP1 PUSH1 0x1F ADD PUSH1 0x20 SWAP1 DIV DUP2 ADD SWAP3 DUP3 PUSH1 0x1F LT PUSH3 0x2D1 JUMPI DUP1 MLOAD PUSH1 0xFF NOT AND DUP4 DUP1 ADD OR DUP6 SSTORE PUSH3 0x302 JUMP JUMPDEST DUP3 DUP1 ADD PUSH1 0x1 ADD DUP6 SSTORE DUP3 ISZERO PUSH3 0x302 JUMPI SWAP2 DUP3 ADD JUMPDEST DUP3 DUP2 GT ISZERO PUSH3 0x301 JUMPI DUP3 MLOAD DUP3 SSTORE SWAP2 PUSH1 0x20 ADD SWAP2 SWAP1 PUSH1 0x1 ADD SWAP1 PUSH3 0x2E4 JUMP JUMPDEST JUMPDEST POP SWAP1 POP PUSH3 0x311 SWAP2 SWAP1 PUSH3 0x315 JUMP JUMPDEST POP SWAP1 JUMP JUMPDEST JUMPDEST DUP1 DUP3 GT ISZERO PUSH3 0x330 JUMPI PUSH1 0x0 DUP2 PUSH1 0x0 SWAP1 SSTORE POP PUSH1 0x1 ADD PUSH3 0x316 JUMP JUMPDEST POP SWAP1 JUMP JUMPDEST PUSH2 0xC0E DUP1 PUSH3 0x344 PUSH1 0x0 CODECOPY PUSH1 0x0 RETURN INVALID PUSH1 0x80 PUSH1 0x40 MSTORE PUSH1 0x4 CALLDATASIZE LT PUSH2 0xA7 JUMPI PUSH1 0x0 CALLDATALOAD PUSH1 0xE0 SHR DUP1 PUSH4 0x799000B1 GT PUSH2 0x64 JUMPI DUP1 PUSH4 0x799000B1 EQ PUSH2 0x3D2 JUMPI DUP1 PUSH4 0xA8DC86F7 EQ PUSH2 0x3DC JUMPI DUP1 PUSH4 0xC053A99C EQ PUSH2 0x407 JUMPI DUP1 PUSH4 0xD925DBBE EQ PUSH2 0x432 JUMPI DUP1 PUSH4 0xE97232CB EQ PUSH2 0x473 JUMPI DUP1 PUSH4 0xF8AE774D EQ PUSH2 0x48A JUMPI PUSH2 0xA7 JUMP JUMPDEST DUP1 PUSH4 0xF2A397A EQ PUSH2 0xAC JUMPI DUP1 PUSH4 0x14137912 EQ PUSH2 0xD7 JUMPI DUP1 PUSH4 0x391B1AB0 EQ PUSH2 0x13C JUMPI DUP1 PUSH4 0x56FB71E5 EQ PUSH2 0x1CC JUMPI DUP1 PUSH4 0x688E3467 EQ PUSH2 0x30C JUMPI DUP1 PUSH4 0x6C83420B EQ PUSH2 0x342 JUMPI JUMPDEST PUSH1 0x0 DUP1 REVERT JUMPDEST CALLVALUE DUP1 ISZERO PUSH2 0xB8 JUMPI PUSH1 0x0 DUP1 REVERT JUMPDEST POP PUSH2 0xC1 PUSH2 0x4B5 JUMP JUMPDEST PUSH1 0x40 MLOAD DUP1 DUP3 DUP2 MSTORE PUSH1 0x20 ADD SWAP2 POP POP PUSH1 0x40 MLOAD DUP1 SWAP2 SUB SWAP1 RETURN JUMPDEST CALLVALUE DUP1 ISZERO PUSH2 0xE3 JUMPI PUSH1 0x0 DUP1 REVERT JUMPDEST POP PUSH2 0x126 PUSH1 0x4 DUP1 CALLDATASIZE SUB PUSH1 0x20 DUP2 LT ISZERO PUSH2 0xFA JUMPI PUSH1 0x0 DUP1 REVERT JUMPDEST DUP2 ADD SWAP1 DUP1 DUP1 CALLDATALOAD PUSH20 0xFFFFFFFFFFFFFFFFFFFFFFFFFFFFFFFFFFFFFFFF AND SWAP1 PUSH1 0x20 ADD SWAP1 SWAP3 SWAP2 SWAP1 POP POP POP PUSH2 0x4BB JUMP JUMPDEST PUSH1 0x40 MLOAD DUP1 DUP3 DUP2 MSTORE PUSH1 0x20 ADD SWAP2 POP POP PUSH1 0x40 MLOAD DUP1 SWAP2 SUB SWAP1 RETURN JUMPDEST CALLVALUE DUP1 ISZERO PUSH2 0x148 JUMPI PUSH1 0x0 DUP1 REVERT JUMPDEST POP PUSH2 0x151 PUSH2 0x4D3 JUMP JUMPDEST PUSH1 0x40 MLOAD DUP1 DUP1 PUSH1 0x20 ADD DUP3 DUP2 SUB DUP3 MSTORE DUP4 DUP2 DUP2 MLOAD DUP2 MSTORE PUSH1 0x20 ADD SWAP2 POP DUP1 MLOAD SWAP1 PUSH1 0x20 ADD SWAP1 DUP1 DUP4 DUP4 PUSH1 0x0 JUMPDEST DUP4 DUP2 LT ISZERO PUSH2 0x191 JUMPI DUP1 DUP3 ADD MLOAD DUP2 DUP5 ADD MSTORE PUSH1 0x20 DUP2 ADD SWAP1 POP PUSH2 0x176 JUMP JUMPDEST POP POP POP POP SWAP1 POP SWAP1 DUP2 ADD SWAP1 PUSH1 0x1F AND DUP1 ISZERO PUSH2 0x1BE JUMPI DUP1 DUP3 SUB DUP1 MLOAD PUSH1 0x1 DUP4 PUSH1 0x20 SUB PUSH2 0x100 EXP SUB NOT AND DUP2 MSTORE PUSH1 0x20 ADD SWAP2 POP JUMPDEST POP SWAP3 POP POP POP PUSH1 0x40 MLOAD DUP1 SWAP2 SUB SWAP1 RETURN JUMPDEST CALLVALUE DUP1 ISZERO PUSH2 0x1D8 JUMPI PUSH1 0x0 DUP1 REVERT JUMPDEST POP PUSH2 0x1E1 PUSH2 0x571 JUMP JUMPDEST PUSH1 0x40 MLOAD DUP1 DUP9 PUSH20 0xFFFFFFFFFFFFFFFFFFFFFFFFFFFFFFFFFFFFFFFF AND DUP2 MSTORE PUSH1 0x20 ADD DUP1 PUSH1 0x20 ADD DUP1 PUSH1 0x20 ADD DUP8 DUP2 MSTORE PUSH1 0x20 ADD DUP7 PUSH1 0x2 DUP2 GT ISZERO PUSH2 0x21B JUMPI INVALID JUMPDEST DUP2 MSTORE PUSH1 0x20 ADD DUP6 DUP2 MSTORE PUSH1 0x20 ADD DUP5 DUP2 MSTORE PUSH1 0x20 ADD DUP4 DUP2 SUB DUP4 MSTORE DUP10 DUP2 DUP2 MLOAD DUP2 MSTORE PUSH1 0x20 ADD SWAP2 POP DUP1 MLOAD SWAP1 PUSH1 0x20 ADD SWAP1 DUP1 DUP4 DUP4 PUSH1 0x0 JUMPDEST DUP4 DUP2 LT ISZERO PUSH2 0x264 JUMPI DUP1 DUP3 ADD MLOAD DUP2 DUP5 ADD MSTORE PUSH1 0x20 DUP2 ADD SWAP1 POP PUSH2 0x249 JUMP JUMPDEST POP POP POP POP SWAP1 POP SWAP1 DUP2 ADD SWAP1 PUSH1 0x1F AND DUP1 ISZERO PUSH2 0x291 JUMPI DUP1 DUP3 SUB DUP1 MLOAD PUSH1 0x1 DUP4 PUSH1 0x20 SUB PUSH2 0x100 EXP SUB NOT AND DUP2 MSTORE PUSH1 0x20 ADD SWAP2 POP JUMPDEST POP DUP4 DUP2 SUB DUP3 MSTORE DUP9 DUP2 DUP2 MLOAD DUP2 MSTORE PUSH1 0x20 ADD SWAP2 POP DUP1 MLOAD SWAP1 PUSH1 0x20 ADD SWAP1 DUP1 DUP4 DUP4 PUSH1 0x0 JUMPDEST DUP4 DUP2 LT ISZERO PUSH2 0x2CA JUMPI DUP1 DUP3 ADD MLOAD DUP2 DUP5 ADD MSTORE PUSH1 0x20 DUP2 ADD SWAP1 POP PUSH2 0x2AF JUMP JUMPDEST POP POP POP POP SWAP1 POP SWAP1 DUP2 ADD SWAP1 PUSH1 0x1F AND DUP1 ISZERO PUSH2 0x2F7 JUMPI DUP1 DUP3 SUB DUP1 MLOAD PUSH1 0x1 DUP4 PUSH1 0x20 SUB PUSH2 0x100 EXP SUB NOT AND DUP2 MSTORE PUSH1 0x20 ADD SWAP2 POP JUMPDEST POP SWAP10 POP POP POP POP POP POP POP POP POP POP PUSH1 0x40 MLOAD DUP1 SWAP2 SUB SWAP1 RETURN JUMPDEST CALLVALUE DUP1 ISZERO PUSH2 0x318 JUMPI PUSH1 0x0 DUP1 REVERT JUMPDEST POP PUSH2 0x321 PUSH2 0x703 JUMP JUMPDEST PUSH1 0x40 MLOAD DUP1 DUP3 PUSH1 0x2 DUP2 GT ISZERO PUSH2 0x331 JUMPI INVALID JUMPDEST DUP2 MSTORE PUSH1 0x20 ADD SWAP2 POP POP PUSH1 0x40 MLOAD DUP1 SWAP2 SUB SWAP1 RETURN JUMPDEST CALLVALUE DUP1 ISZERO PUSH2 0x34E JUMPI PUSH1 0x0 DUP1 REVERT JUMPDEST POP PUSH2 0x357 PUSH2 0x716 JUMP JUMPDEST PUSH1 0x40 MLOAD DUP1 DUP1 PUSH1 0x20 ADD DUP3 DUP2 SUB DUP3 MSTORE DUP4 DUP2 DUP2 MLOAD DUP2 MSTORE PUSH1 0x20 ADD SWAP2 POP DUP1 MLOAD SWAP1 PUSH1 0x20 ADD SWAP1 DUP1 DUP4 DUP4 PUSH1 0x0 JUMPDEST DUP4 DUP2 LT ISZERO PUSH2 0x397 JUMPI DUP1 DUP3 ADD MLOAD DUP2 DUP5 ADD MSTORE PUSH1 0x20 DUP2 ADD SWAP1 POP PUSH2 0x37C JUMP JUMPDEST POP POP POP POP SWAP1 POP SWAP1 DUP2 ADD SWAP1 PUSH1 0x1F AND DUP1 ISZERO PUSH2 0x3C4 JUMPI DUP1 DUP3 SUB DUP1 MLOAD PUSH1 0x1 DUP4 PUSH1 0x20 SUB PUSH2 0x100 EXP SUB NOT AND DUP2 MSTORE PUSH1 0x20 ADD SWAP2 POP JUMPDEST POP SWAP3 POP POP POP PUSH1 0x40 MLOAD DUP1 SWAP2 SUB SWAP1 RETURN JUMPDEST PUSH2 0x3DA PUSH2 0x7B4 JUMP JUMPDEST STOP JUMPDEST CALLVALUE DUP1 ISZERO PUSH2 0x3E8 JUMPI PUSH1 0x0 DUP1 REVERT JUMPDEST POP PUSH2 0x3F1 PUSH2 0x95A JUMP JUMPDEST PUSH1 0x40 MLOAD DUP1 DUP3 DUP2 MSTORE PUSH1 0x20 ADD SWAP2 POP POP PUSH1 0x40 MLOAD DUP1 SWAP2 SUB SWAP1 RETURN JUMPDEST CALLVALUE DUP1 ISZERO PUSH2 0x413 JUMPI PUSH1 0x0 DUP1 REVERT JUMPDEST POP PUSH2 0x41C PUSH2 0x960 JUMP JUMPDEST PUSH1 0x40 MLOAD DUP1 DUP3 DUP2 MSTORE PUSH1 0x20 ADD SWAP2 POP POP PUSH1 0x40 MLOAD DUP1 SWAP2 SUB SWAP1 RETURN JUMPDEST CALLVALUE DUP1 ISZERO PUSH2 0x43E JUMPI PUSH1 0x0 DUP1 REVERT JUMPDEST POP PUSH2 0x447 PUSH2 0x966 JUMP JUMPDEST PUSH1 0x40 MLOAD DUP1 DUP3 PUSH20 0xFFFFFFFFFFFFFFFFFFFFFFFFFFFFFFFFFFFFFFFF AND DUP2 MSTORE PUSH1 0x20 ADD SWAP2 POP POP PUSH1 0x40 MLOAD DUP1 SWAP2 SUB SWAP1 RETURN JUMPDEST CALLVALUE DUP1 ISZERO PUSH2 0x47F JUMPI PUSH1 0x0 DUP1 REVERT JUMPDEST POP PUSH2 0x488 PUSH2 0x98A JUMP JUMPDEST STOP JUMPDEST CALLVALUE DUP1 ISZERO PUSH2 0x496 JUMPI PUSH1 0x0 DUP1 REVERT JUMPDEST POP PUSH2 0x49F PUSH2 0xA00 JUMP JUMPDEST PUSH1 0x40 MLOAD DUP1 DUP3 DUP2 MSTORE PUSH1 0x20 ADD SWAP2 POP POP PUSH1 0x40 MLOAD DUP1 SWAP2 SUB SWAP1 RETURN JUMPDEST PUSH1 0x4 SLOAD DUP2 JUMP JUMPDEST PUSH1 0x8 PUSH1 0x20 MSTORE DUP1 PUSH1 0x0 MSTORE PUSH1 0x40 PUSH1 0x0 KECCAK256 PUSH1 0x0 SWAP2 POP SWAP1 POP SLOAD DUP2 JUMP JUMPDEST PUSH1 0x5 DUP1 SLOAD PUSH1 0x1 DUP2 PUSH1 0x1 AND ISZERO PUSH2 0x100 MUL SUB AND PUSH1 0x2 SWAP1 DIV DUP1 PUSH1 0x1F ADD PUSH1 0x20 DUP1 SWAP2 DIV MUL PUSH1 0x20 ADD PUSH1 0x40 MLOAD SWAP1 DUP2 ADD PUSH1 0x40 MSTORE DUP1 SWAP3 SWAP2 SWAP1 DUP2 DUP2 MSTORE PUSH1 0x20 ADD DUP3 DUP1 SLOAD PUSH1 0x1 DUP2 PUSH1 0x1 AND ISZERO PUSH2 0x100 MUL SUB AND PUSH1 0x2 SWAP1 DIV DUP1 ISZERO PUSH2 0x569 JUMPI DUP1 PUSH1 0x1F LT PUSH2 0x53E JUMPI PUSH2 0x100 DUP1 DUP4 SLOAD DIV MUL DUP4 MSTORE SWAP2 PUSH1 0x20 ADD SWAP2 PUSH2 0x569 JUMP JUMPDEST DUP3 ADD SWAP2 SWAP1 PUSH1 0x0 MSTORE PUSH1 0x20 PUSH1 0x0 KECCAK256 SWAP1 JUMPDEST DUP2 SLOAD DUP2 MSTORE SWAP1 PUSH1 0x1 ADD SWAP1 PUSH1 0x20 ADD DUP1 DUP4 GT PUSH2 0x54C JUMPI DUP3 SWAP1 SUB PUSH1 0x1F AND DUP3 ADD SWAP2 JUMPDEST POP POP POP POP POP DUP2 JUMP JUMPDEST PUSH1 0x0 PUSH1 0x60 DUP1 PUSH1 0x0 DUP1 PUSH1 0x0 DUP1 PUSH1 0x0 DUP1 SLOAD SWAP1 PUSH2 0x100 EXP SWAP1 DIV PUSH20 0xFFFFFFFFFFFFFFFFFFFFFFFFFFFFFFFFFFFFFFFF AND SWAP7 POP PUSH1 0x5 DUP1 SLOAD PUSH1 0x1 DUP2 PUSH1 0x1 AND ISZERO PUSH2 0x100 MUL SUB AND PUSH1 0x2 SWAP1 DIV DUP1 PUSH1 0x1F ADD PUSH1 0x20 DUP1 SWAP2 DIV MUL PUSH1 0x20 ADD PUSH1 0x40 MLOAD SWAP1 DUP2 ADD PUSH1 0x40 MSTORE DUP1 SWAP3 SWAP2 SWAP1 DUP2 DUP2 MSTORE PUSH1 0x20 ADD DUP3 DUP1 SLOAD PUSH1 0x1 DUP2 PUSH1 0x1 AND ISZERO PUSH2 0x100 MUL SUB AND PUSH1 0x2 SWAP1 DIV DUP1 ISZERO PUSH2 0x635 JUMPI DUP1 PUSH1 0x1F LT PUSH2 0x60A JUMPI PUSH2 0x100 DUP1 DUP4 SLOAD DIV MUL DUP4 MSTORE SWAP2 PUSH1 0x20 ADD SWAP2 PUSH2 0x635 JUMP JUMPDEST DUP3 ADD SWAP2 SWAP1 PUSH1 0x0 MSTORE PUSH1 0x20 PUSH1 0x0 KECCAK256 SWAP1 JUMPDEST DUP2 SLOAD DUP2 MSTORE SWAP1 PUSH1 0x1 ADD SWAP1 PUSH1 0x20 ADD DUP1 DUP4 GT PUSH2 0x618 JUMPI DUP3 SWAP1 SUB PUSH1 0x1F AND DUP3 ADD SWAP2 JUMPDEST POP POP POP POP POP SWAP6 POP PUSH1 0x6 DUP1 SLOAD PUSH1 0x1 DUP2 PUSH1 0x1 AND ISZERO PUSH2 0x100 MUL SUB AND PUSH1 0x2 SWAP1 DIV DUP1 PUSH1 0x1F ADD PUSH1 0x20 DUP1 SWAP2 DIV MUL PUSH1 0x20 ADD PUSH1 0x40 MLOAD SWAP1 DUP2 ADD PUSH1 0x40 MSTORE DUP1 SWAP3 SWAP2 SWAP1 DUP2 DUP2 MSTORE PUSH1 0x20 ADD DUP3 DUP1 SLOAD PUSH1 0x1 DUP2 PUSH1 0x1 AND ISZERO PUSH2 0x100 MUL SUB AND PUSH1 0x2 SWAP1 DIV DUP1 ISZERO PUSH2 0x6D2 JUMPI DUP1 PUSH1 0x1F LT PUSH2 0x6A7 JUMPI PUSH2 0x100 DUP1 DUP4 SLOAD DIV MUL DUP4 MSTORE SWAP2 PUSH1 0x20 ADD SWAP2 PUSH2 0x6D2 JUMP JUMPDEST DUP3 ADD SWAP2 SWAP1 PUSH1 0x0 MSTORE PUSH1 0x20 PUSH1 0x0 KECCAK256 SWAP1 JUMPDEST DUP2 SLOAD DUP2 MSTORE SWAP1 PUSH1 0x1 ADD SWAP1 PUSH1 0x20 ADD DUP1 DUP4 GT PUSH2 0x6B5 JUMPI DUP3 SWAP1 SUB PUSH1 0x1F AND DUP3 ADD SWAP2 JUMPDEST POP POP POP POP POP SWAP5 POP PUSH1 0x4 SLOAD SWAP4 POP PUSH1 0x7 PUSH1 0x0 SWAP1 SLOAD SWAP1 PUSH2 0x100 EXP SWAP1 DIV PUSH1 0xFF AND SWAP3 POP PUSH1 0x3 SLOAD SWAP2 POP PUSH1 0x1 SLOAD SWAP1 POP SWAP1 SWAP2 SWAP3 SWAP4 SWAP5 SWAP6 SWAP7 JUMP JUMPDEST PUSH1 0x7 PUSH1 0x0 SWAP1 SLOAD SWAP1 PUSH2 0x100 EXP SWAP1 DIV PUSH1 0xFF AND DUP2 JUMP JUMPDEST PUSH1 0x6 DUP1 SLOAD PUSH1 0x1 DUP2 PUSH1 0x1 AND ISZERO PUSH2 0x100 MUL SUB AND PUSH1 0x2 SWAP1 DIV DUP1 PUSH1 0x1F ADD PUSH1 0x20 DUP1 SWAP2 DIV MUL PUSH1 0x20 ADD PUSH1 0x40 MLOAD SWAP1 DUP2 ADD PUSH1 0x40 MSTORE DUP1 SWAP3 SWAP2 SWAP1 DUP2 DUP2 MSTORE PUSH1 0x20 ADD DUP3 DUP1 SLOAD PUSH1 0x1 DUP2 PUSH1 0x1 AND ISZERO PUSH2 0x100 MUL SUB AND PUSH1 0x2 SWAP1 DIV DUP1 ISZERO PUSH2 0x7AC JUMPI DUP1 PUSH1 0x1F LT PUSH2 0x781 JUMPI PUSH2 0x100 DUP1 DUP4 SLOAD DIV MUL DUP4 MSTORE SWAP2 PUSH1 0x20 ADD SWAP2 PUSH2 0x7AC JUMP JUMPDEST DUP3 ADD SWAP2 SWAP1 PUSH1 0x0 MSTORE PUSH1 0x20 PUSH1 0x0 KECCAK256 SWAP1 JUMPDEST DUP2 SLOAD DUP2 MSTORE SWAP1 PUSH1 0x1 ADD SWAP1 PUSH1 0x20 ADD DUP1 DUP4 GT PUSH2 0x78F JUMPI DUP3 SWAP1 SUB PUSH1 0x1F AND DUP3 ADD SWAP2 JUMPDEST POP POP POP POP POP DUP2 JUMP JUMPDEST PUSH1 0x0 DUP1 PUSH1 0x2 DUP2 GT ISZERO PUSH2 0x7C2 JUMPI INVALID JUMPDEST PUSH1 0x7 PUSH1 0x0 SWAP1 SLOAD SWAP1 PUSH2 0x100 EXP SWAP1 DIV PUSH1 0xFF AND PUSH1 0x2 DUP2 GT ISZERO PUSH2 0x7DD JUMPI INVALID JUMPDEST EQ PUSH2 0x7E7 JUMPI PUSH1 0x0 DUP1 REVERT JUMPDEST PUSH1 0x0 DUP1 SLOAD SWAP1 PUSH2 0x100 EXP SWAP1 DIV PUSH20 0xFFFFFFFFFFFFFFFFFFFFFFFFFFFFFFFFFFFFFFFF AND PUSH20 0xFFFFFFFFFFFFFFFFFFFFFFFFFFFFFFFFFFFFFFFF AND CALLER PUSH20 0xFFFFFFFFFFFFFFFFFFFFFFFFFFFFFFFFFFFFFFFF AND EQ ISZERO PUSH2 0x840 JUMPI PUSH1 0x0 DUP1 REVERT JUMPDEST PUSH2 0x892 CALLVALUE PUSH1 0x8 PUSH1 0x0 CALLER PUSH20 0xFFFFFFFFFFFFFFFFFFFFFFFFFFFFFFFFFFFFFFFF AND PUSH20 0xFFFFFFFFFFFFFFFFFFFFFFFFFFFFFFFFFFFFFFFF AND DUP2 MSTORE PUSH1 0x20 ADD SWAP1 DUP2 MSTORE PUSH1 0x20 ADD PUSH1 0x0 KECCAK256 SLOAD PUSH2 0xA06 SWAP1 SWAP2 SWAP1 PUSH4 0xFFFFFFFF AND JUMP JUMPDEST PUSH1 0x8 PUSH1 0x0 CALLER PUSH20 0xFFFFFFFFFFFFFFFFFFFFFFFFFFFFFFFFFFFFFFFF AND PUSH20 0xFFFFFFFFFFFFFFFFFFFFFFFFFFFFFFFFFFFFFFFF AND DUP2 MSTORE PUSH1 0x20 ADD SWAP1 DUP2 MSTORE PUSH1 0x20 ADD PUSH1 0x0 KECCAK256 DUP2 SWAP1 SSTORE POP PUSH2 0x8EA CALLVALUE PUSH1 0x3 SLOAD PUSH2 0xA06 SWAP1 SWAP2 SWAP1 PUSH4 0xFFFFFFFF AND JUMP JUMPDEST PUSH1 0x3 DUP2 SWAP1 SSTORE POP PUSH32 0x3BC9AC65DE6B1CB77C2CC72CA9BB3B9B4DEC13C6502014E3057BAB56515BE6B2 CALLER CALLVALUE PUSH1 0x3 SLOAD PUSH1 0x40 MLOAD DUP1 DUP5 PUSH20 0xFFFFFFFFFFFFFFFFFFFFFFFFFFFFFFFFFFFFFFFF AND DUP2 MSTORE PUSH1 0x20 ADD DUP4 DUP2 MSTORE PUSH1 0x20 ADD DUP3 DUP2 MSTORE PUSH1 0x20 ADD SWAP4 POP POP POP POP PUSH1 0x40 MLOAD DUP1 SWAP2 SUB SWAP1 LOG1 PUSH2 0x957 PUSH2 0x98A JUMP JUMPDEST POP JUMP JUMPDEST PUSH1 0x1 SLOAD DUP2 JUMP JUMPDEST PUSH1 0x3 SLOAD DUP2 JUMP JUMPDEST PUSH1 0x0 DUP1 SLOAD SWAP1 PUSH2 0x100 EXP SWAP1 DIV PUSH20 0xFFFFFFFFFFFFFFFFFFFFFFFFFFFFFFFFFFFFFFFF AND DUP2 JUMP JUMPDEST PUSH1 0x1 SLOAD PUSH1 0x3 SLOAD LT PUSH2 0x9C7 JUMPI PUSH1 0x2 PUSH1 0x7 PUSH1 0x0 PUSH2 0x100 EXP DUP2 SLOAD DUP2 PUSH1 0xFF MUL NOT AND SWAP1 DUP4 PUSH1 0x2 DUP2 GT ISZERO PUSH2 0x9B4 JUMPI INVALID JUMPDEST MUL OR SWAP1 SSTORE POP PUSH2 0x9C1 PUSH2 0xA8E JUMP JUMPDEST POP PUSH2 0x9F7 JUMP JUMPDEST PUSH1 0x4 SLOAD TIMESTAMP GT ISZERO PUSH2 0x9F6 JUMPI PUSH1 0x1 PUSH1 0x7 PUSH1 0x0 PUSH2 0x100 EXP DUP2 SLOAD DUP2 PUSH1 0xFF MUL NOT AND SWAP1 DUP4 PUSH1 0x2 DUP2 GT ISZERO PUSH2 0x9F0 JUMPI INVALID JUMPDEST MUL OR SWAP1 SSTORE POP JUMPDEST JUMPDEST TIMESTAMP PUSH1 0x2 DUP2 SWAP1 SSTORE POP JUMP JUMPDEST PUSH1 0x2 SLOAD DUP2 JUMP JUMPDEST PUSH1 0x0 DUP1 DUP3 DUP5 ADD SWAP1 POP DUP4 DUP2 LT ISZERO PUSH2 0xA84 JUMPI PUSH1 0x40 MLOAD PUSH32 0x8C379A000000000000000000000000000000000000000000000000000000000 DUP2 MSTORE PUSH1 0x4 ADD DUP1 DUP1 PUSH1 0x20 ADD DUP3 DUP2 SUB DUP3 MSTORE PUSH1 0x1B DUP2 MSTORE PUSH1 0x20 ADD DUP1 PUSH32 0x536166654D6174683A206164646974696F6E206F766572666C6F770000000000 DUP2 MSTORE POP PUSH1 0x20 ADD SWAP2 POP POP PUSH1 0x40 MLOAD DUP1 SWAP2 SUB SWAP1 REVERT JUMPDEST DUP1 SWAP2 POP POP SWAP3 SWAP2 POP POP JUMP JUMPDEST PUSH1 0x0 PUSH1 0x2 DUP1 PUSH1 0x2 DUP2 GT ISZERO PUSH2 0xA9E JUMPI INVALID JUMPDEST PUSH1 0x7 PUSH1 0x0 SWAP1 SLOAD SWAP1 PUSH2 0x100 EXP SWAP1 DIV PUSH1 0xFF AND PUSH1 0x2 DUP2 GT ISZERO PUSH2 0xAB9 JUMPI INVALID JUMPDEST EQ PUSH2 0xAC3 JUMPI PUSH1 0x0 DUP1 REVERT JUMPDEST PUSH1 0x0 PUSH1 0x3 SLOAD SWAP1 POP PUSH1 0x0 PUSH1 0x3 DUP2 SWAP1 SSTORE POP PUSH1 0x0 DUP1 SLOAD SWAP1 PUSH2 0x100 EXP SWAP1 DIV PUSH20 0xFFFFFFFFFFFFFFFFFFFFFFFFFFFFFFFFFFFFFFFF AND PUSH20 0xFFFFFFFFFFFFFFFFFFFFFFFFFFFFFFFFFFFFFFFF AND PUSH2 0x8FC DUP3 SWAP1 DUP2 ISZERO MUL SWAP1 PUSH1 0x40 MLOAD PUSH1 0x0 PUSH1 0x40 MLOAD DUP1 DUP4 SUB DUP2 DUP6 DUP9 DUP9 CALL SWAP4 POP POP POP POP ISZERO PUSH2 0xBA3 JUMPI PUSH32 0xDEA1361B6AFDE9D7F71DA61D66AB9E8459AF4CEEAB8A266B56EB756EE78282EA PUSH1 0x0 DUP1 SLOAD SWAP1 PUSH2 0x100 EXP SWAP1 DIV PUSH20 0xFFFFFFFFFFFFFFFFFFFFFFFFFFFFFFFFFFFFFFFF AND PUSH1 0x40 MLOAD DUP1 DUP3 PUSH20 0xFFFFFFFFFFFFFFFFFFFFFFFFFFFFFFFFFFFFFFFF AND DUP2 MSTORE PUSH1 0x20 ADD SWAP2 POP POP PUSH1 0x40 MLOAD DUP1 SWAP2 SUB SWAP1 LOG1 PUSH1 0x1 SWAP3 POP POP PUSH2 0xBD4 JUMP JUMPDEST DUP1 PUSH1 0x3 DUP2 SWAP1 SSTORE POP PUSH1 0x2 PUSH1 0x7 PUSH1 0x0 PUSH2 0x100 EXP DUP2 SLOAD DUP2 PUSH1 0xFF MUL NOT AND SWAP1 DUP4 PUSH1 0x2 DUP2 GT ISZERO PUSH2 0xBC9 JUMPI INVALID JUMPDEST MUL OR SWAP1 SSTORE POP PUSH1 0x0 SWAP3 POP POP JUMPDEST POP SWAP1 JUMP INVALID LOG2 PUSH5 0x6970667358 0x22 SLT KECCAK256 0xAB PUSH29 0xA67EA4F350BF53A5A08B1F70BC14E9669905B27982D4D3DE87DF803D2D RETURNDATASIZE PUSH5 0x736F6C6343 STOP MOD 0xC STOP CALLER "
				},
				"gasEstimates": {
					"creation": {
						"codeDepositCost": "617200",
						"executionCost": "infinite",
						"totalCost": "infinite"
					},
					"external": {
						"artista()": "1110",
						"balanceActual()": "1049",
						"comprobarSiRecaudacionCompletadaOExpirada()": "infinite",
						"contribuir()": "infinite",
						"descripcion()": "infinite",
						"direcciones_mecenas(address)": "1192",
						"estado()": "1156",
						"fechaCompletado()": "1115",
						"fechaLimite()": "1006",
						"getDetalles()": "infinite",
						"objetivo()": "1027",
						"titulo()": "infinite"
					},
					"internal": {
						"payOut()": "infinite"
					}
				},
				"methodIdentifiers": {
					"artista()": "d925dbbe",
					"balanceActual()": "c053a99c",
					"comprobarSiRecaudacionCompletadaOExpirada()": "e97232cb",
					"contribuir()": "799000b1",
					"descripcion()": "6c83420b",
					"direcciones_mecenas(address)": "14137912",
					"estado()": "688e3467",
					"fechaCompletado()": "f8ae774d",
					"fechaLimite()": "0f2a397a",
					"getDetalles()": "56fb71e5",
					"objetivo()": "a8dc86f7",
					"titulo()": "391b1ab0"
				}
			},
			"storageLayout": {
				"storage": [
					{
						"astId": 226,
						"contract": "contracts/6_CrowdfundingEjer2.sol:Project",
						"label": "artista",
						"offset": 0,
						"slot": "0",
						"type": "t_address_payable"
					},
					{
						"astId": 228,
						"contract": "contracts/6_CrowdfundingEjer2.sol:Project",
						"label": "objetivo",
						"offset": 0,
						"slot": "1",
						"type": "t_uint256"
					},
					{
						"astId": 230,
						"contract": "contracts/6_CrowdfundingEjer2.sol:Project",
						"label": "fechaCompletado",
						"offset": 0,
						"slot": "2",
						"type": "t_uint256"
					},
					{
						"astId": 232,
						"contract": "contracts/6_CrowdfundingEjer2.sol:Project",
						"label": "balanceActual",
						"offset": 0,
						"slot": "3",
						"type": "t_uint256"
					},
					{
						"astId": 234,
						"contract": "contracts/6_CrowdfundingEjer2.sol:Project",
						"label": "fechaLimite",
						"offset": 0,
						"slot": "4",
						"type": "t_uint256"
					},
					{
						"astId": 236,
						"contract": "contracts/6_CrowdfundingEjer2.sol:Project",
						"label": "titulo",
						"offset": 0,
						"slot": "5",
						"type": "t_string_storage"
					},
					{
						"astId": 238,
						"contract": "contracts/6_CrowdfundingEjer2.sol:Project",
						"label": "descripcion",
						"offset": 0,
						"slot": "6",
						"type": "t_string_storage"
					},
					{
						"astId": 242,
						"contract": "contracts/6_CrowdfundingEjer2.sol:Project",
						"label": "estado",
						"offset": 0,
						"slot": "7",
						"type": "t_enum(Estado)224"
					},
					{
						"astId": 246,
						"contract": "contracts/6_CrowdfundingEjer2.sol:Project",
						"label": "direcciones_mecenas",
						"offset": 0,
						"slot": "8",
						"type": "t_mapping(t_address,t_uint256)"
					}
				],
				"types": {
					"t_address": {
						"encoding": "inplace",
						"label": "address",
						"numberOfBytes": "20"
					},
					"t_address_payable": {
						"encoding": "inplace",
						"label": "address payable",
						"numberOfBytes": "20"
					},
					"t_enum(Estado)224": {
						"encoding": "inplace",
						"label": "enum Project.Estado",
						"numberOfBytes": "1"
					},
					"t_mapping(t_address,t_uint256)": {
						"encoding": "mapping",
						"key": "t_address",
						"label": "mapping(address => uint256)",
						"numberOfBytes": "32",
						"value": "t_uint256"
					},
					"t_string_storage": {
						"encoding": "bytes",
						"label": "string",
						"numberOfBytes": "32"
					},
					"t_uint256": {
						"encoding": "inplace",
						"label": "uint256",
						"numberOfBytes": "32"
					}
				}
			},
			"userdoc": {
				"kind": "user",
				"methods": {},
				"version": 1
			}
		}
	}
}